:020000021000EC
:10F000004BC0000066C0000064C0000062C0000089
:10F0100060C000005EC000005CC000005AC000007C
:10F0200058C0000056C0000068C4000052C0000074
:10F0300050C000004EC000004CC000004AC000009C
:10F0400048C0000046C0000044C0000042C00000AC
:10F0500041C000003EC000003CC000003AC00000BB
:10F0600038C0000036C0000034C0000032C00000CC
:10F0700030C000002EC000002CC000002AC00000DC
:10F0800028C0000026C0000024C0000022C00000EC
:10F0900020C000001EC0000011241FBECFEFD0E230
:10F0A000DEBFCDBF11E0A0E0B1E0EAE3FEEF01E09A
:10F0B0000BBF02C007900D92AC38B107D9F711E031
:10F0C000ACE8B1E001C01D92AA39B107E1F746D31F
:10F0D000B2C696CF1F920F920FB60F9211248F9344
:10F0E0009F938BB190E389278BB99F918F910F905C
:10F0F0000FBE0F901F90189584E08093E9000DC01B
:10F100008091E8008B778093E80003C08EB388235A
:10F1100051F08091E80082FFF9CF8091E80085FFEF
:10F12000EFCF8091F1000895982F83E08093E9005C
:10F130008091E80085FD0DC08091E8008E77809376
:10F14000E80003C08EB3882331F08091E80080FF8F
:10F15000F9CF9093F10008954F925F926F927F9252
:10F160008F929F92AF92BF92CF92DF92EF92FF92D7
:10F170000F931F93CF93DF9384E08093E9008091F6
:10F18000E80082FF73C2B8DF182F853419F410929B
:10F19000080103C0843519F4AFDF8DE03DC28C3423
:10F1A000E1F38035D1F3843711F484E495C08136DE
:10F1B00011F489E531C28134B1F49EDF182F9CDF50
:10F1C00090E0880F991FAA2797FDA095BA2F312F9D
:10F1D000330F20E0442737FD4095542F822B932B8B
:10F1E000A42BB52BEAC1803711F483E515C2833512
:10F1F00049F4C0E0D1E0899197DF41E0C730D407FE
:10F20000D1F70BC2863521F481E38EDF80E304C29F
:10F21000833731F482E888DF87E986DF8EE1FCC13D
:10F22000853629F580E090E0A0E0B0E033E025E00D
:10F23000FC01A0935B0030935700E89507B600FCF3
:10F24000FDCFFC01A0935B0020935700E89507B623
:10F2500000FCFDCF80509F4FAF4FBF4F803040EF3D
:10F26000940741E0A40740E0B40711F796CF8C362D
:10F2700051F442DF809599E0E1E0F0E0082E9093B0
:10F280005700E8958ACF823739F4E1E0F0E089E071
:10F29000809357008491C0C1863439F4E0E0F0E0F7
:10F2A00089E0809357008491B7C18E3439F4E3E04C
:10F2B000F0E089E0809357008491AEC1813539F444
:10F2C000E2E0F0E089E0809357008491A5C18236A6
:10F2D00031F489E529DF81E027DF80E09DC18234B8
:10F2E00019F0873609F0E6C007DF082F05DFF82E92
:10F2F00003DF682E8554823008F08DC1902F80E0A6
:10F30000CF2DD0E0C82BD92B173609F050C081E1A2
:10F3100080935700E895DD24CC24C39444C0E0904A
:10F320008C01F0908D0100918E0110918F0186E487
:10F33000681601F58D2D90E0A0E0B0E08E299F29A0
:10F34000A02BB12BABBFFC018791EEDEDD2081F05D
:10F3500082E090E0A0E0B0E0E80EF91E0A1F1B1F5B
:10F36000E0928C01F0928D0100938E0110938F0139
:10F37000DC2418C0D801C701B695A7959795879545
:10F3800044D5D2DE82E090E0A0E0B0E0E80EF91EC5
:10F390000A1F1B1FE0928C01F0928D0100938E01D9
:10F3A00010938F012197209709F0B9CF36C1809033
:10F3B0008C0190908D01A0908E01B0908F0196E409
:10F3C000691609F061C083E0F401A0925B008093AC
:10F3D0005700E89507B600FCFDCF56C0A6E46A16B4
:10F3E00071F5772041F1E0908C01F0908D01009152
:10F3F0008E0110918F0180DED82ECC24852D90E0D7
:10F400008C299D290C01F70100935B004092570065
:10F41000E895112482E090E0A0E0B0E0E80EF91E4B
:10F420000A1F1B1FE0928C01F0928D0100938E0148
:10F4300010938F0102C060DE582E742423C0E09028
:10F440008C01F0908D0100918E0110918F01169525
:10F450000795F794E79450DE682FC701DED48091BA
:10F460008C0190918D01A0918E01B0918F01029637
:10F47000A11DB11D80938C0190938D01A0938E01ED
:10F48000B0938F01219704C05524772444244394DA
:10F49000209709F0A3CF96E4691609F07ECE85E0A7
:10F4A000F401A0925B0080935700E89507B600FC3A
:10F4B000FDCF73CE8334A1F4E0908C01F0908D01E8
:10F4C00000918E0110918F0117DE90E021E00C0178
:10F4D000F70100935B0020935700E89511245DCE5F
:10F4E000833639F5E0908C01F0908D0100918E010A
:10F4F00010918F0101DEA8019701216090E061E089
:10F500000C01F90140935B0060935700E8951124CA
:10F5100082E090E0A0E0B0E0E80EF91E0A1F1B1F99
:10F52000E0928C01F0928D0100938E0110938F0177
:10F5300034CE8D3699F480918C0190918D01A091FB
:10F540008E01B0918F0125E0FC01A0935B00209318
:10F550005700E89507B600FCFDCF1FCE823581F439
:10F56000E0908C01F0908D0100918E0110918F013F
:10F570000BBFF701E790F6908F2DD6DD8E2D4CC096
:10F58000843421F5E0908C01F0908D0100918E0182
:10F5900010918F0116950795F794E794ADDD682FCC
:10F5A000C7013BD480918C0190918D01A0918E0177
:10F5B000B0918F010296A11DB11D80938C01909393
:10F5C0008D01A0938E01B0938F01E7CD843609F5AC
:10F5D000E0908C01F0908D0100918E0110918F01CF
:10F5E000D801C701B695A795979587950ED49CDD50
:10F5F00082E090E0A0E0B0E0E80EF91E0A1F1B1FB9
:10F60000E0928C01F0928D0100938E0110938F0196
:10F6100004C08B3111F08FE387DD83E08093E90034
:10F620009091E8008091E8008E778093E80095FF44
:10F6300004C010C08EB38823C9F08091E80080FF19
:10F64000F9CF8091E8008E778093E80003C08EB3F5
:10F65000882361F08091E80080FFF9CF84E08093F7
:10F66000E9008091E8008B778093E800DF91CF91EB
:10F670001F910F91FF90EF90DF90CF90BF90AF90D0
:10F680009F908F907F906F905F904F900895209102
:10F690009201822F8F77813269F58BB190E38927B0
:10F6A0008BB9809193018032A1F0813219F5213A12
:10F6B00009F58091E800877F8093E80089E091E078
:10F6C00067E070E0CFD18091E8008B778093E8000D
:10F6D0000895213279F48091E800877F8093E800D3
:10F6E00089E091E067E070E019D28091E8008E77C0
:10F6F0008093E800089582E061EC42E072D083E0FC
:10F7000061E842E16ED084E060E842E16AC01F93A4
:10F7100084B7877F84BF88E10FB6F8948093600038
:10F72000109260000FBE90E080E80FB6F8948093CE
:10F730006100909361000FBE11E015BF82E085BFAC
:10F74000C6D08AB1806F8AB98BB18F708BB9109394
:10F750006F0083E0809381001F910895D8DF8BB103
:10F760008F7080618BB9789402C0F6DC3CD38091B5
:10F7700008018823D1F78091E00081608093E00048
:10F780002CE088E190E00FB6F894A8958093600093
:10F790000FBE20936000FFCFFA01923071F09330DA
:10F7A00089F0913029F480E191E022E130E015C048
:10F7B00080E090E020E030E010C082E291E02EE3B3
:10F7C00030E00BC0882329F480E691E024E030E0AB
:10F7D00004C084E691E026E230E091838083C90191
:10F7E00008958093E9008091EB0081608093EB00A5
:10F7F0001092ED006093EC004093ED008091EE00DC
:10F80000881F8827881F08958091920188238CF48F
:10F8100003C08EB38823B1F08091E80082FFF9CF56
:10F820008091E8008B778093E80008958EB3882359
:10F8300049F08091E80080FFF9CF8091E8008E7751
:10F840008093E8000895EF92FF920F931F9348D0A2
:10F850004FD008ED10E0F80180818F7780838081A0
:10F860008068808380818F7D8083E7EDF0E08081F8
:10F870008068808319BC1EBA1092900180EEE82E39
:10F88000F12CF70180818B7F8083F801808181607A
:10F89000808380E060E042E0A4DFE1EEF0E0808180
:10F8A0008E7F8083E2EEF0E08081816080838081C2
:10F8B00088608083F70180818E7F8083F80180815A
:10F8C000806180831F910F91FF90EF900895E7ED85
:10F8D000F0E080818160808381E080939101B3CFEB
:10F8E000E8EDF0E080818C7F80831092E200089543
:10F8F0001092DA001092E10008951F920F920FB655
:10F900000F920BB60F9211242F933F934F935F9357
:10F910006F937F938F939F93AF93BF93EF93FF93D7
:10F920008091DA0080FF1BC08091D80080FF17C053
:10F930008091DA008E7F8093DA008091D90080FF79
:10F940000BC08CE089BD8EE089BD09B400FEFDCFFF
:10F9500081E08EBB47D203C019BC1EBA43D280914E
:10F96000E10080FF17C08091E20080FF13C080910A
:10F97000E2008E7F8093E2008091E20080618093BC
:10F98000E2008091D80080628093D80019BC85E0A5
:10F990008EBB28D28091E10084FF2CC08091E200D0
:10F9A00084FF28C08CE089BD8EE089BD09B400FECB
:10F9B000FDCF8091D8008F7D8093D8008091E100A9
:10F9C0008F7E8093E1008091E2008F7E8093E20041
:10F9D0008091E20081608093E20080919001882311
:10F9E00031F48091E30087FD02C081E001C084E032
:10F9F0008EBBF8D18091E10083FF21C08091E200AD
:10FA000083FF1DC08091E100877F8093E10082E049
:10FA10008EBB109290018091E1008E7F8093E10077
:10FA20008091E2008E7F8093E2008091E20080610D
:10FA30008093E20080E060E042E0D3DED3D1FF912A
:10FA4000EF91BF91AF919F918F917F916F915F9156
:10FA50004F913F912F910F900BBE0F900FBE0F90C3
:10FA60001F9018959C01409198015091990146175B
:10FA7000570718F4F90190E03CC06115710511F0C9
:10FA8000AB01F8CF8091E8008E778093E80040E0EA
:10FA900050E0F0CF8EB38823E9F18530E9F1809111
:10FAA000E80083FF02C081E008958091E80082FDB4
:10FAB0002BC08091E80080FF1CC02091F2003091A3
:10FAC000F30007C081918093F100415050402F5FB7
:10FAD0003F4F4115510519F02830310598F390E05A
:10FAE0002830310509F491E08091E8008E77809309
:10FAF000E8004115510571F6992361F605C08EB3F2
:10FB0000882341F0853041F08091E80082FFF7CFF3
:10FB100080E0089582E0089583E008959C016115D6
:10FB2000710529F48091E8008B778093E800F90152
:10FB300021C08EB3882369F1853069F18091E80096
:10FB400083FF02C081E008958091E80082FFF1CF39
:10FB500006C08091F10081936150704031F0809136
:10FB6000F2009091F300892BA1F78091E8008B7748
:10FB70008093E80061157105E1F605C08EB3882316
:10FB800041F0853041F08091E80080FFF7CF80E0C0
:10FB9000089582E0089583E008950F931F93DF9303
:10FBA000CF9300D0CDB7DEB78091F1008093920162
:10FBB0008091F100809393018091F1009091F10088
:10FBC000E4E9F1E080939401909395018091F10034
:10FBD0009091F1008093960193838091F100909130
:10FBE000F10080939801958352DD8091E80083FFB6
:10FBF000E4C08091920190919301953009F46DC019
:10FC0000963040F4913081F1913070F0933009F0EA
:10FC1000D4C02AC0983009F4A3C0993009F4B2C006
:10FC2000963009F0CAC07CC0803809F4C6C082385A
:10FC300009F0C3C08091960187708093E90080919C
:10FC4000EB001092E9002091E800277F2093E80064
:10FC500090E025E0969587952A95E1F7817080934D
:10FC6000F1001092F10087C0882319F0823009F06A
:10FC7000A4C08F71823009F0A0C0809194018823C4
:10FC800031F520919601277009F497C02093E9007F
:10FC90008091EB0080FF1BC0933021F48091EB003A
:10FCA000806213C08091EB0080618093EB0081E063
:10FCB00090E002C0880F991F2A95E2F78093EA002E
:10FCC0001092EA008091EB0088608093EB00109224
:10FCD000E9008091E800877F51C0882309F06DC05A
:10FCE000109194011F770FB7F8948091E800877FF7
:10FCF0008093E80089DD8091E80080FFFCCF80914F
:10FD0000E3008078812B8093E30080688093E30098
:10FD1000112311F482E001C083E08EBB0FBF4DC000
:10FD20008058823008F049C08091940190919501EB
:10FD300060919601AE014F5F5F4F2EDDBC010097D1
:10FD400009F43BC08091E800877F8093E8008981B7
:10FD50009A8188DE8091E8008B778093E8002DC03F
:10FD6000803859F58091E800877F8093E800809182
:10FD700090018093F1008091E8008E778093E800F5
:10FD800043DD1BC08823C9F4909194019230A8F4FC
:10FD90008091E800877F8093E8009093900134DDA4
:10FDA00080919001882331F48091E30087FD02C0A7
:10FDB00081E001C084E08EBB9EDC8091E80083FF7F
:10FDC0000AC08091EB0080628093EB008091E80094
:10FDD000877F8093E8000F900F90CF91DF911F9164
:10FDE0000F91089508951F938EB3882361F01091A9
:10FDF000E9001092E9008091E80083FF01C0CDDEA8
:10FE000017701093E9001F910895F999FECF92BDE4
:10FE100081BDF89A992780B50895262FF999FECFCC
:10FE20001FBA92BD81BD20BD0FB6F894FA9AF99A17
:0AFE30000FBE01960895F894FFCF6D
:10FE3A004C554641434443000100000000000008BD
:10FE4A001201100102000008EB034A200100000120
:10FE5A00000109023E00020100803209040000018B
:10FE6A0002020100052400100104240204052406EC
:10FE7A000001070582030800FF09040100020A00C5
:10FE8A0000000705040210000107058302100001A3
:10FE9A0004030904260341005600520020004300CF
:10FEAA0044004300200042006F006F0074006C00A1
:0CFEBA006F006100640065007200000031
:040000031000F000F9
:00000001FF
