:100000004BC0000066C0000064C0000062C0000079
:1000100060C000005EC000005CC000005AC000006C
:1000200058C0000056C00000DBC4000052C00000F1
:1000300050C000004EC000004CC000004AC000008C
:1000400048C0000046C0000044C0000042C000009C
:1000500040C000003EC000003CC000003AC00000AC
:1000600038C0000036C0000034C0000032C00000BC
:1000700030C000002EC000002CC000002AC00000CC
:1000800028C0000026C0000024C0000022C00000DC
:1000900020C000001EC0000011241FBECFEFD0E220
:1000A000DEBFCDBF11E0A0E0B1E0ECEEFFE000E08C
:1000B0000BBF02C007900D92A235B107D9F711E02E
:1000C000A2E5B1E001C01D92A13AB107E1F71AD152
:1000D0008BC796CF8BB18F70806A8BB908958BB127
:1000E0008F7080618BB908958BB18F7080698BB9E7
:1000F00008958EB38B30E1F481E08093A700809166
:10010000A9008F7B8093A9008091A60080FD06C086
:100110008091A90080648093A90008958091A60031
:100120008E778093A6008091A90080648093A900B7
:1001300008959C018EB38B30C9F582E08093A700AF
:100140008091AC0087FF18C08091A9008F7B8093BD
:10015000A9008091A60082FF09C0C90140E050E0DB
:10016000D0D48091A6008B778093A6008091A900BF
:1001700080648093A900089581E28093990189E0C9
:1001800080939A0182E090E090939C0180939B0180
:1001900081E090E090939E0180939D017093A00177
:1001A00060939F011092A700C901CAC50895F3D3B7
:1001B0008BB18F7080698BB9FFCF8BB18F70806AE4
:1001C0008BB9C7D0882321F481E0D8D6882321F0C9
:1001D0008BB18F70806903C08BB18F7080668BB9D3
:1001E0000895A4E5B1E0FC0188E001900D928150F2
:1001F000E1F784E591E09DCFCF93DF93EC0180910F
:1002000052019091530121E08030920721F4C817E8
:10021000D90729F416C081E0C030D80791F48BB11A
:1002200090E489278BB988E091E068E070E0D9DF3D
:1002300080E191E068E070E0D4DFCE0160E470E03E
:10024000D0DFD0935301C0935201DF91CF91089535
:1002500023B18CB1629903C088E191E01DC0809503
:1002600090E08073907095958795922F9095907EF1
:10027000982B97FF03C080E291E00EC094FF03C06B
:1002800088E291E009C096FF03C080E391E004C0DA
:1002900093FF03C088E391E0AFCF8091520190912A
:1002A00053018050914019F080E091E0A5CF08956E
:1002B00084B7877F84BF88E10FB6F894809360008D
:1002C000109260000FBE90E080E80FB6F894809323
:1002D0006100909361000FBE8AB1806F8AB98BB1C3
:1002E0008F708BB94FD384B18F7184B98DB18F7CEE
:1002F0008DB985B1806E85B98EB180638EB96A98EB
:10030000729A0895D5DF80E091E090935301809335
:1003100052018BB18F7080618BB9789499DFE9DEDF
:1003200051D6FCCFFC018181843029F48581833052
:1003300011F480E0089582E00895FC018181853008
:1003400011F480E00895843011F082E0089581E096
:1003500008958F929F92AF92BF92CF92DF92EF92C9
:10036000FF920F931F93DF93CF93CDB7DEB7C450A7
:10037000D2400FB6F894DEBF0FBECDBFAE014B5FCB
:100380005F4F5A83498383E0E82EF12CEC0EFD1E6B
:1003900081E0B70120E032E04FD4853029F086308B
:1003A00089F0882319F010C082E053C000E010E00B
:1003B000AA24BB24CC24DD2447017E010894E11C3F
:1003C000F11C04C083E045C081E043C00115110564
:1003D00039F0C401B7014DE951E0EAD3882389F02F
:1003E000A114B104E1F4C401B70142E951E0E0D342
:1003F000882311F084E02DC009811A81CC24DD24EA
:10040000E5CFE981FA81828187FD02C06F0101C0D9
:100410005F01A114B104D1F2C114D104B9F2F50104
:100420000481158181E063E040E12281EE24E3D183
:10043000F50186818093AD00C114D10449F0F60125
:100440000481158182E063E040E22281EE24D3D171
:1004500080E0CC5FDD4F0FB6F894DEBF0FBECDBF9E
:10046000CF91DF911F910F91FF90EF90DF90CF9090
:10047000BF90AF909F908F900895982F20919E00ED
:100480003091A0008091A0008F7D8093A00080918A
:100490009F008F7D80939F0080919E00816080935C
:1004A0009E0027C080919F0085FF06C080919F001D
:1004B0008F7D80939F0091508EB3813011F491E035
:1004C0001AC08091A60084FF09C01092F5008091A7
:1004D000A6008F7E8093A60092E00DC08091A600BA
:1004E00081FF07C08091A6008D7F8093A60093E0D6
:1004F00002C09923B9F620FD05C080919E008E7F31
:1005000080939E0035FF05C08091A000806280939B
:10051000A000892F089560919E008091A0008D7F9A
:100520008093A00080919E00826080939E008091C5
:100530009E0081FDFCCF80919E00816080939E0093
:10054000109297013091A0008091A0008F7D809340
:10055000A00080919F008F7D80939F002AE040ED56
:1005600057E080919F0085FF0BC080919F008F7D99
:1005700080939F0080919F008D7F80939F0005C096
:10058000CA010197F1F7215061F735FF05C080914D
:10059000A00080628093A00060FD05C080919E0055
:1005A0008E7F80939E008091A00082608093A00047
:1005B0000895EF920F931F93DF93CF93CDB7DEB7DC
:1005C00028970FB6F894DEBF0FBECDBF8EB385302F
:1005D00009F491C0863068F48230B1F1833018F4A8
:1005E0008823A1F0FCC08330C1F1843009F0F7C04A
:1005F0005BC0873009F497C0873008F486C0883024
:1006000009F4AEC0893009F0EAC0D1C0009195016B
:10061000109196010115110509F4E1C081E02DDF6B
:10062000682F882329F0809194018EBB91E0D4C07B
:10063000C80101979093960180939501892B09F049
:10064000CEC08091940107C088EE93E0909396010C
:100650008093950183E08EBBC2C0809195019091FB
:10066000960101979093960180939501019629F048
:1006700080ED97E00197F1F7B2C077988091D800AC
:1006800080618093D8008091DD008B7F8093DD00B6
:100690008091D70080618093D7008091DD008260D7
:1006A0008093DD0084E0D7CF80919F0080FF97C0CA
:1006B00080919F008E7F80939F0080919F008D7F0F
:1006C00080939F008091DF008D7F8093DF00809179
:1006D000DE0082608093DE0080919E0081608093C6
:1006E0009E00BFD01EBA84E690E09093960180935E
:1006F000950185E059C00FDF1EBA88EC90E0909319
:1007000096018093950186E04FC080E060E040E074
:1007100020E000E410E0EE246ED08091AC0087FF72
:1007200059C087E098CFA9E9B1E0E8E4F1E088E0BA
:1007300001900D928150E1F7CE01019601D3682F0F
:10074000882309F045C0888580935001E4DE1EBAF5
:1007500088EC90E0909396018093950188E024C006
:100760000091500180E060E040E020E010E0EE24E5
:1007700042D08091AC0087FF2DC0A9E9B1E0E0E450
:10078000F1E088E001900D928150E1F780E090E087
:10079000D7D2682F8823E1F41EBA84E690E09093C4
:1007A00096018093950189E08093940118C081E0BF
:1007B0008093A1008AE08EBB00DD11C0892F94DCFC
:1007C0008091DD0081608093DD0089DC8CD007C0E2
:1007D00093E002C094E060E08EB3813079F7289610
:1007E0000FB6F894DEBF0FBECDBFCF91DF911F9142
:1007F0000F91EF900895EF920F931F939E2D80938A
:10080000A7008091A90081608093A9001092AB009D
:100810006295660F660F607C642B2F70622B60936D
:10082000AA0028E030E080E003C08F5F220F331F72
:100830002017310710F48530C1F792608295807FD0
:10084000892B8093AB008091A90080628093A900DE
:100850008091AC00881F8827881F1F910F91EF900F
:1008600008951092F80090E09093A7001092AE00C7
:100870001092A6001092AB008091A9008E7F809309
:10088000A9009F5F973081F708954091A200509191
:10089000A30024E68091AA008073803129F480911E
:1008A000A60080FF05C01DC08091A60082FD19C072
:1008B0008091A60081FF02C081E008958EB381304F
:1008C00011F482E008958091A2009091A300841712
:1008D000950701F3222311F483E008952150AC0120
:1008E000D9CF80E008956FD076D08091D8008F77EF
:1008F0008093D8008091D80080688093D800809140
:10090000D8008F7D8093D8008091D7008F77809317
:10091000D7008CE089BD8EE089BD09B400FEFDCF13
:1009200081E08EBB1092970180E48093500180910A
:10093000D80080648093D8008091DD00816080932E
:10094000DD008091DD0084608093DD008091D70020
:100950008F7E8093D7006F9A779A8091DE008160B6
:100960008093DE008091DE0084608093DE008091C1
:10097000E0008E7F8093E0008091D80080618093BA
:10098000D8000895E7EDF0E080818160808381E008
:1009900080939801A8CF17D01ED0E0EEF0E08081C0
:1009A00081608083A8EDB0E08C918F778C9319BC27
:1009B000E7EDF0E080818E7F80838C918F7E8C9339
:1009C000109298010895E8EDF0E080818C7F80839B
:1009D0001092A00008951092DA0010929F000895DE
:1009E0001F920F920FB60F920BB60F9211242F93F6
:1009F0003F934F935F936F937F938F939F93AF93A7
:100A0000BF93EF93FF9380919F0085FF0AC0809171
:100A1000A00085FF06C080919F008F7D80939F007E
:100A200065D180919F0081FF15C08091A00081FF5A
:100A300011C080919F008D7F80939F0080919F00C7
:100A40008E7F80939F008091A0008D7F8093A00077
:100A500046DB49DF8091DF0081FF14C08091DE001A
:100A600081FF10C08091DF008D7F8093DF00779839
:100A70008091DD0081608093DD0080E098DB2FDBDA
:100A800081E08EBB8091DF0080FF16C08091DE0088
:100A900080FF12C08091DF008E7F8093DF00809105
:100AA000DE008E7F8093DE0015DB8091A0008260E7
:100AB0008093A00082E08EBB8091DF0082FF0EC099
:100AC0008091DE0082FF0AC08091DF008B7F8093DF
:100AD000DF0082E060E008DB02DB05DFFF91EF91E1
:100AE000BF91AF919F918F917F916F915F914F9146
:100AF0003F912F910F900BBE0F900FBE0F901F9044
:100B00001895BF92CF92DF92EF92FF920F931F93AF
:100B1000CF93DF93182F092F7B016A018091AA00E0
:100B20008F7C80628093AA00B0DEB82E8823A9F55E
:100B3000812F902F9C01E901C114D10439F0F601F5
:100B400080819181E81AF90AC80FD91F00E010E0EE
:100B500021C08091A60085FD15C08091A6008B77ED
:100B60008093A600C114D10449F0F60180819181DF
:100B7000800F911F9183808384E010C086DE8823DC
:100B800049F00CC089918093AF000894E108F10806
:100B90000F5F1F4FE114F104E1F68B2DDF91CF9130
:100BA0001F910F91FF90EF90DF90CF90BF9008952D
:100BB000AF92BF92CF92DF92EF92FF920F931F936B
:100BC000CF93DF937C01EB016A0124C0E881F981B6
:100BD000BE2EAF2E808190E098018017910708F417
:100BE0009C01E20FF31FF983E883F7018081918173
:100BF000821B930B9183808388819981F6010995EB
:100C0000823041F0813069F4B882A982F701118302
:100C1000008307C0F7010081118101151105B1F6AC
:100C200082E0DF91CF911F910F91FF90EF90DF90C5
:100C3000CF90BF90AF900895CF92DF92EF92FF9246
:100C40000F931F93DF93CF93CDB7DEB729970FB6DE
:100C5000F894DEBF0FBECDBF6B018A01790190E829
:100C60009093990196E090939A0190E00197926099
:100C700090939C0180939B0110929E0110929D0184
:100C800089E090E09093A00180939F011092A700CB
:100C9000CE01019655D0282F8823C1F48B819C81E9
:100CA000F60191838083E816F90610F425E00EC062
:100CB0009093A00180939F01C80142D0282F8823E0
:100CC00029F4F8018181823009F026E0822F2996EB
:100CD0000FB6F894DEBF0FBECDBFCF91DF911F914D
:100CE0000F91FF90EF90DF90CF90089508951F939C
:100CF000CF93DF93182FC8EED3E009C081E0BDDBAE
:100D00008823D1F4209711F484E016C02197112391
:100D100029F48091A60083FFF1CF0DC0113029F492
:100D20008091A60080FFEACF06C0123039F780918B
:100D3000A60082FFE3CF80E0DF91CF911F9108955D
:100D4000FF920F931F93CF93DF93182F092FF090EB
:100D50009E00C0919F01D091A00180919E00816072
:100D600080939E0081E089DB982F882309F0EEC0F4
:100D70008091AA008F7C8093AA001092F500809148
:100D8000A6008F7E8093A6008091A9008F7B809320
:100D9000A900809199018093AF0080919A0180937E
:100DA000AF0080919B0190919C018093AF00909344
:100DB000AF0080919D0190919E018093AF00909330
:100DC000AF0080919F019091A0018093AF0090931C
:100DD000AF008091A60087778093A60080E087DF30
:100DE000982F882309F0B2C08091A9008064809375
:100DF000A90081E042DB982F882309F0A7C0212FAA
:100E0000302FC9018C018091990187FF52C08091D8
:100E1000AA008F7C80618093AA000115110569F5F5
:100E20002EC08091A9008F7B8093A90081E05FDFB5
:100E3000982F882309F08AC08091F6009091F700DE
:100E4000892B49F4C0E0D0E006C08091AF00F801E2
:100E500081938F0121978091F6009091F700892B63
:100E600011F0209791F78091A90080648093A900E8
:100E70008091A6008E778093A600209791F68091AE
:100E8000AA008F7C80628093AA008091A9008F7B4A
:100E90008093A90082E02BDF982F882309F056C0A9
:100EA0008091A6008B778093A60082E020DF982FA8
:100EB0004DC001151105A9F18091AA008F7C8062B7
:100EC0008093AA008091A9008F7B8093A9001DC008
:100ED00082E00DDF982F8823C9F580915001282FDB
:100EE00030E007C0F80181918F018093AF00219716
:100EF00039F08091F6009091F7008217930790F3F4
:100F00008091A6008B778093A600209709F782E056
:100F1000EEDE982F8823D1F48091A900806480931D
:100F2000A9008091AA008F7C80618093AA008091A3
:100F3000A9008F7B8093A90081E0D9DE982F8823B8
:100F400029F48091A6008E778093A6008091A90055
:100F500080648093A900F0FC05C080919E008E7F84
:100F600080939E0081E08093A8001092A800892FB2
:100F7000DF91CF911F910F91FF9008951F93182F2C
:100F80001092990189E080939A0110939B0110922D
:100F90009C0110929E0110929D011092A00110924E
:100FA0009F011092A70080E090E0CADE882341F400
:100FB00010939701112311F49AE001C09BE09EBBAE
:100FC0001F910895FF920F931F9307EA10E0F80115
:100FD000F080F7E0FF22F8011082EBDAF801F082EE
:0C0FE0001F910F91FF900895F894FFCF2F
:100FEC0000000000000008085553424300000400B4
:100FFC005553424300400200000000000001080865
:10100C0000000001000008080000000001000808B2
:10101C0000010000000008080000010000000808A2
:10102C00000501000000000080060001000008001F
:02103C00400072
:00000001FF
