:1000000019C1000035C1000033C1000031C100003A
:100010002FC100002DC100002BC1000029C100002C
:1000200027C1000025C100003AC6000021C1000020
:100030001FC100001DC100001BC1000019C100004C
:1000400017C1000015C1000013C1000011C100005C
:100050000FC100000DC100000BC1000009C100006C
:1000600007C1000005C1000003C1000001C100007C
:10007000FFC00000FDC00000FBC00000F9C0000090
:10008000F7C00000F5C00000F3C00000F1C00000A0
:10009000EFC00000EDC000001B5B33316D4465769E
:1000A00020456E756D204572726F720D0A202D2DE0
:1000B000204572726F7220436F64652025640D0ABB
:1000C000202D2D20537562204572726F7220436F70
:1000D00064652025640D0A202D2D20496E2053745F
:1000E0006174652025640D0A1B5B33376D001B5B53
:1000F00033316D486F7374204D6F646520457272A3
:100100006F720D0A202D2D204572726F7220436F81
:1001100064652025640D0A1B5B33376D004D6F75D8
:10012000736520456E756D6572617465642E0D0A88
:10013000004572726F722053657474696E67205245
:1001400065706F72742050726F746F636F6C204DA6
:100150006F6465206F72204E6F7420612056616C51
:100160006964204D6F7573652E0D0A004572726FBC
:10017000722053657474696E67204465766963659F
:1001800020436F6E66696775726174696F6E2E0DBC
:100190000A0041747461636865642044657669632C
:1001A00065204E6F7420612056616C6964204D6F2C
:1001B0007573652E0D0A004572726F722052657458
:1001C00072696576696E6720436F6E6669677572DE
:1001D0006174696F6E2044657363726970746F72C5
:1001E0002E0D0A000D0A44657669636520556E611F
:1001F000747461636865642E0D0A004465766963F2
:10020000652041747461636865642E0D0A001B5B90
:1002100033366D4D6F75736520486F737420446578
:100220006D6F2072756E6E696E672E0D0A1B5B33E3
:10023000376D000011241FBECFEFD0E2DEBFCDBF6F
:1002400011E0A0E0B1E0EAE0F6E200E00BBF02C09E
:1002500007900D92A432B107D9F715E0A4E2B1E0FE
:1002600001C01D92AF31B107E1F703D20C94031323
:10027000C7CEDC011696ED91FC9117970BC08181DA
:100280009281019721F483819481029739F005804E
:10029000F681E02D309799F780E0089519968D91B9
:1002A0009C911A978930910521F020E030E0019768
:1002B00011F421E030E0822F089590910A052DB7C6
:1002C0003EB7285030400FB6F8943EBF0FBE2DBF4A
:1002D000EDB7FEB7319628E930E0ADB7BEB712965C
:1002E0003C932E93119782831382648315829683A5
:1002F00017820E9413108BB18F7080698BB92DB754
:100300003EB7285F3F4F0FB6F8943EBF0FBE2DBFDC
:1003100008951F93182F9ED400D000D0EDB7FEB7DC
:1003200031968EEE90E0ADB7BEB712969C938E9349
:100330001197128313820E9413108BB18F70806902
:100340008BB90F900F900F900F90FFCF84EE91E03C
:100350000E9435108BB18F7080618BB908958BEF3F
:1003600091E00E9435108BB18F70806A8BB908952F
:100370000F931F93DF93CF93CDB7DEB7C250D24018
:100380000FB6F894DEBF0FBECDBF8BB18F70806A01
:100390008BB98E010D5F1F4F81E0BE016F5F7F4FF4
:1003A000A80120E032E0A9D5882319F087EB91E07D
:1003B00012C069817A8180E091E0A8010E94F80E64
:1003C000882319F082E991E006C081E038D78823BC
:1003D00041F08CE691E00E9435108BB18F708069FE
:1003E00018C080E091E00E940E0E882359F081E34E
:1003F00091E00E9435108BB18F7080698BB980E0DD
:100400001ED708C08DE191E00E9435108BB18F702E
:1004100080668BB9CE5FDD4F0FB6F894DEBF0FBE9E
:10042000CDBFCF91DF911F910F9108955F926F9291
:100430007F928F929F92AF92BF92CF92DF92EF9274
:10044000FF920F931F93DF93CF93CDB7DEB7ADB677
:10045000BEB680910A058B3009F0ADC080E091E016
:100460000E94F20D882309F4A6C07DB66EB6809175
:1004700012012DB73EB7281B31090FB6F8943EBFC5
:100480000FBE2DBF0DB71EB70F5F1F4F80E091E06D
:10049000B8010E94AB0E4801FF24EE244AE2542E1C
:1004A00030E1C32ED12C76C0E59C800111240B5D78
:1004B0001E4FC401B801FAD6882309F46AC0F801B6
:1004C000818592858930910581F48281882309F0A4
:1004D00060C082A193A1A4A1B5A10097A105B10517
:1004E00009F457C020EFF22E54C0019709F051C013
:1004F000F8016385748568337105F9F48281882376
:10050000E1F480859601281B3109C90122A133A19C
:1005100044A155A104C0220F331F441F551F8A95C3
:10052000D2F721153105A9F1121613061CF090E738
:10053000F92E2FC080EBF82E2CC0CB01C09702976C
:1005400040F5F8018281882321F580859601281BDA
:100550003109C90122A133A144A155A104C0220F30
:10056000331F441F551F8A95D2F72115310589F095
:100570006033710539F41216130614F080E208C0D6
:1005800080E106C01216130614F080E401C080E872
:10059000F82AE39480912401E81608F485CF8BB102
:1005A0008F70F82AFBB8272D362DC9010FB6F894A5
:1005B0009EBF0FBE8DBF0FB6F894BEBE0FBEADBEC0
:1005C000CF91DF911F910F91FF90EF90DF90CF902F
:1005D000BF90AF909F908F907F906F905F900895A5
:1005E00084B7877F84BF28E10FB6F894209360001A
:1005F000109260000FBE90E080E80FB6F8948093F0
:100600006100909361000FBE83E390E09093CD0072
:100610008093CC0086E08093CA001092C80020939B
:10062000C900539A5A9A8AB1806F8AB98BB18F7078
:100630008BB907D3EBE0F5E0F0931A05E0931905C9
:10064000F0931C05E0931B058EE0DF011D928A9557
:10065000E9F783E080930E0585EF9FE09093140502
:10066000809313058FEF9FE09093160580931505F7
:100670000895B6DF8EE092E00E94351078948BB139
:100680008F7080618BB9D2DEFFD5FDCF982F20917E
:100690009E003091A0008091A0008F7D8093A000EB
:1006A00080919F008F7D80939F0080919E0081604C
:1006B00080939E0028C080919F0085FF06C0809196
:1006C0009F008F7D80939F00915080910A0581301B
:1006D00011F491E01AC08091A60084FF09C0109225
:1006E000F5008091A6008F7E8093A60092E00DC059
:1006F0008091A60081FF07C08091A6008D7F809326
:10070000A60093E002C09923B1F620FD05C08091B8
:100710009E008E7F80939E0035FF05C08091A000D3
:1007200080628093A000892F089560919E0080913F
:10073000A0008D7F8093A00080919E0082608093B6
:100740009E0080919E0081FDFCCF80919E00816083
:1007500080939E00109200053091A0008091A0002F
:100760008F7D8093A00080919F008F7D80939F005C
:100770002AE040ED57E080919F0085FF0BC08091FB
:100780009F008F7D80939F0080919F008D7F80933D
:100790009F0005C0CA010197F1F7215061F735FFAD
:1007A00005C08091A00080628093A00060FD05C01C
:1007B00080919E008E7F80939E008091A000826039
:1007C0008093A0000895EF920F931F93DF93CF9330
:1007D000CDB7DEB728970FB6F894DEBF0FBECDBFFA
:1007E00080910A05853009F494C0863068F482301F
:1007F000B9F1833018F48823A1F004C18330D1F11A
:10080000843009F0FFC05DC0873009F49BC0873099
:1008100008F48AC0883009F4B3C0893009F0F2C006
:10082000D7C00091FE041091FF040115110509F4D1
:10083000E9C081E02BDF682F882331F08091FD042F
:1008400080930A0591E0DAC0C80101979093FF04F4
:100850008093FE04892B09F0D5C08091FD0407C068
:1008600088EE93E09093FF048093FE0483E08093EE
:100870000A05C8C08091FE049091FF0401979093EF
:10088000FF048093FE04019629F080ED97E0019724
:10089000F1F7B8C077988091D80080618093D80034
:1008A0008091DD008B7F8093DD008091D700806197
:1008B0008093D7008091DD0082608093DD0084E02A
:1008C000D6CF80919F0080FF9DC080919F008E7F3A
:1008D00080939F0080919F008D7F80939F008091E7
:1008E000DF008D7F8093DF008091DE008260809347
:1008F000DE0080919E00816080939E00EDD010927A
:100900000A0584E690E09093FF048093FE0485E05E
:100910005CC00BDF10920A0588EC90E09093FF0416
:100920008093FE0486E051C080E060E040E020E07B
:1009300000E410E0EE2472D08091AC0087FF5CC030
:1009400087E095CFA2E0B5E0EBE1F1E088E001902F
:100950000D928150E1F7CE01019653D3682F882381
:1009600009F048C0888580932301DFDE10920A05D4
:1009700088EC90E09093FF048093FE0488E025C00B
:100980000091230180E060E040E020E010E0EE24F0
:1009900045D08091AC0087FF2FC0A2E0B5E0E3E135
:1009A000F1E088E001900D928150E1F780E090E065
:1009B00028D3682F8823F1F410920A0584E690E08A
:1009C0009093FF048093FE0489E08093FD041AC095
:1009D00081E08093A1008AE080930A05C9DC12C0FF
:1009E000892F6BDC8091DD0081608093DD00AEDCBF
:1009F000D8D008C093E002C094E060E080910A057E
:100A0000813071F728960FB6F894DEBF0FBECDBFC8
:100A1000CF91DF911F910F91EF900895EF920F9377
:100A20001F93E82F7E2D6295660F660F607C642B06
:100A30002F70622B382F726045C03093A7003E178D
:100A4000A1F488E090E020E003C02F5F880F991F99
:100A50008017910710F42530C1F7922F9295907F5F
:100A6000972B562F40E020E008C05091AA009091AB
:100A7000AB004091AD002091AE0091FF22C080916B
:100A8000A9008E7F8093A9008091AB008D7F809319
:100A9000AB008091A90081608093A9005093AA00C7
:100AA0009093AB004093AD002093AE008091A900DD
:100AB00080628093A9008091AC0087FD02C080E035
:100AC00007C03F5F373008F4B8CFE093A70081E05C
:100AD0001F910F91EF9008951092F80090E090937D
:100AE000A7001092AE001092A6001092AB00809169
:100AF000A9008E7F8093A9009F5F973081F70895AA
:100B0000482F3091A70020E02093A7008091AC00EF
:100B100087FF10C09091AA008091AA008073803155
:100B200011F080E001C080E89F70892B841711F4D8
:100B300081E008952F5F273039F737703093A70091
:100B400080E008954091A2005091A30024E6809196
:100B5000AA008073803129F48091A60080FF05C02F
:100B60001EC08091A60082FD1AC08091A60081FF60
:100B700002C081E0089580910A05813011F482E07D
:100B800008958091A2009091A30084179507F9F22F
:100B9000222311F483E008952150AC01D8CF80E0E6
:100BA000089570D077D08091D8008F778093D80047
:100BB0008091D80080688093D8008091D8008F7D84
:100BC0008093D8008091D7008F778093D7008CE0F6
:100BD00089BD8EE089BD09B400FEFDCF81E0809320
:100BE0000A051092000580E4809323018091D800CB
:100BF00080648093D8008091DD0081608093DD0067
:100C00008091DD0084608093DD008091D7008F7E2D
:100C10008093D7006F9A779A8091DE0081608093ED
:100C2000DE008091DE0084608093DE008091E00031
:100C30008E7F8093E0008091D80080618093D800FF
:100C40000895E7EDF0E080818160808381E080930A
:100C50000105A7CF17D01ED0E0EEF0E080818160C3
:100C60008083A8EDB0E08C918F778C9319BCE7ED71
:100C7000F0E080818E7F80838C918F7E8C931092A8
:100C800001050895E8EDF0E080818C7F808310926B
:100C9000A00008951092DA0010929F0008951F920C
:100CA0000F920FB60F920BB60F9211242F933F9312
:100CB0004F935F936F937F938F939F93AF93BF9364
:100CC000EF93FF9380919F0085FF0AC08091A00061
:100CD00085FF06C080919F008F7D80939F0067D124
:100CE00080919F0081FF15C08091A00081FF11C0FD
:100CF00080919F008D7F80939F0080919F008E7FC9
:100D000080939F008091A0008D7F8093A0001EDBC8
:100D100048DF8091DF0081FF15C08091DE0081FFF8
:100D200011C08091DF008D7F8093DF0077988091E4
:100D3000DD0081608093DD0080E0EBDA07DB81E09D
:100D400080930A058091DF0080FF17C08091DE004C
:100D500080FF13C08091DF008E7F8093DF00809141
:100D6000DE008E7F8093DE00FADA8091A000826040
:100D70008093A00082E080930A058091DF0082FFCB
:100D80000EC08091DE0082FF0AC08091DF008B7F61
:100D90008093DF0082E060E090DAD8DA02DFFF9132
:100DA000EF91BF91AF919F918F917F916F915F91E3
:100DB0004F913F912F910F900BBE0F900FBE0F9050
:100DC0001F901895BF92CF92DF92EF92FF920F93F0
:100DD0001F93CF93DF93182F092F7B016A01809116
:100DE000AA008F7C80618093AA00ACDEB82E882395
:100DF000A9F5812F902F9C01E901C114D10439F08C
:100E0000F60180819181E81AF90AC80FD91F00E024
:100E100010E021C08091A60085FD15C08091A6003C
:100E20008E778093A600C114D10449F0F601808129
:100E30009181800F911F9183808384E010C082DEB6
:100E4000882349F00CC08091AF0089930894E10891
:100E5000F1080F5F1F4FE114F104E1F68B2DDF91D4
:100E6000CF911F910F91FF90EF90DF90CF90BF90A7
:100E70000895AF92BF92CF92DF92EF92FF920F93BD
:100E80001F93CF93DF937C01EB016A0124C0E881BB
:100E9000F981BE2EAF2E808190E0980180179107D6
:100EA00008F49C01E20FF31FF983E883F7018081C6
:100EB0009181821B930B9183808388819981F601B4
:100EC0000995823041F0813069F4B882A982F70136
:100ED0001183008307C0F7010081118101151105FD
:100EE000B1F682E0DF91CF911F910F91FF90EF90CB
:100EF000DF90CF90BF90AF900895CF92DF92EF92A6
:100F0000FF920F931F93DF93CF93CDB7DEB729974F
:100F10000FB6F894DEBF0FBECDBF6B018A01790119
:100F200090E89093020596E09093030590E0019776
:100F30009260909305058093040510920705109226
:100F4000060589E090E090930905809308051092CA
:100F5000A700CE01019655D0282F8823C1F48B819C
:100F60009C81F60191838083E816F90610F425E050
:100F70000EC09093090580930805C80142D0282F20
:100F8000882329F4F8018181823009F026E0822F3C
:100F900029960FB6F894DEBF0FBECDBFCF91DF917B
:100FA0001F910F91FF90EF90DF90CF9008950895DB
:100FB0001F93CF93DF93182FC8EED3E009C081E0D1
:100FC00065DB8823D1F4209711F484E016C02197C3
:100FD000112329F48091A60083FFF1CF0DC01130B9
:100FE00029F48091A60080FFEACF06C0123039F7BD
:100FF0008091A60082FFE3CF80E0DF91CF911F9127
:101000000895FF920F931F93CF93DF93182F092F0B
:10101000F0909E00C0910805D091090580919E0036
:10102000816080939E0081E031DB982F882309F056
:10103000EEC08091AA008F7C8093AA001092F500E8
:101040008091A6008F7E8093A6008091A9008F7B5F
:101050008093A900809102058093AF0080910305E1
:101060008093AF0080910405909105058093AF00B7
:101070009093AF0080910605909107058093AF0093
:101080009093AF0080910805909109058093AF007F
:101090009093AF008091A60087778093A60080E0B0
:1010A00087DF982F882309F0B2C08091A90080645F
:1010B0008093A90081E0EADA982F882309F0A7C07D
:1010C000212F302FC9018C018091020587FF52C06A
:1010D0008091AA008F7C80618093AA000115110580
:1010E00069F52EC08091A9008F7B8093A90081E0D3
:1010F0005FDF982F882309F08AC08091F6009091D5
:10110000F700892B49F4C0E0D0E006C08091AF0021
:10111000F80181938F0121978091F6009091F7005B
:10112000892B11F0209791F78091A900806480931A
:10113000A9008091A6008E778093A600209791F653
:101140008091AA008F7C80628093AA008091A90080
:101150008F7B8093A90082E02BDF982F882309F0F2
:1011600056C08091A6008B778093A60082E020DF96
:10117000982F4DC001151105A9F18091AA008F7C0F
:1011800080628093AA008091A9008F7B8093A90040
:101190001DC082E00DDF982F8823C9F580912301BF
:1011A000282F30E007C0F80181918F018093AF00B4
:1011B000219739F08091F6009091F70082179307FC
:1011C00090F38091A6008B778093A600209709F773
:1011D00082E0EEDE982F8823D1F48091A90080640C
:1011E0008093A9008091AA008F7C80618093AA00DF
:1011F0008091A9008F7B8093A90081E0D9DE982F90
:10120000882329F48091A6008E778093A600809190
:10121000A90080648093A900F0FC05C080919E0025
:101220008E7F80939E0081E08093A8001092A8009A
:10123000892FDF91CF911F910F91FF9008951F93F8
:10124000182F1092020589E080930305109304057E
:1012500010920505109207051092060510920905D7
:10126000109208051092A70080E090E0CADE882363
:1012700049F410930005112311F49AE001C09BE09A
:1012800090930A051F910895FF920F931F9307EA09
:1012900010E0F801F080F7E0FF22F801108293DA05
:1012A000F801F0821F910F91FF900895CF92DF9285
:1012B000EF92FF920F931F93CF93DF936C01EB019B
:1012C0002885E880F9809D81992349F0F601808185
:1012D000981711F080E043C00894C11CD11C022F64
:1012E00010E08AA19BA1ACA1BDA18EA39FA3A8A73A
:1012F000B9A71AA21BA21CA21DA241E050E060E007
:1013000070E029C0F70193E0F695E7959A95E1F72B
:10131000EC0DFD1D808190E097012770307002C0B8
:10132000959587952A95E2F780FF0CC08AA19BA12D
:10133000ACA1BDA1842B952BA62BB72B8AA39BA375
:10134000ACA3BDA30894E11CF11C440F551F661FFC
:10135000771F0150104001151105A1F681E0DF91C2
:10136000CF911F910F91FF90EF90DF90CF90089554
:10137000E42FF0E0EE0FFF1FEF56FC4FE80FF91FD0
:10138000DC01A057BC4F90E0208131818C91861701
:1013900089F440E050E0C90187709070892B11F00A
:1013A00041E050E063E0369527956A95E1F7240F18
:1013B000351F07C09F5F379617969A3029F720E0B0
:1013C00030E0C90108952F923F924F925F926F9241
:1013D0007F928F929F92AF92BF92CF92DF92EF92C5
:1013E000FF920F931F93DF93CF93CDB7DEB7C5590D
:1013F000D0400FB6F894DEBF0FBECDBFCF57DF4F42
:1014000099838883C158D040CD57DF4F7983688353
:10141000C358D0401A0190E9492E93E0592E440E4A
:10142000551E89ED93E0DA01FC011D923197E9F731
:10143000FE01FB968CE1DF011D928A95E9F787E0BA
:10144000D2011D928A95E9F7DA01A157BC4F81E0DC
:101450008C939A01275B3C4FE7963FAF2EAFE797FF
:10146000405B5C4FE5965FAF4EAFE597C101885793
:101470009C4FEF969FAF8EAFEF976F01AA24BB24CE
:10148000ED961FAEED97EB961CAE1DAE1EAE1FAED9
:10149000EB97662477244301F101EA52FC4FC657CB
:1014A000DF4FF983E883CA58D040CC56DF4FD9824A
:1014B000C882C459D0409601245E3F4FC457DF4FC5
:1014C00039832883CC58D040A10148525C4FC25781
:1014D000DF4F59834883CE58D040C057DF4FB98380
:1014E000A883C059D040C201CE56DF4F4882C259AE
:1014F000D040CD56DF4F9883C359D04032C3CF5729
:10150000DF4FA881B981C158D0404D91CF57DF4FEF
:10151000B983A883C158D040CD57DF4FE881F98106
:10152000C358D0403197CD57DF4FF983E883C35874
:10153000D040242F30E0C158DF4F39832883CF5764
:10154000D040237030702230310511F12330310545
:1015500039F021303105A9F1EE24FF2487014FC075
:10156000CF57DF4FA881B981C158D040ED90FD9091
:101570000D911D91CF57DF4FB983A883C158D0403B
:10158000CD57DF4FE881F981C358D040349731C03F
:10159000CF57DF4FA881B981C158D0408D919D911F
:1015A000CF57DF4FB983A883C158D0407C0100E0FA
:1015B00010E0CD57DF4FE881F981C358D040329712
:1015C00018C0CF57DF4FA881B981C158D0408D9145
:1015D000CF57DF4FB983A883C158D040E82EFF24EE
:1015E00000E010E0CD57DF4FE881F981C358D040CB
:1015F0003197CD57DF4FF983E883C358D040C158A6
:10160000DF4F88819981CF57D0408C7F907084368E
:10161000910509F4DBC08536910574F58432910596
:1016200009F4BBC0853291059CF48830910509F41A
:1016300037C18930910524F4049709F07AC298C023
:101640008431910509F4A3C0489709F072C247C0DC
:101650008433910509F4A9C08533910524F4889752
:1016600009F067C238C18434910509F4A4C08435F7
:10167000910509F05EC2A7C08439910509F4B1C093
:1016800085399105A4F48038910569F18138910577
:101690002CF48437910509F04CC2A0C08438910520
:1016A00009F4A3C08039910509F043C21CC0803BF6
:1016B0009105C9F0813B91054CF4803A910509F4FC
:1016C00012C1843A910509F034C22AC0843B9105C5
:1016D00009F43EC0803C910509F02BC263C1F501BD
:1016E0003701480127C2CB57DF4FC882C558D040C9
:1016F000CA57DF4FD882C658D040EC961FAEEC9741
:101700004C7FC957DF4F4883C758D040970121709D
:101710003070C857DF4F39832883C858D04000C283
:10172000C457DF4F48815981CC58D040C416D506E4
:1017300011F481E026C2D6015C96F6018AE201909E
:101740000D928150E1F78CE190E0C80ED91EF1C1F5
:10175000CC56DF4FA881B981C459D040CA16DB06E8
:1017600011F482E00EC2E4EEFFEFCE0EDF1EE1C107
:101770002330310531F4C801AA27BB27F601928333
:101780008183D6011296FC92EE921197D2C1F60196
:10179000E286F38604871587CCC1D6011E96ED92AA
:1017A000FD920D931C935197C4C1F601E28AF38A0E
:1017B000048B158BBEC1D6015696ED92FD920D930A
:1017C0001C935997B6C1F601E186B3C1D6011596AF
:1017D000ED92FD920D931C931897ABC1F601E08238
:1017E000A8C1D6015A96EC92A4C13E2DF601E38E13
:1017F000C257DF4FA881B981CE58D0408C91882341
:1018000009F440C0C057DF4FE881F981C059D0408A
:101810002081CE56DF4F8881C259D040CD56DF4F50
:101820009881C359D040DC01E0E010C08C9117963C
:10183000831759F487E0E89F2001112420E933E061
:10184000420E531E420C531C1DC0EF5FE21770F393
:101850002A3011F487E095C187E0289F20011124E8
:1018600040E953E0440E551E420C531C2F5FC057F5
:10187000DF4FA881B981C059D0402C93F201119259
:101880008A95E9F7E1E0C257DF4FA881B981CE58C8
:10189000D040EC93D6015B968C91F201808349C1D4
:1018A000ED96FFADED97F83011F486E06AC1ED9644
:1018B0002FADED97E22FF0E0EE0FFF1F41E050E07B
:1018C0004C0F5D1FE40FF51FF182E0822F5FED9654
:1018D0002FAFED972EC1F501EB96ECAEFDAE0EAF3E
:1018E0001FAFEB9727C1A114B10429F4E796EEAD21
:1018F000FFADE79715C0E596EEADFFADE5970AC0E1
:10190000EF968EAD9FADEF97E817F90711F485E0DC
:1019100038C1379685819681892B91F7B682A58249
:10192000E082D60111968D919C91129792838183CA
:10193000ED96BFADED97BB2309F189819A81948320
:101940008383DE011196ED964FADED97242F30E0A5
:10195000220F331F2A0F3B1F06C012968D919C91B8
:1019600013978D939D93A217B307B9F7ED969FAD8B
:10197000ED979150ED969FAFED97DCC0EB962CADB7
:101980003DAD4EAD5FADEB972615370548055905C2
:1019900008F4D0C0748263820894611C711C811C9D
:1019A000911CC8C0A114B10411F484E0EAC0D501AF
:1019B0001596ED91FC911697BDC0DE015996CB5757
:1019C000DF4F8881C558D040CA57DF4F9881C6582D
:1019D000D0409C01F9018AE101900D928150E1F71C
:1019E000FD8AEC8AB88EAF8AF601838D8E8BED96D8
:1019F000FFADED97FF23F9F049815A81FE01319641
:101A0000ED968FADED97282F30E0220F331F2E0F6C
:101A10003F1F04C08281938181939193E217F30762
:101A2000C9F75D8F4C8FED96BFADED97B150ED9638
:101A3000BFAFED9712C0EB962CAD3DAD4EAD5FAD97
:101A4000EB97261537054805590538F07D8E6C8EC5
:101A50000894611C711C811C911CC957DF4F38818F
:101A6000C758D040303811F41B8A0CC0C957DF4F1B
:101A70004881C758D040403919F451E05B8B02C00F
:101A800082E08B8BEB89F0E0EE0FFF1FE40DF51D7C
:101A9000818192819A8B898BD6012C91818192814F
:101AA000820F911D9283818329893A89C657DF4F1E
:101AB000E881F981CA58D0408081918182179307CB
:101AC00010F431832083C857DF4F28813981C858EB
:101AD000D040232BF1F4CE0141960E943901882396
:101AE000C1F0D1018C91843111F483E04AC0BAE293
:101AF0008B9FF00111243196E20DF31DDE0151960A
:101B00008AE20D9001928150E1F7F10180818F5FAF
:101B10008083EC96FFADEC97FF5FEC96FFAFEC9700
:101B2000D6015A968C91EC96BFADEC97B81708F495
:101B300044CFF501C158DF4F28813981CF57D040BC
:101B40002C703070232B61F4ED961FAEED97EB9661
:101B50001CAE1DAE1EAE1FAEEB976624772443016C
:101B60005F01CD57DF4F48815981C358D040452B85
:101B700009F0C5CCD1018C91882311F080E001C01F
:101B800088E0CB56DF4F0FB6F894DEBF0FBECDBF57
:101B9000CF91DF911F910F91FF90EF90DF90CF9049
:101BA000BF90AF909F908F907F906F905F904F907D
:101BB0003F902F900895FC018181843029F4858124
:101BC000833011F480E0089582E00895FC01818162
:101BD000813211F480E00895843011F082E008959C
:101BE00081E00895FC0180910A058B30A1F4878182
:101BF000882389F080818093A7008091A9008F7B42
:101C00008093A9009091A60091708091A9008064B2
:101C10008093A90001C090E0892F0895CF92DF92B0
:101C2000EF92FF920F931F93DF93CF93CDB7DEB761
:101C30008C01CDB6DEB6DC0150964D915C9151978A
:101C4000EDB7FEB7E41BF50B0FB6F894FEBF0FBE61
:101C5000EDBF2DB73EB72F5F3F4F18966C9181E8CF
:101C60008093020586E08093030580E092E29093E2
:101C700005058093040560930605109207055093AF
:101C80000905409308051092A700F22EE32EC90122
:101C9000B8D9282F882309F04FC0D8011F968C91FE
:101CA0001F978823F1F018962C9181E2809302050A
:101CB0008BE08093030581E090E09093050580938D
:101CC000040520930605109207051092090510924D
:101CD000080580E090E095D9282F882369F5F80160
:101CE0001786D80115964D915C91169741155105AF
:101CF00011F420E821C0F801608971898F2D9E2D93
:101D000062DB282F882311F0206816C0D8011596B1
:101D1000ED91FC911697EA52FC4FE08130E08E2F56
:101D200090E087709070892B09F031E0E695E69598
:101D3000E6953E0FF801328B822F0FB6F894DEBE87
:101D40000FBECDBECF91DF911F910F91FF90EF900D
:101D5000DF90CF900895CF93DF93DC0180910A0547
:101D60008B3009F040C017968C9117978823D9F1D2
:101D70008C918093A7008091A9008F7B8093A9000C
:101D8000EB011F968C911F978823B1F41596ED9166
:101D9000FC911697E852FC4F8081882311F460E093
:101DA00003C06091AF00699315968D919C91169731
:101DB00040E0DEDABC0104C06091F6007091F700EB
:101DC000CE0140E050E00E94E206982F882361F4A3
:101DD0008091A6008E778093A6008091A9008064F0
:101DE0008093A90001C092E0892FDF91CF910895DF
:101DF0002F923F924F925F926F927F928F929F921B
:101E0000AF92BF92CF92DF92EF92FF920F931F9308
:101E1000DF93CF9300D000D0CDB7DEB76C017A83CB
:101E200069835C834B830796FC018CE0DF011D9284
:101E30008A95E9F7EB81FC818181823011F081E0A4
:101E4000ADC066247724AA24BB244424552422242C
:101E5000332423E0E22EF12CEC0EFD1E8E010F5FE9
:101E60001F4F4114510439F0C801B70145EE5FE03E
:101E700000D8882331F16114710489F5A114B104EB
:101E800071F5C801B7014BED5DE00E943907882369
:101E900009F083C04B805C80F6019481992329F07E
:101EA000D20117968C91891761F7C801B70146EEE8
:101EB0005DE00E943907882309F06FC02B803C80C9
:101EC000D0CFEB81FC81828187FD02C05F0101C020
:101ED0003F016114710429F2A114B10411F2992493
:101EE000939488248394F6018081981679F4D30121
:101EF00014960D911C91159712962C911297818131
:101F00001696FC901287018740E116C0F601828187
:101F1000981621F5A114B10409F1D50114960D917B
:101F20001C91159712962C91129783811696FC900E
:101F300014870387868640E2882311F490E001C06D
:101F400094E0892D63E0E92E0E940E05882311F4A8
:101F500083E024C0FF2011F0F092AD009394B7E02D
:101F60009B1609F6F2018281D60118968C93189778
:101F7000F1018781908551969C938E93509790E0C4
:101F8000D20116968C91811191E0F601958788E037
:101F9000828B81E0878380E001C082E00F900F9008
:101FA0000F900F90CF91DF911F910F91FF90EF90C5
:101FB000DF90CF90BF90AF909F908F907F906F9069
:101FC0005F904F903F902F900895FC018181853064
:101FD00031F482810E948005882329F40895843099
:101FE00011F481E0089582E00895982F8091C8004F
:101FF00085FFFCCF9093CE0080E090E00895809123
:10200000C80087FD03C02EEF3FEF0BC08091C800D2
:1020100087FD03C02FEF3FEF04C08091CE00282F33
:1020200030E0C9010895DF93CF93CDB7DEB7FE014D
:10203000359661917191A0911B05B0911C05139685
:102040008C911397886013968C9380911B059091C7
:102050001C05AF013FD0E0911B05F0911C052381C9
:10206000277F2383CF91DF9108950F931F93CF9301
:10207000DF93EC01E0911B05F0911C05838181FF4A
:1020800021C000E010E00EC0E0911B05F0911C059E
:1020900020853185BF01F9010995892B11F00FEFDA
:1020A0001FEF2196FE018491882371F7E0911B05B3
:1020B000F0911C05208531858AE0BF01F901099561
:1020C000892B11F00FEF1FEFC801DF91CF911F9106
:1020D0000F9108952F923F924F925F926F927F924D
:1020E0008F929F92AF92BF92CF92DF92EF92FF9228
:1020F0000F931F93DF93CF93CDB7DEB72B970FB618
:10210000F894DEBF0FBECDBF3C012B015A01FC018C
:1021100017821682838181FD03C06FEF7FEFB9C103
:102120009AE0892E1E010894211C311CF3012381A1
:10213000F20123FD859123FF81912F01882309F46A
:10214000A5C1853239F423FD859123FF81912F01AB
:10215000853221F490E0B301CCD1E8CF982FFF2451
:10216000EE249924FFE1FF15D0F09B3269F09C32F8
:1021700028F4903259F0933291F40EC09D3249F018
:10218000903369F441E024C052E0F52A84E0F82A53
:1021900028C098E0F92A25C0E0E1FE2A22C0F7FC19
:1021A00029C0892F80538A3070F4F6FE05C0989CB0
:1021B000902C1124980E15C0E89CE02C1124E80EF8
:1021C000F0E2FF2A0EC09E3229F4F6FC5FC140E423
:1021D000F42A07C09C3619F450E8F52A02C0983654
:1021E00049F4F20123FD959123FF91912F01992349
:1021F00009F0B8CF892F8554833018F0805283308E
:1022000038F444E050E0A40EB51E5FE359830FC0DC
:10221000933631F0933779F0933509F052C01FC0EF
:10222000F5018081898342E050E0A40EB51E610172
:1022300001E010E011C0F501C080D180F6FC03C0C0
:102240006FEF7FEF02C0692D70E042E050E0A40E16
:10225000B51EC60143D18C015FE7F52213C0F5011D
:10226000C080D180F6FC03C06FEF7FEF02C0692D04
:1022700070E042E050E0A40EB51EC60124D18C01EE
:1022800050E8F52AF3FE06C018C080E290E0B301E2
:1022900030D1EA948E2D90E008171907B0F30DC0E5
:1022A000F601F7FC8591F7FE81916F0190E0B30193
:1022B00020D1E110EA94015010400115110581F779
:1022C000E2C0943611F0993661F5F7FE08C0F501C9
:1022D000208131814281538184E090E00AC0F50180
:1022E000808191819C01442737FD4095542F82E0E5
:1022F00090E0A80EB91E9FE6F92257FF09C050953D
:102300004095309521953F4F4F4F5F4FE0E8FE2AB3
:10231000CA01B901A1012AE030E017D1D82ED218A4
:102320003FC0953729F41F2D1F7E2AE030E01DC0E5
:102330001F2D197F9F3661F0903720F4983509F0F2
:10234000A5C00FC0903739F0983709F09FC004C07E
:1023500028E030E00AC0106114FD146020E130E094
:1023600004C014FD166020E132E017FF08C0F5013B
:10237000608171818281938144E050E008C0F50161
:1023800080819181BC0180E090E042E050E0A40EA9
:10239000B51EA101DAD0D82ED2188FE7F82EF1227F
:1023A000F6FE0BC05EEFF522D91438F4F4FE07C038
:1023B000F2FC05C08FEEF82202C01D2D01C0192DC0
:1023C000F4FE0DC0FE01ED0DF11D8081803319F486
:1023D00099EEF92208C01F5FF2FE05C003C08F2DE1
:1023E000867809F01F5F0F2DF3FC13C0F0FE0EC0BE
:1023F0001E1510F09D2C0AC09D2C9E0C911A1E2DAE
:1024000005C080E290E0B30174D01F5F1E15C8F3D1
:1024100004C01E1510F4E11A01C0EE2404FF0EC022
:1024200080E390E0B30165D002FF1BC001FD03C053
:1024300088E790E00EC088E590E00BC0802F86789A
:1024400081F001FF02C08BE201C080E2F7FC8DE267
:1024500090E0B3014ED005C080E390E0B30149D0D5
:102460009A94D914C8F3DA94F101ED0DF11D80812D
:1024700090E0B3013ED0DD20B1F705C080E290E0EE
:10248000B30137D0EA94EE20C9F750CEF30166814C
:102490007781CB012B960FB6F894DEBF0FBECDBF70
:1024A000CF91DF911F910F91FF90EF90DF90CF9030
:1024B000BF90AF909F908F907F906F905F904F9064
:1024C0003F902F900895FC010590615070400110DD
:1024D000D8F7809590958E0F9F1F0895FC0161504D
:1024E000704001900110D8F7809590958E0F9F1F36
:1024F00008950F931F93CF93DF938C01EB018B8192
:1025000081FF1BC082FF0DC02E813F818C819D8188
:102510002817390764F4E881F9810193F983E88386
:1025200006C0E885F985802F0995892B31F48E81C5
:102530009F8101969F838E8302C00FEF1FEFC8011A
:10254000DF91CF911F910F910895FA01AA272830AA
:1025500051F1203181F1E8946F936E7F6E5F7F4F70
:102560008F4F9F4FAF4FB1E03ED0B4E03CD0670FEC
:10257000781F891F9A1FA11D680F791F8A1F911D3F
:10258000A11D6A0F711D811D911DA11D20D009F48F
:1025900068943F912AE0269F11243019305D3193D1
:1025A000DEF6CF010895462F4770405D4193B3E0BA
:1025B0000FD0C9F7F6CF462F4F70405D4A3318F061
:1025C000495D31FD4052419302D0A9F7EACFB4E012
:1025D000A6959795879577956795BA95C9F70097CA
:1025E0006105710508959B01AC010A2E069457956B
:1025F000479537952795BA95C9F7620F731F841FC2
:0A260000951FA01D0895F894FFCF68
:10260A000100020000240100000000000000000098
:10261A000000000005010000000000800600010023
:04262A000008004064
:00000001FF
