:1000000034C04FC0B8C317C441C54AC049C048C076
:1000100047C046C045C098C043C042C041C040C070
:100020003FC061C07DC07CC06EC068C06CC06BC08A
:1000300077C06EC068C06AC069C065C0CFC0D9C093
:10004000DAC009C130C146C148C347C346C345C32E
:1000500021C312C262C17AC186C1A6C1BEC1CEC1CE
:10006000F7C1F6C1F5C1CFC1DCC111241FBECFE578
:10007000D2E0DEBFCDBF10E0A0E6B0E0E0E9FCE0FA
:1000800002C005900D92AC37B107D9F710E0ACE78C
:10009000B0E001C01D92A73BB107E1F71CD5F6C542
:1000A000AFCF1F920F920FB60F9211242F938F9301
:1000B0009F93EF93FF938091900090919B0081110B
:1000C00003C0BA9AC29882E02BB72F7B2BBF109245
:1000D000840010928400E92FF0E0ED30F10500F586
:1000E000EF5EFF4F09942CEC22BF2BB720642BBF8F
:1000F00020E42ABF23E025BFDA9812C0209199009E
:10010000223008F403C02DEF22BF0AC02CEFFCCF31
:1001100092E095BF95B79E7F95BF9BEF92BF91E010
:1001200029B7216029BF28B7216028BF90939B0081
:1001300080939000FF91EF919F918F912F910F905D
:100140000FBE0F901F9018951F920F920FB60F922F
:100150001124CF92DF92FF920F931F932F933F931F
:100160004F935F936F937F938F939F93AF93BF93BF
:10017000EF93FF93CF93DF931F92CDB7DEB700913C
:10018000900030919B001091A40060919800F09035
:10019000990020919200C090A900D090AA0076B357
:1001A00072FB772770F98BB394E089278BBB0BB672
:1001B00006FE09C0711103C083E085BF38E089B72E
:1001C0008E7F89BF8AC2832F90E0FC013197EC308B
:1001D000F10508F082C2E25EFF4F0994BA9AC29814
:1001E0008BEE82BF8BB78F7B8BBF1092840032E087
:1001F00090C2BA986AC0772329F08091A500862B17
:100200008093A500660F09F07BC28091A50085351B
:1002100009F490C220F48F3409F092C214C08E3BCE
:1002200061F0803F09F08CC2009166000170202FC0
:10023000F12C61E010E034E065C21092A60061E0AC
:1002400010E036E05FC210928500C12CD12C61E035
:1002500010E03CE057C2BA98F39481E0F81621F020
:10026000A3E0FA124DC206C001E0222309F448C2FD
:1002700000E046C281E0213009F080E078132FC20F
:10028000660F29F41F5F61E0183008F028C2E12FE3
:10029000F0E0EA59FF4F8081862321E0861320E0B9
:1002A000022FF12C2DC2E12FF0E0EA59FF4F80819F
:1002B000862391E0861390E0791311C2660F09F04E
:1002C0001FC21F5F183008F439C21092A50061E008
:1002D00033E018C2772329F08091A600862B809303
:1002E000A600660F09F00CC21F5F113009F0C1C0F3
:1002F0008AE0E5E8F0E0DF011D928A95E9F7E091F8
:10030000A600F0E08091A60080938500EB30F10517
:1003100008F09EC0E65DFF4F0994809163008093D2
:10032000860080919A00809387008091640090916C
:10033000650090938900809388008091800090915F
:100340008100A0918200B091830025C0809160005F
:1003500090916100909387008093860080917C004B
:1003600080938C007CC080919C0090919D00A09116
:100370009E00B0919F008093860090938700A09389
:100380008800B09389008091AB009091AC00A0915F
:10039000AD00B091AE0080938A0090938B00A09343
:1003A0008C00B0938D005BC08091A0009091A10063
:1003B000A091A200B091A300809386009093870043
:1003C000A0938800B093890080919300909194004D
:1003D000A0919500B0919600DECF8091A700809308
:1003E00086008091910080938700809162008093C5
:1003F000880080917D008093890031C080917D00CC
:10040000809386002CC082E390E0F2D36093860054
:1004100070938700809388009093890086E390E032
:100420000DC08AE390E0E4D3609386007093870068
:1004300080938800909389008EE390E0D9D36093F5
:100440008A0070938B0080938C0090938D0007C07E
:100450008FEF809386008091A600809387000091A3
:1004600085000170202FC12CD12C61E010E03BE011
:1004700049C11092A60062C1772339F0E12FF0E064
:10048000EB57FF4F8081862B8083A6014170552753
:10049000872F90E0D694C7944817590711F0BCE80D
:1004A000CB26660F09F02CC11F5F1A3009F0E7C098
:1004B00090918E0080918F00981731F080917C0090
:1004C0008F5F80937C003CC180918500823209F46B
:1004D0008EC088F4843109F457C030F48130E9F0DB
:1004E000803109F02DC13FC0883109F45EC08C31E4
:1004F00009F026C16BC08C3409F4A7C038F48332EC
:1005000009F492C0883409F01BC19FC0803509F4FA
:100510009CC0843509F014C198C080918600813058
:1005200009F00EC110929C0010929D0010929E0046
:1005300010929F001092AB001092AC001092AD0090
:100540001092AE001092A0001092A1001092A20092
:100550001092A300109293001092940010929500B4
:1005600010929600EDC08091860090918700A09136
:100570008800B091890080939C0090939D00A09387
:100580009E00B0939F00DCC0809186009091870010
:10059000A0918800B09189008093AB009093AC004B
:1005A000A093AD00B093AE00CBC080918600909137
:1005B0008700A0918800B09189008093A00090935B
:1005C000A100A093A200B093A300BAC080918600BE
:1005D00090918700A0918800B0918900809393004A
:1005E00090939400A0939500B0939600A9C0809139
:1005F0008600811104C0C1988BB3877C07C08091AD
:100600008600813021F4C19A8BB388638BBB8091C3
:10061000860080936200609186008FE290E02983DB
:100620000FD361E029815BC08091860080937D00BB
:1006300080FF02C0D89A01C0D89880917D0081FFC8
:1006400002C0D99A7DC0D9987BC08091A800811141
:1006500077C08091860090918700A0918800B0912A
:1006600089008093AF009093B000A093B100B09345
:10067000B2008091850086518093A80061C0E12F6F
:10068000F0E0EB57FF4F1082193009F057C0C092CD
:100690008F0054C0BA98A60141705527822F90E070
:1006A000D694C7944817590711F0ECE8CE26660F88
:1006B00049F41F5F1A3008F043C0193011F4C0929A
:1006C0008E0061E0E12FF0E0EB57FF4F8081862341
:1006D00021E0861320E0022F13C0311111C089B729
:1006E0008E7F89BF8BB780648BBF80E48ABF85B75C
:1006F0008C7F85BF80E180938400DA9830E002C06F
:10070000323039F08EEC82BF8BB780648BBF80E4CF
:100710008ABF30939B00009390001093A4006093D5
:100720009800F092990020939200D092AA00C09273
:10073000A90008C061E010E035E0E4CF61E0E0CF5F
:1007400061E0CDCF0F90DF91CF91FF91EF91BF91FD
:10075000AF919F918F917F916F915F914F913F9159
:100760002F911F910F91FF90DF90CF900F900FBEB0
:100770000F901F9018951F920F920FB60F92112491
:100780008F939F93AF93BF93CB9917C08091A7008E
:1007900083FF13C08091AB009091AC00A091AD009D
:1007A000B091AE000196A11DB11D8093AB00909356
:1007B000AC00A093AD00B093AE00CC9917C080916F
:1007C000A70084FF13C08091A0009091A100A09188
:1007D000A200B091A3000196A11DB11D8093A000BD
:1007E0009093A100A093A200B093A300CD9917C04D
:1007F0008091A70085FF13C0809193009091940091
:10080000A0919500B09196000196A11DB11D809315
:10081000930090939400A0939500B093960089B3B1
:100820008093A700BF91AF919F918F910F900FBEC2
:100830000F901F9018951F920F920FB60F921124D0
:100840002F933F934F935F936F937F938F939F93D8
:10085000AF93BF93EF93FF93B19917C0809191002D
:1008600081FF13C080919C0090919D00A0919E00FB
:10087000B0919F000196A11DB11D80939C009093A3
:100880009D00A0939E00B0939F00B09935C08091C9
:10089000910080FF31C040919C0050919D0060917B
:1008A0009E0070919F008CE090E0BED14091AB0023
:1008B0005091AC006091AD007091AE0080E190E08D
:1008C000B3D14091A0005091A1006091A20070911D
:1008D000A30084E190E0A8D140919300509194004E
:1008E000609195007091960088E190E09DD16091B3
:1008F0007D0080E390E086D186B380939100FF91E4
:10090000EF91BF91AF919F918F917F916F915F9187
:100910004F913F912F910F900FBE0F901F90189500
:100920000F931F93CF93DF9380E090E066D1823ED8
:10093000914E09F05DC006E610E0C2E0D0E0CE01C5
:100940004FD1F80181938F012196CA30D105B9F7B3
:100950008AE090E052D1BC016F5F7F4F70936100DD
:10096000609360008AE090E067D18CE090E040D135
:1009700060939C0070939D0080939E0090939F00D5
:1009800080E190E035D16093AB007093AC00809330
:10099000AD009093AE0084E190E02AD16093A00076
:1009A0007093A1008093A2009093A30088E190E04F
:1009B0001FD160939300709394008093950090935F
:1009C00096008DE290E019D19093650080936400C9
:1009D0008CE290E005D1809363008FE290E000D13B
:1009E0008093620080E390E0FBD080937D0049C05B
:1009F00062EE71EE80E090E036D106E610E0C2E0F3
:100A0000D0E0F80161918F01CE011AD12196CA3050
:100A1000D105B9F760916000709161008AE090E0C3
:100A200022D140E050E0BA018CE090E017D140E0E4
:100A300050E0BA0180E190E011D140E050E0BA010D
:100A400084E190E00BD140E050E0BA0188E190E011
:100A500005D1609163008CE290E0F2D06091640077
:100A6000709165008DE290E0FED061E08FE290E051
:100A7000E7D060E080E390E0DF91CF911F910F918C
:100A8000DFC0DF91CF911F910F9108951F920F92B8
:100A90000FB60F9211248F939F93AF93BF938091C2
:100AA000800090918100A0918200B0918300029615
:100AB000A11DB11D8093800090938100A0938200BE
:100AC000B0938300BF91AF919F918F910F900FBE14
:100AD0000F901F90189510929B0082E080939000D9
:100AE000BA9880E886BD16BC19BE80E48BBF83E04F
:100AF00083BF81B5876081BD81B5806481BD379832
:100B000080B18B6080B90CDF8BB780618BBF8BB7F6
:100B100080628BBF80B5826080BD80B5816080BD02
:100B2000B998B89886B38093910082B3886382BBEA
:100B30008AB3877C8ABB89B38093A70080916200C7
:100B4000882321F08BB388638BBBC19AD29AD09A49
:100B5000D19A2BB380917D00982F9170909592231C
:100B60009BBB9BB38270880F809589238BBB82E0EF
:100B700085BF85B78E7F85BF89B78E7F89BF8BB7CD
:100B800080648BBF90E49ABF789489B78E7F89BFC9
:100B90008BB780648BBF9ABF85B78C7F85BF80E1A0
:100BA000809384008091A800882371F08091A80030
:100BB0004091AF005091B0006091B1007091B200CF
:100BC00090E032D01092A800DA9885B7806285BF95
:100BD00085B790918400877E892B85BF8895E2CF69
:100BE000E199FECF9FBB8EBBE09A99278DB3089504
:100BF000A6E1B0E044E050E03BC0A8E1B0E042E054
:100C000050E036C0262FE199FECF9FBB8EBBE09A05
:100C100001970DB2021639F01CBA2DBB0FB6F8942D
:100C2000E29AE19A0FBE08950396272FECDFEADFE0
:100C3000252FE9DF242FE7CF0196272FE4DFE2CF2E
:100C4000262FE199FECF1CBA9FBB8EBB2DBB0FB6E2
:100C5000F894E29AE19A0FBE01960895242FF1DFED
:100C6000252FEFDF00C0ECDF272FEBCFDC01CB011E
:100C7000FC01E199FECF06C0FFBBEEBBE09A3196C6
:100C80000DB20D9241505040B8F70895F894FFCF3F
:100C9000010001010601E1E2000000008428203289
:0C0CA000302F2D2C0C0A020001E2E100B4
:00000001FF
