:10000000AFC00000CAC00000C8C00000C6C00000E9
:10001000C4C00000C2C00000C0C00000BEC00000DC
:10002000BCC00000BAC0000009C30000B6C0000098
:10003000B4C00000B2C00000B0C00000AEC00000FC
:10004000ACC00000AAC00000A8C00000A6C000000C
:10005000A4C00000C6C00000A0C000009EC00000F8
:100060009CC000009AC0000098C0000096C000002C
:1000700094C0000092C0000090C000008EC000003C
:100080008CC000008AC0000088C0000086C000004C
:1000900084C0000082C000001201100100000008AE
:1000A000EB03472002000102000109027000020177
:1000B00000C0320904000000010100000924010011
:1000C000011E0001010C24020101020001000000D8
:1000D00000092403020101000100090401000001DC
:1000E00002000009040101010102000007240102CD
:1000F0000101001724020101021005401F00112B0D
:100100000022560044AC0080BB000905810D0001AF
:100110000100000725010100000004030904180381
:100120004400650061006E002000430061006D0026
:10013000650072006100000026034C005500460077
:100140004100200041007500640069006F0020003C
:1001500049006E002000440065006D006F00000043
:1001600011241FBECFEFD0E2DEBFCDBF11E0A0E073
:10017000B1E0E0E4FDE000E00BBF02C007900D92AB
:10018000A430B107D9F711E0A4E0B1E001C01D929D
:10019000A531B107E1F767D1D1C532CF1F938BB13C
:1001A0008F70806A8BB912E010936E00209100016D
:1001B00030910101409102015091030160E472E429
:1001C0008FE090E099D5215027BD14BD15BD1F913A
:1001D000089515BC109204018BB18F7080618BB9AA
:1001E00008951F920F920FB60F9211242F938F93A1
:1001F0009F932091E90081E08093E9008091E800DD
:1002000080FF2BC080910401882339F18091070180
:100210008F5F80930701815050F480910501909188
:100220000601805090489093060180930501629BDF
:1002300003C080E090E004C0809105019091060128
:100240008093F1009093F1008091E80085FD05C056
:100250008091E8008E778093E80027702093E90072
:100260009F918F912F910F900FBE0F901F90189517
:100270001F93DF93CF9300D00F92CDB7DEB780915D
:100280000E018B3069F08C3020F4813009F0A2C06F
:100290002BC0813809F471C08F3F09F09BC017C093
:1002A00010910D01113009F095C08091E800877F11
:1002B0008093E80043D11092040180910F01909146
:1002C0001001892B09F486C01093040183C080912A
:1002D0000D018152823008F07DC08091E800877F57
:1002E0008093E8002BD176C080910D01823209F015
:1002F00071C09091100180911101813809F06AC09C
:10030000913009F067C08091E800877F8093E80012
:10031000CE01019663E070E0B7D28091E8008E775D
:100320008093E8002B8130E040E050E0A9013327C2
:1003300022278A8190E0A0E0B0E0BA2FA92F982F61
:100340008827282B392B4A2B5B2B898190E0A0E052
:10035000B0E0282B392B4A2B5B2B209300013093E4
:100360000101409302015093030160E472E48FE0C5
:1003700090E0C2D4215027BD2DC080910D01823A5A
:1003800049F59091100180911101813819F5913052
:1003900009F5209100013091010140910201509135
:1003A0000301CA01AA27BB278B83BB27A52F942F44
:1003B000832F8A8329838091E800877F8093E800D8
:1003C000CE01019663E070E001D28091E8008B7766
:1003D0008093E8000F900F900F90CF91DF911F91C5
:1003E000089581E061E446E574D080FD02C090E9A3
:1003F00001C090E68BB18F70982B9BB908950F9335
:100400001F9384B7877F84BF88E10FB6F8948093E9
:100410006000109260000FBE90E080E80FB6F89484
:1004200080936100909361000FBE8AB1806F8AB99A
:100430008BB18F708BB96A98729A0AE710E085EADF
:10044000F80180838298EEE7F0E080818460808309
:10045000DFD082E480937C00F80180818064808317
:100460001F910F910895CBDF8BB18F7080618BB995
:1004700078942FD4FECFDA01923049F0933061F0B6
:100480009130F9F4E8E9F0E022E130E01EC0EAEA58
:10049000F0E020E730E019C0813049F0813018F0F9
:1004A000823079F408C0EAE1F1E0849107C0EEE11E
:1004B000F1E0849103C0E8E3F1E08491282F30E07B
:1004C00004C0E0E0F0E020E030E0ED93FC93C901EF
:1004D0000895382F282F2CC02093E900231721F4EA
:1004E000762F942F50E006C07091EC009091ED00B3
:1004F0005091F00091FF1BC08091EB008E7F8093A4
:10050000EB008091ED008D7F8093ED008091EB00FA
:1005100081608093EB007093EC009093ED0050931A
:10052000F0008091EE0087FD02C080E008952F5F0B
:10053000273090F23093E90081E0089580910D0119
:1005400088239CF404C080910C018823B9F0809129
:10055000E80082FFF8CF8091E8008B778093E80075
:10056000089580910C01882349F08091E80080FF74
:10057000F8CF8091E8008E778093E8000895EF929D
:10058000FF920F931F934DD054D008ED10E0F80167
:1005900080818F77808380818068808380818F7D58
:1005A0008083E7EDF0E080818068808319BC109241
:1005B0000C011092080110920A011092090180EEBC
:1005C000E82EF12CF70180818B7F8083F8018081F8
:1005D0008160808380E060E042E07BDFE1EEF0E07C
:1005E00080818E7F8083E2EEF0E080818160808375
:1005F000808188608083F70180818E7F8083F8010D
:100600008081806180831F910F91FF90EF9008950A
:10061000E7EDF0E080818160808381E080930B01D1
:10062000AECFE8EDF0E080818C7F80831092E20015
:1006300008951092DA001092E10008951F920F922F
:100640000FB60F920BB60F9211242F933F934F9337
:100650005F936F937F938F939F93AF93BF93EF932A
:10066000FF938091E10082FF0AC08091E20082FF47
:1006700006C08091E1008B7F8093E10029D38091B7
:10068000DA0080FF1DC08091D80080FF19C08091E2
:10069000DA008E7F8093DA008091D90080FF0CC051
:1006A0008CE089BD8EE089BD09B400FEFDCF81E0FC
:1006B00080930C0173DD04C019BC10920C0189DD1C
:1006C0008091E10080FF18C08091E20080FF14C09B
:1006D0008091E2008E7F8093E2008091E200806151
:1006E0008093E2008091D80080628093D80019BC8A
:1006F00085E080930C01ECD28091E10084FF2DC055
:100700008091E20084FF29C08CE089BD8EE089BD24
:1007100009B400FEFDCF8091D8008F7D8093D80072
:100720008091E1008F7E8093E1008091E2008F7ED6
:100730008093E2008091E20081608093E2008091EA
:100740000801882331F48091E30087FD02C081E035
:1007500001C084E080930C01BBD28091E10083FF53
:1007600022C08091E20083FF1EC08091E100877F5C
:100770008093E10082E080930C0110920801809147
:10078000E1008E7F8093E1008091E2008E7F809374
:10079000E2008091E20080618093E20080E060E00E
:1007A00042E097DE95D2FF91EF91BF91AF919F917B
:1007B0008F917F916F915F914F913F912F910F900A
:1007C0000BBE0F900FBE0F901F9018959C0140918B
:1007D0001301509114014617570718F4F90190E0DE
:1007E0003DC06115710511F0AB01F8CF8091E800B3
:1007F0008E778093E80040E050E0F0CF80910C01CC
:100800008823F1F18530F1F18091E80083FF02C087
:1008100081E008958091E80082FD2CC08091E8007D
:1008200080FF1CC02091F2003091F30007C081913D
:100830008093F100415050402F5F3F4F41155105CB
:1008400019F02830310598F390E02830310509F48B
:1008500091E08091E8008E778093E8004115510582
:1008600069F6992359F606C080910C01882341F05E
:10087000853041F08091E80082FFF6CF80E0089556
:1008800082E0089583E008959C016115710529F4C3
:100890008091E8008B778093E800F90122C0809175
:1008A0000C01882371F1853071F18091E80083FF9C
:1008B00002C081E008958091E80082FFF0CF06C079
:1008C0008091F10081936150704031F08091F2008D
:1008D0009091F300892BA1F78091E8008B778093AA
:1008E000E80061157105D9F606C080910C018823D6
:1008F00041F0853041F08091E80080FFF6CF80E044
:10090000089582E0089583E008959C0140911301C9
:10091000509114014617570718F4F90190E040C0B0
:100920006115710511F0AB01F8CF8091E8008E7769
:100930008093E80040E050E0F0CF80910C018823E4
:1009400009F440C0853009F43FC08091E80083FF7E
:1009500002C081E008958091E80082FD2DC0809161
:10096000E80080FF1DC02091F2003091F30008C024
:1009700084918093F1003196415050402F5F3F4F5A
:100980004115510519F02830310590F390E02830D9
:10099000310509F491E08091E8008E778093E800BA
:1009A0004115510551F6992341F606C080910C017D
:1009B000882341F0853041F08091E80082FFF6CF36
:1009C00080E0089582E0089583E008950F931F93D7
:1009D000DF93CF93CDB7DEB7AC970FB6F894DEBFF9
:1009E0000FBECDBF8091F10080930D018091F10089
:1009F00080930E018091F1009091F100EFE0F1E021
:100A000080930F01909310018091F1009091F1007B
:100A10008093110193838091F1009091F100809374
:100A20001301958325DC8091E80083FF38C1809114
:100A30000D0130910E01353009F487C0363040F495
:100A40003130C9F1313070F0333009F028C133C092
:100A5000383009F4F6C0393009F405C1363009F0F0
:100A60001EC197C0803821F0823809F018C108C033
:100A70009091090180910A01882399F0926011C038
:100A80008091110187708093E9008091EB0090E0E4
:100A900025E0969587952A95E1F7982F9170109209
:100AA000E9008091E800877F8093E8009093F1004F
:100AB0001092F100D1C0882319F0823009F0EFC004
:100AC00090E08F719070009721F0029709F0E7C0D5
:100AD0000CC080910F01813009F0E1C010920A0131
:100AE000333069F580930A012AC080910F01882371
:100AF00031F520911101277009F4D1C02093E9004C
:100B00008091EB0080FF1BC0333021F48091EB001B
:100B1000806213C08091EB0080618093EB0081E0E4
:100B200090E002C0880F991F2A95E2F78093EA00AF
:100B30001092EA008091EB0088608093EB001092A5
:100B4000E9008091E800877F8AC0882309F0A7C068
:100B500010910F011F770FB7F8948091E800877FFD
:100B60008093E800EBDC8091E80080FFFCCF80916F
:100B7000E3008078812B8093E30080688093E3001A
:100B8000112311F482E001C083E080930C010FBFB8
:100B900086C08058823008F082C080910F01909109
:100BA000100123E08C3D920709F033C083E08C8371
:100BB0008AE28B837FB7F894DE0115966EE040E001
:100BC00050E011E2E62FF0E010935700849140FFCF
:100BD00003C082958F706F5F8F70282F30E08A304E
:100BE00018F0C901C79602C0C901C0968D939D93A4
:100BF0004F5F5F4F4431510529F77FBF8091E80077
:100C0000877F8093E800CE0103966AE270E0DEDD24
:100C100012C060911101AE014F5F5F4F2CDCBC012F
:100C2000009709F43CC08091E800877F8093E8003A
:100C300089819A816ADE8091E8008B778093E80051
:100C40002EC0803861F58091E800877F8093E800AE
:100C5000809108018093F1008091E8008E77809365
:100C6000E8006CDC1CC08823D1F490910F01923015
:100C7000B0F48091E800877F8093E80090930801AA
:100C80005DDC80910801882331F48091E30087FDC9
:100C900002C081E001C084E080930C01A2DB80915E
:100CA000E80083FF0AC08091EB0080628093EB0034
:100CB0008091E800877F8093E800AC960FB6F894A7
:100CC000DEBF0FBECDBFCF91DF911F910F91089571
:100CD00008951F9380910C01882361F01091E90021
:100CE0001092E9008091E80083FF01C06FDE177069
:100CF0001093E9001F910895A1E21A2EAA1BBB1BB5
:100D0000FD010DC0AA1FBB1FEE1FFF1FA217B307D7
:100D1000E407F50720F0A21BB30BE40BF50B661FED
:100D2000771F881F991F1A9469F7609570958095B1
:100D300090959B01AC01BD01CF010895F894FFCFC0
:040D400080BB000074
:00000001FF
