:1000000079C0000094C0000092C0000090C00000C1
:100010008EC000008CC000008AC0000088C00000B4
:1000200086C0000084C0000027C2000080C000001D
:100030007EC000007CC000007AC0000078C00000D4
:1000400076C0000074C0000072C0000070C00000E4
:100050006EC000006CC000006AC0000068C00000F4
:1000600066C0000064C0000062C0000060C0000004
:100070005EC000005CC000005AC0000058C0000014
:1000800056C0000054C0000052C0000050C0000024
:100090004EC000004CC0000012011001FF0000081B
:1000A000B40411FD00020102030109021200010162
:1000B0000080FA0904000000FF00000004030904A6
:1000C0000C0353004900530050004D00000016037C
:1000D000520065006C006100790042006F00610011
:1000E0007200640000000C0330003000300030006B
:1000F0003100000011241FBECFEFD0E2DEBFCDBF24
:1001000011E0A0E0B1E0EEE7FAE000E00BBF02C0D2
:1001100007900D92A630B107D9F711E0A6E0B1E043
:1001200001C01D92A231B107E1F7E2D0A6C468CFA9
:10013000DF93CF93CDB7DEB727970FB6F894DEBF26
:100140000FBECDBFDE011396E0E0F1E085E0019047
:100150000D928150E1F719821A8280910B01813052
:1001600009F451C0893009F09EC080910A018132A2
:1001700009F099C08BB190E189278BB98091E80093
:10018000877F8093E800CE01019662E070E093D211
:100190008091E8008E7F8093E80080910C0190911F
:1001A0000D0123E086309207C9F023E087309207E3
:1001B00028F48350934009F076C009C023E08930C9
:1001C000920799F08C50934009F06DC015C08A8158
:1001D000882311F0479867C0479A65C08A818823B1
:1001E00011F0469860C0469A5EC08A81882311F05B
:1001F000459859C0459A57C08A81882311F0449880
:1002000052C0449A50C080910A01813A09F04BC013
:100210008BB190E189278BB98091E800877F80932B
:10022000E80080910C0190910D0123E08630920747
:1002300009F123E08730920740F423E081309207F0
:1002400061F08350934011F50EC023E0893092078E
:10025000A1F08C509340D1F413C0CE01039665E019
:1002600070E0CDD113C098B1991F9927991F83E0F1
:10027000891B0BC0469908C005C0459905C002C03E
:10028000449902C083E001C082E08A838A81882386
:1002900029F0CE01019662E070E0B1D18091E800D2
:1002A0008B7F8093E80027960FB6F894DEBF0FBED1
:1002B000CDBFCF91DF91089584B7877F84BF88E158
:1002C0000FB6F89480936000109260000FBE90E02B
:1002D00080E80FB6F89480936100909361000FBEA0
:1002E000B5D087B1806F87B988B18F7088B908950C
:1002F000E3DF7894B9D3FECFDA01923039F093304E
:1003000051F0913019F5E8E9F0E002C0EAEAF0E0D6
:1003100022E130E01FC0813059F0813028F0823076
:1003200059F0833099F40CC0ECEBF0E084910BC0F1
:10033000E0ECF0E0849107C0EEECF0E0849103C0C3
:10034000E6EEF0E08491282F30E004C0E0E0F0E039
:1003500020E030E0ED93FC93C90108958091EB001B
:1003600081608093EB001092ED006093EC0040936D
:10037000ED008091EE00881F8827881F08958091E6
:100380000A0188238CF403C08EB38823B1F08091D6
:10039000E80082FFF9CF8091E8008B7F8093E8002E
:1003A00008958EB3882349F08091E80080FFF9CF4B
:1003B0008091E8008E7F8093E8000895EF92FF928D
:1003C0000F931F934CD053D008ED10E0F8018081BB
:1003D0008F77808380818068808380818F7D808318
:1003E000E7EDF0E080818068808319BC1EBA10922E
:1003F0000601109208011092070180EEE82EF12C00
:10040000F70180818B7F8083F80180818160808308
:1004100080E060E042E0A2DFE1EEF0E080818E7FEC
:100420008083E2EEF0E0808181608083808188605B
:100430008083F70180818E7F8083F80180818061D5
:1004400080831F910F91FF90EF900895E7EDF0E00A
:1004500080818160808381E080930901AFCFE8EDE6
:10046000F0E080818C7F80831092E20008951092EA
:10047000DA001092E10008951F920F920FB60F92CA
:100480000BB60F9211242F933F934F935F936F936B
:100490007F938F939F93AF93BF93EF93FF9380913D
:1004A000E10082FF0AC08091E20082FF06C08091D5
:1004B000E1008B7F8093E100D6D28091DA0080FF4B
:1004C0001BC08091D80080FF17C08091DA008E7F1A
:1004D0008093DA008091D90080FF0BC08CE089BD49
:1004E0008EE089BD09B400FEFDCF81E08EBBBBD29A
:1004F00003C019BC1EBAB7D28091E10080FF17C0BB
:100500008091E20080FF13C08091E2008E7F809393
:10051000E2008091E20080618093E2008091D80047
:1005200080628093D80019BC85E08EBB9CD28091FC
:10053000E10084FF2CC08091E20084FF28C08CE0A1
:1005400089BD8EE089BD09B400FEFDCF8091D80041
:100550008F7D8093D8008091E1008F7E8093E100B1
:100560008091E2008F7E8093E2008091E2008160C2
:100570008093E20080910601882331F48091E300AA
:1005800087FD02C081E001C084E08EBB6CD2809107
:10059000E10083FF21C08091E20083FF1DC08091B4
:1005A000E100877F8093E10082E08EBB109206011C
:1005B0008091E1008E7F8093E1008091E2008E7F48
:1005C0008093E2008091E20080618093E20080E00D
:1005D00060E042E0C3DE47D2FF91EF91BF91AF915F
:1005E0009F918F917F916F915F914F913F912F914B
:1005F0000F900BBE0F900FBE0F901F9018959C018F
:1006000040911001509111014617570718F4F90154
:1006100090E03CC06115710511F0AB01F8CF8091FD
:10062000E8008E7F8093E80040E050E0F0CF8EB38A
:100630008823E9F18530E9F18091E80083FF02C069
:1006400081E008958091E80082FD2BC08091E80050
:1006500080FF1CC02091F2003091F30007C081910F
:100660008093F100415050402F5F3F4F411551059D
:1006700019F02830310598F390E02830310509F45D
:1006800091E08091E8008E7F8093E800411551054C
:1006900071F6992361F605C08EB3882341F0853049
:1006A00041F08091E80082FFF7CF80E0089582E07A
:1006B000089583E008959C016115710529F48091E6
:1006C000E8008B7F8093E800F90121C08EB3882376
:1006D00069F1853069F18091E80083FF02C081E013
:1006E00008958091E80082FFF1CF06C08091F1006B
:1006F00081936150704031F08091F2009091F3004D
:10070000892BA1F78091E8008B7F8093E800611529
:100710007105E1F605C08EB3882341F0853041F0C4
:100720008091E80080FFF7CF80E0089582E008958F
:1007300083E008959C0140911001509111014617EA
:10074000570718F4F90190E03FC06115710511F0E9
:10075000AB01F8CF8091E8008E7F8093E80040E005
:1007600050E0F0CF8EB3882309F43FC0853009F400
:100770003EC08091E80083FF02C081E0089580912F
:10078000E80082FD2CC08091E80080FF1DC0209110
:10079000F2003091F30008C084918093F10031960B
:1007A000415050402F5F3F4F4115510519F02830FF
:1007B000310590F390E02830310509F491E0809103
:1007C000E8008E7F8093E8004115510559F6992382
:1007D00049F605C08EB3882341F0853041F0809101
:1007E000E80082FFF7CF80E0089582E0089583E07B
:1007F00008950F931F93DF93CF93CDB7DEB7AC97D8
:100800000FB6F894DEBF0FBECDBF8091F10080938C
:100810000A018091F10080930B018091F100909189
:10082000F100ECE0F1E080930C0190930D018091D8
:10083000F1009091F10080930E0193838091F1007B
:100840009091F10080931001958372DC8091E80013
:1008500083FFF0C080910A0120910B01253009F43B
:1008600041C0263040F4213019F1213070F023309E
:1008700009F0E0C01DC0283009F4AFC0293009F4E8
:10088000BEC0263009F0D6C050C0803809F0D2C0B2
:100890009091070180910801811192608091E80098
:1008A000877F8093E8009093F1001092F100A0C040
:1008B000882319F0823009F0BDC090E08F719070EC
:1008C000892B09F0B7C080910C01813009F0B2C0CA
:1008D00010920801233011F4809308018091E80000
:1008E000877F89C0882309F0A5C010910C011F776C
:1008F0000FB7F8948091E800877F8093E8003FDD90
:100900008091E80080FFFCCF8091E3008078812B0C
:100910008093E30080688093E300112311F482E068
:1009200001C083E08EBB0FBF85C08058823008F0C5
:1009300081C080910C0190910D0123E08C3D9207C4
:1009400009F033C083E08C838AE28B837FB7F8940D
:10095000DE0115966EE040E050E011E2E62FF0E097
:1009600010935700849140FF03C082958F706F5F92
:100970008F70282F30E08A3018F0C901C79602C066
:10098000C901C0968D939D934F5F5F4F44315105D0
:1009900029F77FBF8091E800877F8093E800CE0130
:1009A00003966AE270E02BDE12C060910E01AE0188
:1009B0004F5F5F4FA1DCBC01009709F43BC0809101
:1009C000E800877F8093E80089819A81B3DE809177
:1009D000E8008B7F8093E8002DC0803859F5809126
:1009E000E800877F8093E800809106018093F10002
:1009F0008091E8008E7F8093E800C1DC1BC08823D3
:100A0000C9F490910C019230A8F48091E800877F9E
:100A10008093E80090930601B2DC80910601882360
:100A200031F48091E30087FD02C081E001C084E0E1
:100A30008EBB19D08091E80083FF0AC08091EB0043
:100A400080628093EB008091E800877F8093E800CC
:100A5000AC960FB6F894DEBF0FBECDBFCF91DF913D
:100A60001F910F91089508958EB3882329F08091E6
:0E0A7000E80083FF01C0BDCE0895F894FFCFCB
:060A7E0000000000010071
:00000001FF
