:100000009DC00000B6C00000B4C00000B2C0000037
:10001000B0C00000AEC00000ACC00000AAC000002C
:10002000A8C00000A6C00000A4C0000041C300009A
:1000300006C300009EC000009CC000009AC00000E3
:1000400098C0000096C0000094C0000092C000005C
:1000500090C000008EC000008CC00000DBC000001B
:1000600088C0000086C0000084C0000082C000007C
:1000700080C000007EC000007CC000007AC000008C
:1000800078C0000076C0000074C0000072C000009C
:1000900070C000006EC000001201100102000008D4
:1000A000EB03602001000102DC0109023E000201B5
:1000B00000C0320904000001020201000524001002
:1000C0000104240206052406000107058203080036
:1000D000FF09040100020A000000070504021000E5
:1000E00001070583021000010403090418034400FA
:1000F000650061006E002000430061006D00650036
:100100007200610000003403420065006E00690067
:1001100074006F00200041007200640075006900E7
:100120006E006F002000500072006F0067007200C8
:1001300061006D006D0065007200000011241FBE9B
:10014000CFEFD4E0DEBFCDBF11E0A0E0B1E0E0E34F
:10015000F0E102C005900D92A831B107D9F711E086
:10016000A8E1B1E001C01D92A43BB107E1F7D1D0F5
:100170005DC746CF84E68093A70188B1806C8F77F6
:1001800088B908951092A70188B1806C88B9089544
:100190001F93FC018489813019F0823019F404C066
:1001A00010E303C010E001C010E28389823009F43B
:1001B00018608589873031F0883031F0863029F435
:1001C000126003C0146001C016601092C900109242
:1001D000C8001092CA002785308941895289CA0116
:1001E000B9019695879577956795605C7D4B804FB3
:1001F0009F4FFAD6215030403093CD002093CC0051
:100200001093CA0082E08093C80088E98093C900F7
:100210001F9108951F920F920FB60F9211242F93E2
:100220003F938F939F93CF93DF93EF93FF9390919F
:10023000CE008EB38430D9F4C9E1D1E0E881F981F0
:100240009083888199810196998388832E813F814B
:100250008217930721F48C819D81998388832FB71E
:10026000F89489859A8501969A8789872FBFFF918F
:10027000EF91DF91CF919F918F913F912F910F90AF
:100280000FBE0F901F901895FC018585282F30E038
:1002900021703070922F80911801882349F4222315
:1002A00039F088B18F7388B9549A8AE08093A40199
:1002B00090931801089581E091E029C681E091E0D2
:1002C000D6D51092A70180FD02C090EC01C090E04D
:1002D00088B19095806C982398B9089584B7877FEA
:1002E00084BF88E10FB6F89480936000109260009C
:1002F0000FBE87B1806C87B988B1806C88B990D106
:100300008DE787BD82E084BD83E085BD5C9854980D
:100310000895CF92DF92EF92FF920F931F93CF93A6
:10032000DF93DCDFE9E1F1E02FB7F89484E291E0BC
:1003300091838083938382839583848384EA91E08D
:100340009783868380E88087128611862FBF7894F2
:100350001EE1F12EBAE0CB2E09E111E0A0ECDA2E7D
:10036000F4E6EF2E8091C80085FF0DC081E091E09A
:10037000CDD4892B41F081E091E0EED48093CE0082
:100380004798F092A501A99B7DC0A89A8091A401ED
:10039000882369F08091A40181508093A401809109
:1003A000A401882321F488B1806C88B95498809185
:1003B000A701882371F08091A70181508093A70144
:1003C0008091A701882329F488B18D2588B9E0920E
:1003D000A7018091A501882351F08091A50181504A
:1003E0008093A5018091A501882309F4479A809103
:1003F000A601882351F08091A60181508093A60127
:100400008091A601882309F4469A8FB7F894C09189
:100410002201D09123018FBF8091000181508093F0
:100420000001882319F0C93CD10560F1C092000198
:10043000209731F14698F092A60122C0E0911B016D
:10044000F0911C0181E091E06081EDD48823D1F42A
:10045000F80182819381019693838283268137817B
:100460008217930721F484819581938382832FB728
:10047000F894818592850197928781872FBF219774
:100480002097E1F681E091E0BFD42ED46BCFDA0162
:10049000923049F0933061F09130F9F4E8E9F0E0FE
:1004A00022E130E01EC0EAEAF0E02EE330E019C0BD
:1004B000813049F0813018F0823079F408C0E8EEDC
:1004C000F0E0849107C0ECEEF0E0849103C0E6E038
:1004D000F1E08491282F30E004C0E0E0F0E020E07B
:1004E00030E0ED93FC93C90108958093E900809179
:1004F000EB0081608093EB001092ED006093EC00C4
:100500004093ED008091EE00881F8827881F089592
:100510008091AC0188238CF403C08EB38823B1F0A2
:100520008091E80082FFF9CF8091E8008B7780937B
:10053000E80008958EB3882349F08091E80080FF99
:10054000F9CF8091E8008E778093E800089540917C
:10055000E4005091E50024E68091EC00807880383A
:1005600029F48091E80080FF05C021C08091E80057
:1005700082FD1DC08EB3882311F482E0089585307A
:1005800011F483E008958091EB0085FF02C081E0C3
:1005900008958091E4009091E50084179507E1F2B9
:1005A000222311F484E008952150AC01D5CF80E0DE
:1005B00008953FD041D08091D8008F778093D800A4
:1005C0008091D80080688093D8008091D8008F7D7A
:1005D0008093D80019BC82E089BD09B400FEFDCF2C
:1005E0001EBA1092A8011092AA011092A90180E0EF
:1005F00060E042E07ADF8091E1008E7F8093E1004D
:100600008091E20081608093E2008091E200886046
:100610008093E2008091E0008E7F8093E000089557
:10062000E3E6F0E080818E7F808381E08093AB0100
:10063000C0CF1092E20008951092E10008951F9239
:100640000F920FB60F9211241F932F933F934F9346
:100650005F936F937F938F939F93AF93BF93EF932A
:10066000FF93E9EEF0E0108117701082E0EFF0E008
:100670008081877F80837894B6D1A9EEB0E01C9208
:10068000E0EFF0E08081886080831C93FF91EF9120
:10069000BF91AF919F918F917F916F915F914F919A
:1006A0003F912F911F910F900FBE0F901F901895A3
:1006B0001F920F920FB60F9211242F933F934F93D7
:1006C0005F936F937F938F939F93AF93BF93EF93BA
:1006D000FF938091E10082FF0AC08091E20082FFD7
:1006E00006C08091E1008B7F8093E100FCD2809175
:1006F000E10080FF16C08091E20080FF12C080916F
:10070000E2008E7F8093E2008091E200806180931E
:10071000E2008091D80080628093D80019BC1EBA94
:1007200031DD8091E10084FF2BC08091E20084FFE5
:1007300027C019BC82E089BD09B400FEFDCF8091BD
:10074000D8008F7D8093D8008091E1008F7E8093C8
:10075000E1008091E2008F7E8093E2008091E200D0
:1007600081608093E2008091A801882331F4809118
:10077000E30087FD02C081E001C084E08EBBFADCAB
:100780008091E10083FF26C08091E20083FF22C0B8
:100790008091E100877F8093E10082E08EBB109220
:1007A000A8018091E1008E7F8093E1008091E200BA
:1007B0008E7F8093E2008091E20080618093E2006E
:1007C00080E060E042E091DE8091F00088608093FC
:1007D000F00089D2FF91EF91BF91AF919F918F91DE
:1007E0007F916F915F914F913F912F910F900FBE2D
:1007F0000F901F9018959C014091B2015091B30148
:100800004617570718F4F90190E03CC061157105CF
:1008100011F0AB01F8CF8091E8008E778093E8006B
:1008200040E050E0F0CF8EB38823E9F18530E9F164
:100830008091E80083FF02C081E008958091E80084
:1008400082FD2BC08091E80080FF1CC08091F200E7
:10085000282F30E007C081918093F1004150504033
:100860002F5F3F4F4115510519F02830310598F39E
:1008700090E02830310509F491E08091E8008E770E
:100880008093E8004115510571F6992361F605C082
:100890008EB3882341F0853041F08091E80082FFDB
:1008A000F7CF80E0089582E0089583E008959C01E9
:1008B0006115710529F48091E8008B778093E80039
:1008C000F9011FC08EB3882359F1853059F1809109
:1008D000E80083FF02C081E008958091E80082FF74
:1008E000F1CF06C08091F10081936150704021F0FA
:1008F0008091F2008823B1F78091E8008B77809394
:10090000E80061157105F1F605C08EB3882341F04A
:10091000853041F08091E80080FFF7CF80E00895B6
:1009200082E0089583E008959C014091B2015091C6
:10093000B3014617570718F4F90190E03FC061155D
:10094000710511F0AB01F8CF8091E8008E778093AC
:10095000E80040E050E0F0CF8EB3882309F43FC0B8
:10096000853009F43EC08091E80083FF02C081E039
:1009700008958091E80082FD2CC08091E80080FFFE
:100980001DC08091F200282F30E008C08491809330
:10099000F1003196415050402F5F3F4F41155105B6
:1009A00019F02830310590F390E02830310509F432
:1009B00091E08091E8008E778093E8004115510521
:1009C00059F6992349F605C08EB3882341F0853046
:1009D00041F08091E80082FFF7CF80E0089582E047
:1009E000089583E008950F931F93DF93CF93CDB7BE
:1009F000DEB7AC970FB6F894DEBF0FBECDBF8091C7
:100A0000F1008093AC018091F1008093AD01809161
:100A1000F1009091F100EEEAF1E08093AE01909345
:100A2000AF018091F1009091F1008093B001938328
:100A30008091F1009091F1008093B20195833BDCAD
:100A40008091E80083FF36C18091AC013091AD0107
:100A5000353009F487C0363040F43130C9F13130D7
:100A600070F0333009F026C133C0383009F4F5C0D6
:100A7000393009F404C1363009F01CC196C0803801
:100A800021F0823809F016C108C09091A901809127
:100A9000AA01882399F0926011C08091B0018770FB
:100AA0008093E9008091EB0090E025E09695879592
:100AB0002A95E1F7982F91701092E9008091E80053
:100AC000877F8093E8009093F1001092F100D0C0EE
:100AD000882319F0823009F0EDC090E08F7190709A
:100AE000009721F0029709F0E5C00CC08091AE019B
:100AF000813009F0DFC01092AA01333069F580938C
:100B0000AA012AC08091AE01882331F52091B0015D
:100B1000277009F4CFC02093E9008091EB0080FF9B
:100B20001BC0333021F48091EB00806213C08091B0
:100B3000EB0080618093EB0081E090E002C0880FC1
:100B4000991F2A95E2F78093EA001092EA008091BB
:100B5000EB0088608093EB001092E9008091E80040
:100B6000877F89C0882309F0A5C01091AE011F7747
:100B70000FB7F8948091E800877F8093E800C8DC85
:100B80008091E80080FFFCCF8091E3008078812B8A
:100B90008093E30080688093E300112311F482E0E6
:100BA00001C083E08EBB0FBF85C08058823008F043
:100BB00081C08091AE019091AF0123E08C3D9207FE
:100BC00009F033C083E08C838AE28B837FB7F8948B
:100BD000DE0115966EE040E050E011E2E62FF0E015
:100BE00010935700849140FF03C082958F706F5F10
:100BF0008F70282F30E08A3018F0C901C79602C0E4
:100C0000C901C0968D939D934F5F5F4F443151054D
:100C100029F77FBF8091E800877F8093E800CE01AD
:100C200003966AE270E0E7DD12C06091B001AE01A8
:100C30004F5F5F4F2CDCBC01009709F43BC08091F3
:100C4000E800877F8093E80089819A816DDE80913A
:100C5000E8008B778093E8002DC0803859F58091AB
:100C6000E800877F8093E8008091A8018093F100DD
:100C70008091E8008E778093E8004ADC1BC08823CF
:100C8000C9F49091AE019230A8F48091E800877F7A
:100C90008093E8009093A8013BDC8091A801882311
:100CA00031F48091E30087FD02C081E001C084E05F
:100CB0008EBB04DB8091E80083FF0AC08091EB00CB
:100CC00080628093EB008091E800877F8093E8004A
:100CD000AC960FB6F894DEBF0FBECDBFCF91DF91BB
:100CE0001F910F91089508951F938EB3882361F08B
:100CF0001091E9001092E9008091E80083FF01C0A3
:100D000072DE17701093E9001F910895FC018EB3F5
:100D10008430F1F487859089A189B2890097A10573
:100D2000B105B1F085818093E9008091E80082FFF0
:100D30000FC08091F200882331F48091E8008B7716
:100D40008093E80005C08091F200282F30E002C0B7
:100D500020E030E0C9010895FC018EB3843021F514
:100D600087859089A189B2890097A105B105E1F035
:100D700085818093E9008091E80082FF15C0809111
:100D8000F200882319F42FEF3FEF04C08091F100A7
:100D9000282F30E08091F200882341F48091E80010
:100DA0008B778093E80002C02FEF3FEFC9010895D1
:100DB0000895FC018EB3843011F587859089A1894F
:100DC000B2890097A105B105D1F081818093E90036
:100DD0008091F2008823A9F09091E8008091E800CA
:100DE0008E778093E80095FD0CC0B1DB982F8823A7
:100DF00049F48091E8008E778093E80003C092E088
:100E000001C090E0892F0895FC018EB3843051F425
:100E100087859089A189B2890097A105B10511F054
:100E2000CF01C7CF08951F93FC01162F8EB38430D6
:100E3000D9F487859089A189B2890097A105B10568
:100E400099F081818093E9008091E80085FD08C0D8
:100E50008091E8008E778093E80079DB882329F47D
:100E60001093F10080E001C082E01F9108951F936C
:100E7000CF93DF93EC010D96FC0189E0DF011D9219
:100E80008A95E9F711E08981181729F46A817B8135
:100E90008C8152E010C08D81181731F46E817F81F2
:100EA000888552E030E008C08985181739F56A85D1
:100EB0007B858C8553E030E8882311F440E001C045
:100EC00044E020E088E090E003C02F5F880F991F86
:100ED00086179707D0F3852F90E056E0880F991F6B
:100EE0005A95E1F760E0311161E0682B426022958C
:100EF000207F422B812FF9DA882329F01F5F1530DC
:100F000009F0C1CF81E0DF91CF911F910895CF9378
:100F1000DF93EC018091E80083FF63C0888190E05B
:100F20002091B0013091B1012817390709F059C05B
:100F30008091AD01813261F0823220F4803209F07B
:100F400050C01BC0823279F1833209F04AC03BC0E5
:100F50008091AC01813A09F044C08091E800877F1C
:100F60008093E800CE010F9667E070E044DC80914A
:100F7000E8008B778093E80034C08091AC01813227
:100F800081F58091E800877F8093E800CE010F967D
:100F900067E070E08CDC8091E8008E778093E80059
:100FA000CE01F6D81EC08091AC018132D1F480917F
:100FB000E800877F8093E800ABDA8091AE018D87EF
:100FC000CE0162D90EC08091AC01813251F4809182
:100FD000E800877F8093E8009BDACE016091AE0144
:100FE000E7DEDF91CF910895A1E21A2EAA1BBB1B69
:100FF000FD010DC0AA1FBB1FEE1FFF1FA217B307E5
:10100000E407F50720F0A21BB30BE40BF50B661FFA
:10101000771F881F991F1A9469F7609570958095BE
:1010200090959B01AC01BD01CF010895F894FFCFCD
:101030000A00031000000410000002080000000075
:081040000000000000000000A8
:00000001FF
