:10000000BFC00000DBC00000D9C00000D7C00000A6
:10001000D5C00000D3C00000D1C00000CFC0000098
:10002000CDC00000CBC0000045C30000C7C0000029
:10003000C5C00000C3C00000C1C00000BFC00000B8
:10004000BDC00000BBC00000B9C00000B7C00000C8
:10005000B5C00000B3C00000B1C00000AFC00000D8
:10006000ADC00000ABC00000A9C00000A7C00000E8
:10007000A5C00000A3C00000A1C000009FC00000F8
:100080009DC000009BC0000099C0000097C0000008
:1000900095C0000093C0000005010906A1010507F5
:1000A00019E029E7150025017501950881029501E0
:1000B0007508810105081901290595057501910249
:1000C000950175039101150025650507190029653E
:1000D000950675088100C01201100100000008EBB0
:1000E00003422001000102DC01090222000101009B
:1000F000C0320904000001030101000921110100BF
:1001000001223F000705810308000104030904429E
:10011000034400650061006E002000430061006D33
:1001200000650072006100200061006E0064002024
:1001300000440065006E00760065007200200047F4
:100140000069006E00670065007200690063006866
:100150000000002A034D00610067006E0065007416
:100160000069006300200043006100720064002009
:10017000005200650061006400650072000000002C
:1001800011241FBECFEFD0E2DEBFCDBF11E0A0E053
:10019000B1E0ECE8F2E100E00BBF02C007900D9285
:1001A000A631B107D9F71DE0A6E1B1E001C01D926B
:1001B000A334B107E1F7D8D00C94440921CF809142
:1001C0000B0190910C01009729F0019790930C017D
:1001D00080930B01089508950F931F93CF93DF939E
:1001E000E9018091160191E0892780931601882307
:1001F00041F4E0910D01F0910E018DE0EF32F8072E
:1002000011F41A8219C0E050FC4F80819181E050B6
:10021000F440892B49F488E28A83E85FFB4FF0932E
:100220000E01E0930D0108C0CF0146D1882311F4DF
:1002300087E201C08EE18A8388E090E0F801918333
:10024000808380E0DF91CF911F910F91089580E02E
:1002500091E0C3C680E091E088D6E2EEF0E08081D4
:100260008460808308958F929F92AF92BF92CF92C5
:10027000DF92EF92FF920F931F93DF93CF9300D003
:1002800000D000D0CDB7DEB7DE011196EFE0F1E08F
:1002900086E001900D928150E1F7F3B0F0948FE782
:1002A000F82220E04E010894811C911C37E0A32E17
:1002B000B12CAC0EBD1E1DC0F801218190818F2D87
:1002C000892341F09E2131F060E02F2109F061E0A7
:1002D000C601BDD00E5F1F4F88E094E0C80ED91E46
:1002E0000A151B0549F783B180952F2D9FE7F92E3D
:1002F000F82287E191E0F6FE05C084016C01E22E50
:10030000EF24DACF90930E0180930D0126960FB65D
:10031000F894DEBF0FBECDBFCF91DF911F910F913B
:10032000FF90EF90DF90CF90BF90AF909F908F9015
:10033000089584B7877F84BF88E10FB6F8948093CF
:100340006000109260000FBE90E080E80FB6F89455
:1003500080936100909361000FBE84B1807884B96E
:1003600085B18F6785B990C1E4DF87E191E052D014
:100370008FE195E04FD087E299E04CD0789483B13B
:1003800080958F7786FF01C06EDF80E091E034D5E5
:1003900021D5F5CFDA019330B1F0943028F49130C3
:1003A00041F0923079F50AC0913211F1923251F553
:1003B00024C0E7EDF0E022E130E028C0E9EEF0E013
:1003C00022E230E023C0813049F0813018F08230E1
:1003D000C9F40AC0EBE0F1E0849103C0EFE0F1E082
:1003E0008491282F30E012C0E3E5F1E08491F9CF49
:1003F000EBEFF0E029E030E009C0E8E9F0E02FE3BE
:1004000030E004C0E0E0F0E020E030E0ED93FC9369
:10041000C9010895FC01E050FC4F11821082E050A8
:10042000F440DF01AE5FBB4FEC931196FC93EC5FA1
:10043000FB4F81E08083E450F440DF01AB5FBB4FB2
:10044000EC931196FC93E95FFB4F80830895DC01E8
:10045000662351F0AE5FBB4FED91FD9180819C9181
:10046000A450B440892B8083FD01E050FC4F808173
:100470009181019691838083FD01EC5FFB4F808128
:100480008038B9F4FD01EE5FFB4F20813181CD0151
:1004900081509C4F2817390729F02F5F3F4F318338
:1004A000208302C0B183A083AC5FBB4F81E08C93FB
:1004B0000895880F80830895CF93DF93DC01AC010A
:1004C0004B5F5B4FEA01E881F9817081EC01C95F04
:1004D000DB4F6881862F809587238083FD01E05064
:1004E000FC4F80819181019791838083888180383E
:1004F000B1F4FA0120813181CD0181509C4F281740
:10050000390729F02F5F3F4F3183208303C0EA0171
:10051000B983A883A95FBB4F81E08C9302C0880F89
:100520008883872F862309F081E0DF91CF9108959A
:100530008093E9008091EB0081608093EB00109242
:10054000ED006093EC004093ED008091EE00881F79
:100550008827881F089580913B0D88238CF403C061
:100560008EB38823B1F08091E80082FFF9CF8091AB
:10057000E8008B778093E80008958EB3882349F0D4
:100580008091E80080FFF9CF8091E8008E7780931A
:10059000E80008954091E4005091E50024E6809140
:1005A000EC008078803829F48091E80080FF05C055
:1005B00021C08091E80082FD1DC08EB3882311F414
:1005C00082E00895853011F483E008958091EB0076
:1005D00085FF02C081E008958091E4009091E500DC
:1005E00084179507E1F2222311F484E00895215045
:1005F000AC01D5CF80E00895EF92FF920F931F9347
:100600004CD053D008ED10E0F80180818F778083C3
:1006100080818068808380818F7D8083E7EDF0E03A
:1006200080818068808319BC1EBA1092370D1092A9
:10063000390D1092380D80EEE82EF12CF7018081F3
:100640008B7F8083F80180818160808380E060E01F
:1006500042E06EDFE1EEF0E080818E7F8083E2EEAB
:10066000F0E0808181608083808188608083F701F1
:1006700080818E7F8083F8018081806180831F91DB
:100680000F91FF90EF900895E7EDF0E08081816099
:10069000808381E080933A0DAFCFE8EDF0E0808178
:1006A0008C7F80831092E20008951092DA001092FD
:1006B000E10008951F920F920FB60F920BB60F92A2
:1006C00011242F933F934F935F936F937F938F9357
:1006D0009F93AF93BF93EF93FF938091E10082FFCD
:1006E0000AC08091E20082FF06C08091E1008B7F0A
:1006F0008093E10064DD8091DA0080FF1BC080916F
:10070000D80080FF17C08091DA008E7F8093DA00D6
:100710008091D90080FF0BC084E189BD86E189BD4D
:1007200009B400FEFDCF81E08EBB53D303C019BCDA
:100730001EBA4FD38091E10080FF17C08091E20084
:1007400080FF13C08091E2008E7F8093E200809151
:10075000E20080618093E2008091D8008062809303
:10076000D80019BC85E08EBB34D38091E10084FFB2
:100770002CC08091E20084FF28C084E189BD86E11D
:1007800089BD09B400FEFDCF8091D8008F7D809394
:10079000D8008091E1008F7E8093E1008091E2009B
:1007A0008F7E8093E2008091E20081608093E2007E
:1007B0008091370D882331F48091E30087FD02C0DA
:1007C00081E001C084E08EBB04D38091E10083FF0F
:1007D00021C08091E20083FF1DC08091E100877FEE
:1007E0008093E10082E08EBB1092370D8091E10092
:1007F0008E7F8093E1008091E2008E7F8093E20003
:100800008091E20080618093E20080E060E042E05D
:100810008FDEDFD2FF91EF91BF91AF919F918F91CA
:100820007F916F915F914F913F912F910F900BBEF0
:100830000F900FBE0F901F9018959C014091410D95
:100840005091420D4617570718F4F90190E03CC04B
:100850006115710511F0AB01F8CF8091E8008E773A
:100860008093E80040E050E0F0CF8EB38823E9F1B8
:100870008530E9F18091E80083FF02C081E00895AE
:100880008091E80082FD2BC08091E80080FF1CC0B1
:100890002091F2003091F30007C081918093F10024
:1008A000415050402F5F3F4F4115510519F02830FE
:1008B000310598F390E02830310509F491E08091FA
:1008C000E8008E778093E8004115510571F6992371
:1008D00061F605C08EB3882341F0853041F08091E8
:1008E000E80082FFF7CF80E0089582E0089583E07A
:1008F00008959C016115710529F48091E8008B77BA
:100900008093E800F90121C08EB3882369F1853016
:1009100069F18091E80083FF02C081E00895809131
:10092000E80082FFF1CF06C08091F1008193615011
:10093000704031F08091F2009091F300892BA1F783
:100940008091E8008B778093E80061157105E1F6EE
:1009500005C08EB3882341F0853041F08091E800D6
:1009600080FFF7CF80E0089582E0089583E0089546
:100970009C014091410D5091420D4617570718F4C4
:10098000F90190E03FC06115710511F0AB01F8CF9E
:100990008091E8008E778093E80040E050E0F0CF4F
:1009A0008EB3882309F43FC0853009F43EC080919E
:1009B000E80083FF02C081E008958091E80082FD95
:1009C0002CC08091E80080FF1DC02091F200309182
:1009D000F30008C084918093F1003196415050405B
:1009E0002F5F3F4F4115510519F02830310590F325
:1009F00090E02830310509F491E08091E8008E778D
:100A00008093E8004115510559F6992349F605C030
:100A10008EB3882341F0853041F08091E80082FF59
:100A2000F7CF80E0089582E0089583E00895BF92B3
:100A3000CF92DF92EF92FF920F931F93CF93DF93AA
:100A4000182F092F7B016A01A5DDB82E8823B1F587
:100A5000812F902F9C01E901C114D10439F0F601D6
:100A600080819181E81AF90AC80FD91F00E010E0CF
:100A700022C08091E80085FD16C08091E8008E7745
:100A80008093E800C114D10449F0F601808191817E
:100A9000800F911F9183808385E011C09BD17ADD07
:100AA000882349F00CC089918093F1000894E108F3
:100AB000F1080F5F1F4FE114F104D9F68B2DDF9180
:100AC000CF911F910F91FF90EF90DF90CF90BF904B
:100AD00008950F931F93DF93CF93CDB7DEB7AC97F5
:100AE0000FB6F894DEBF0FBECDBF8091F1008093AA
:100AF0003B0D8091F10080933C0D8091F10090912D
:100B0000F100EDE3FDE080933D0D90933E0D80916B
:100B1000F1009091F10080933F0D93838091F1005B
:100B20009091F1008093410D958391DB8091E800D5
:100B300083FF36C180913B0D30913C0D353009F477
:100B400087C0363040F43130C9F1313070F0333085
:100B500009F026C133C0383009F4F5C0393009F442
:100B600004C1363009F01CC196C0803821F08238AB
:100B700009F016C108C09091380D8091390D882375
:100B800099F0926011C080913F0D87708093E900C9
:100B90008091EB0090E025E0969587952A95E1F706
:100BA000982F91701092E9008091E800877F8093E0
:100BB000E8009093F1001092F100D0C0882319F062
:100BC000823009F0EDC090E08F719070009721F0B5
:100BD000029709F0E5C00CC080913D0D813009F00D
:100BE000DFC01092390D333069F58093390D2AC07A
:100BF00080913D0D882331F520913F0D277009F438
:100C0000CFC02093E9008091EB0080FF1BC0333000
:100C100021F48091EB00806213C08091EB00806131
:100C20008093EB0081E090E002C0880F991F2A9525
:100C3000E2F78093EA001092EA008091EB0088606E
:100C40008093EB001092E9008091E800877F89C0D3
:100C5000882309F0A5C010913D0D1F770FB7F894B8
:100C60008091E800877F8093E80075DC8091E80040
:100C700080FFFCCF8091E3008078812B8093E3009C
:100C800080688093E300112311F482E001C083E0C7
:100C90008EBB0FBF85C08058823008F081C0809124
:100CA0003D0D90913E0D23E08C3D920709F033C03D
:100CB00083E08C838AE28B837FB7F894DE011596FC
:100CC0006EE040E050E011E2E62FF0E010935700B4
:100CD000849140FF03C082958F706F5F8F70282FC3
:100CE00030E08A3018F0C901C79602C0C901C09629
:100CF0008D939D934F5F5F4F4431510529F77FBF1F
:100D00008091E800877F8093E800CE0103966AE235
:100D100070E093DD12C060913F0DAE014F5F5F4FF9
:100D200039DBBC01009709F43BC08091E800877F64
:100D30008093E80089819A811BDE8091E8008B779F
:100D40008093E8002DC0803859F58091E800877FB6
:100D50008093E8008091370D8093F1008091E80046
:100D60008E778093E800F7DB1BC08823C9F490914D
:100D70003D0D9230A8F48091E800877F8093E800D1
:100D80009093370DE8DB8091370D882331F4809103
:100D9000E30087FD02C081E001C084E08EBB5ADA27
:100DA0008091E80083FF0AC08091EB00806280930D
:100DB000EB008091E800877F8093E800AC960FB647
:100DC000F894DEBF0FBECDBFCF91DF911F910F9181
:100DD000089508951F938EB3882361F01091E90060
:100DE0001092E9008091E80083FF01C072DE177065
:100DF0001093E9001F9108954F925F926F927F9236
:100E00008F929F92AF92BF92CF92DF92EF92FF921A
:100E10000F931F93DF93CF9300D00F92CDB7DEB720
:100E20007C016DB67EB68EB3843009F085C0F701C3
:100E300081818093E9008091E80085FF7DC05DB6E7
:100E40004EB647818DB79EB7841B91090FB6F894B3
:100E50009EBF0FBE8DBF0DB71EB70F5F1F4F19820C
:100E60001B821A82C02E912EC80160E070E050E013
:100E700004D2C701BE016F5F7F4F40E098018E0131
:100E80000E5F1F4FA9D9882EF70181859285892B86
:100E900019F4AA24BB240BC020E0F70183859485B4
:100EA000892B09F021E081E02827A22EBB24F7013D
:100EB000058116810115110511F4DD2412C04A8146
:100EC0005B818C2D992DB801C2D1DD24009711F0E2
:100ED000DD24D394F7014781C8016C2D792D50E0B2
:100EE000C3D18A819B81892BF9F0882021F4DD20F0
:100EF00011F4AB28C9F0F701818592859487838727
:100F000081818093E9008981882311F08093F10029
:100F10006A817B818C2D992D40E050E088DD8091A5
:100F2000E8008E778093E800852D942D9C010FB604
:100F3000F8943EBF0FBE2DBF0FB6F8947EBE0FBE15
:100F40006DBE0F900F900F90CF91DF911F910F9179
:100F5000FF90EF90DF90CF90BF90AF909F908F90D9
:100F60007F906F905F904F900895CF93DF93DC0157
:100F70000896FC0185E0EF0119928A95E9F781E076
:100F800018968C93189784EF91E01A969C938E9301
:100F9000199711963C91119712966D917C91139728
:100FA00014968C91882311F440E001C044E020E0C5
:100FB00088E090E003C02F5F880F991F861797077E
:100FC000D0F342602295207F422B832F61ECB0DA70
:100FD000811181E0DF91CF9108956F927F928F927E
:100FE0009F92AF92BF92CF92DF92EF92FF920F93B8
:100FF0001F93DF93CF9300D00F92CDB7DEB76C0174
:101000006DB67EB68091E80083FF0AC1F60180814B
:1010100090E020913F0D3091400D2817390709F0DD
:10102000FFC080913C0D833009F4AAC0843030F4B5
:10103000813071F0823009F0F3C0DAC08A3009F4EF
:10104000BFC08B3009F4A9C0893009F0E9C055C090
:1010500080913B0D813A09F0E3C09DB68EB61B82AC
:101060001A8280913D0D10913E0D8983F6014781D2
:101070008DB79EB7841B91090FB6F8949EBF0FBE23
:101080008DBFEDB6FEB60894E11CF11CBE2CAF2C52
:10109000C70160E070E050E0F0D01150C601BE0121
:1010A0006F5F7F4F412F97018E010E5F1F4F94D8C6
:1010B000F601258136812115310529F04781C901C5
:1010C000B70150E0D1D01092E9008091E800877F0D
:1010D0008093E8006A817B818B2D9A2DAEDB809115
:1010E000E8008B778093E800292D382DC9010FB6D1
:1010F000F8949EBF0FBE8DBF93C080913B0D81328F
:1011000009F08EC09DB68EB60091410D1091420D32
:10111000A0903D0DB0903E0D8DB79EB7801B910BFA
:101120000FB6F8949EBF0FBE8DBFEDB6FEB6089405
:10113000E11CF11C8091E800877F8093E800C701E3
:10114000B801D7DB8091E8008E778093E80080E0DB
:1011500090E0AA2011F081E090E0BA94E80EF91E28
:10116000081B190BC6016A2D4B2D970134D8892D08
:10117000982D9C010FB6F8943EBF0FBE2DBF50C0F6
:1011800080913B0D813A09F04BC08091E800877F48
:101190008093E800F60180853BC080913B0D813251
:1011A00009F03EC08091E800877F8093E800D3D9A2
:1011B00090E080913D0D811191E0F601908730C063
:1011C00080913B0D813261F58091E800877F8093AB
:1011D000E800C1D980913D0D90913E0D807076E080
:1011E000969587957A95E1F7F6019287818718C0E1
:1011F00080913B0D813AA1F48091E800877F809334
:10120000E800F60181859285969587959695879554
:101210008093F1008091E8008E778093E8009BD95D
:101220000FB6F8947EBE0FBE6DBE0F900F900F905C
:10123000CF91DF911F910F91FF90EF90DF90CF90B2
:10124000BF90AF909F908F907F906F900895FB011B
:10125000DC0104C08D910190801921F4415050406F
:10126000C8F7881B990B0895FB01DC0102C00190AF
:101270000D9241505040D8F70895DC0101C06D93A4
:0C12800041505040E0F70895F894FFCF73
:10128C0000010800012F0D0800000000002F0D01C7
:06129C000204081020000E
:00000001FF
