:1000000047C092C060C005C35EC05DC05CC05BC03D
:100010005AC059C058C057C056C056C054C053C02B
:10002000CAC051C0CCC3F9C34EC04DC04CC04BC0B8
:100030004AC049C095C0ABC0AAC099C096C097C07D
:1000400096C095C097C093C092C0A1C0A0C09FC0E9
:100050009EC09DC09CC08BC08AC0F7C0FDC0FEC0C2
:100060005EC184C1CCC1FFC190C297C1ABC18DC27A
:100070008CC28BC28AC289C288C270C279C20D0A80
:1000800044433A0053746172747570000D0A0000A5
:1000900011241FBECFEFD2E0DEBFCDBF11E0A0E044
:1000A000B1E0E6E9FBE002C005900D92AC31B1078A
:1000B000D9F711E0ACE1B1E001C01D92AA39B10756
:1000C000E1F735D466C59CCF1F920F920FB60F9201
:1000D00011248F939F93AF93BF9380911C01893F0D
:1000E000A9F480911D0190911E01A0911F01B09172
:1000F00020010196A11DB11D80931D0190931E0149
:10010000A0931F01B093200110921C0180911C014B
:100110008F5F80931C01BF91AF919F918F910F9042
:100120000FBE0F901F9018951F920F920FB60F924F
:1001300011242F938F939F93EF93FF9380916601E8
:1001400090917001811103C0529A5A9882E0E89808
:10015000E92FF0E0E331F105D0F4E65EFF4F0994BA
:100160002CEC26BDE89AE09A12C020916F012CEF8A
:1001700026BD0DC0909169009260909369009091A6
:1001800069009E7F909369009BEF96BD91E020915E
:100190006E00216020936E00A89A90937001809366
:1001A0006601FF91EF919F918F912F910F900FBE5C
:1001B0000F901F9018951F920F920FB60F92112457
:1001C000CF92DF92FF920F931F932F933F934F9302
:1001D0005F936F937F938F939F93AF93BF93EF93AF
:1001E000FF93CF93DF9300D0CDB7DEB74091660188
:1001F000209170010091850150916E0110916F0165
:1002000030916701C0909401D0909501F9B0F2FA55
:10021000FF24F0F8E89B0EC0F11006C08091690041
:1002200083608093690028E080916E008E7F8093C8
:100230006E00ABC1822F90E0FC013197E231F105F5
:1002400008F0A3C1E35DFF4F0994529A5A988BEED0
:1002500086BDE89822E0A8C152989AC0FF2029F0F4
:1002600080919301852B80939301550F09F096C1DE
:10027000809193018535C9F068F4823109F442C058
:1002800020F4813109F042C0A2C1843409F18E34D6
:10029000E9F518C0853A61F118F48436B9F518C04B
:1002A0008E3BE1F0803F91F504C051E000E025E095
:1002B00077C1409100014170342F10E051E000E01F
:1002C00024E06EC110920A0151E002E029E068C109
:1002D0008FEF80930801109209017FC140910801BE
:1002E0004170342FC12CD12C51E000E02AE058C1DC
:1002F00010928601B0ECCB2EBBE7DB2E51E000E084
:1003000026E04EC151E000E022E14AC18EE790E0D4
:100310003A834983FFD251E03A81498138C15298EA
:100320001F5F113021F0133009F038C106C041E0E1
:10033000332309F433C140E031C181E0313009F0A9
:1003400080E0F81224C1550F29F40F5F51E0083006
:1003500008F01DC1E02FF0E0E050FF4F80818523C1
:1003600031E0851330E0432F10E018C1E02FF0E0BA
:10037000E050FF4F8081852391E0851390E0F912D2
:1003800006C1550F09F00AC10F5F083008F423C1F8
:100390001092930151E023E003C1FF2039F0E02FD8
:1003A000F0E0E85FFE4F8081852B8083550F09F0D8
:1003B000F5C00F5F053009F410C1E02FF0E0E85FF1
:1003C000FE4F4FC05298B60161707727832F90E09F
:1003D000D694C7946817790711F08CE8C826550F92
:1003E00049F40F5F093008F0F8C0083011F4C092EA
:1003F000100151E0E02FF0E0E85FFE4FACC0FF20BD
:1004000039F0E02FF0E0EA57FE4F8081852B8083A2
:10041000B601617077278F2D90E0D694C794681746
:10042000790721F0E1E0CE26E0EADE26550F09F05B
:10043000B5C00F5F023089F440918801417080910E
:100440008601909187019C01207E3327122F181B73
:10045000105E342F51E027E0A3C0E02FF0E0EA5710
:10046000FE4F1082B8C05298B60161707727832F73
:1004700090E0D694C7946817790721F0F1E0CF2671
:10048000F0EADF26550F09F062C0802F8F5F8330BE
:1004900009F04FC0115009F04DC080918601909134
:1004A0008701807E9F70803A31E09307B1F020F49D
:1004B00080389140A9F508C0803C31E09307B1F045
:1004C000803E914069F51BC080917D0190917E0135
:1004D000A0917F01B09180011AC080919601909106
:1004E0009701A0919801B091990111C0809181016B
:1004F00090918201A0918301B091840108C0809104
:10050000680190916901A0916A01B0916B0180939B
:10051000890190938A01A0938B01B0938C0155C0FF
:100520001092890110928A0110928B0110928C0115
:100530004CC0082F0D3008F050C00B3039F4C60104
:1005400080959095909392018093910151E0E02FD6
:10055000F0E0EA57FE4F8081852312C05298550F74
:1005600021F40F5F51E0023090F4852F897808C0A4
:100570005298550F19F40F5F51E049F4852F887890
:1005800031E0851330E0432F09C0211107C080916D
:100590006E008E7F80936E0020E002C0223021F03A
:1005A0008FEC86BDE89AE09A209370014093660133
:1005B0000093850150936E0110936F013093670192
:1005C000D0929501C09294010AC003E0BFCF51E0E0
:1005D00000E021E1E5CF51E0E1CF51E0D8CF0F902D
:1005E0000F90DF91CF91FF91EF91BF91AF919F91CC
:1005F0008F917F916F915F914F913F912F911F91BB
:100600000F91FF90DF90CF900F900FBE0F901F9033
:1006100018951F920F920FB60F9211248F939F93EC
:10062000AF93BF931B9917C080916C0183FF13C0D8
:100630008091810190918201A0918301B091840108
:100640000196A11DB11D8093810190938201A09319
:100650008301B09384011C9917C080916C0184FFC1
:1006600013C08091680190916901A0916A01B091D5
:100670006B010196A11DB11D8093680190936901E2
:10068000A0936A01B0936B0183B180936C01BF9119
:10069000AF919F918F910F900FBE0F901F90189563
:1006A0000F931F93CF93DF9380E090E001D2823EBF
:1006B000914E09F043C000E011E0C2E0D0E0CE016D
:1006C000EBD1F80181938F012196CA30D105B9F79A
:1006D0008AE090E0EDD1BC016F5F7F4F8AE090E04F
:1006E000EBD18CE090E0E0D160937D0170937E01CE
:1006F00080937F019093800180E190E0D5D1609359
:10070000960170939701809398019093990184E1E9
:1007100090E0CAD16093810170938201809383013C
:10072000909384018CE190E0BFD160936801709355
:10073000690180936A0190936B013CC062EE71EE97
:1007400080E090E0D0D100E011E0C2E0D0E0F8011C
:1007500061918F01CE01B4D12196CA30D105B9F78C
:1007600061E070E08AE090E0BED140E050E0BA0184
:100770008CE090E0B3D140E050E0BA0180E190E03D
:10078000ADD140E050E0BA0184E190E0A7D140E073
:1007900050E0BA0188E190E0A1D161E08CE290E004
:1007A0008FD162E071E08DE290E0DF91CF911F91F7
:1007B0000F9199C1DF91CF911F910F9108951F92D1
:1007C0000F920FB60F9211242F938F939F93EF9355
:1007D000FF938091C0009091C6008871E091230141
:1007E000EF5FEF7120912201E21739F0E0932301CE
:1007F000F0E0EA5DFE4F908301C082E0909121011C
:10080000982B90932101FF91EF919F918F912F91C0
:100810000F900FBE0F901F9018951F920F920FB65A
:100820000F9211248F939F93EF93FF939091250143
:1008300080912401981769F0E0912401EF5FEF7136
:10084000E0932401F0E0EA5BFE4F80818093C600D4
:1008500005C08091C1008F7D8093C100FF91EF9111
:100860009F918F910F900FBE0F901F90189510922F
:10087000250110922401109223011092220197FF6A
:1008800004C022E02093C0009F779093C50080931E
:10089000C40088E98093C10086E08093C200089577
:1008A0009091230180912201981781F0E09122011B
:1008B000EF5FEF71E0932201F0E0EA5DFE4F2081EF
:1008C000809121011092210130E002C020E031E04E
:1008D000C9010895909125019F5F9F712091240186
:1008E0009217E1F3E92FF0E0EA5BFE4F80839093EB
:1008F00025018091C10080628093C1000895CF934B
:10090000DF93EC0101C0E6DF89918111FCCFDF911B
:10091000CF910895CF93DF93EC0101C0DBDFFE019F
:10092000219684918111FACFDF91CF910895109291
:10093000700182E080936601529880E090E0FC01B3
:10094000EA57FE4F108201968D309105C1F78091D4
:100950006900826080936900809169008E7F809336
:10096000690090E8909361001092610010926E000F
:10097000C1E0CDBB83E085BD8AB180668AB984B50C
:10098000836A84BD97BD80EC88BD84B1866084B9DC
:1009900080916F00816080936F00B09A8091800099
:1009A000816A80938000809181008B6080938100B8
:1009B00080E890E0909389008093880080EC90E03C
:1009C00090938B0080938A0085EC809364008FE382
:1009D00080937E008CE090E04ADF84E890E09ADF2C
:1009E0005FDE80916E008E7F80936E00C093680002
:1009F00085B1886185B980916B00886180936B00B7
:100A000084B1877E84B983B180936C0183B78160A0
:100A100083BF789483B7817F83BF88952FEF89E662
:100A200098E1215080409040E1F700C000006091C3
:100A30001D0170911E0180911F01909120012AE0FB
:100A400030E041E751E005D05ADF8CE890E062DF0A
:100A5000E4CFFA01CF93FF93EF932230C4F0253215
:100A6000B4F4C22F2C2F332744275527FF93EF933D
:100A70006ED0EF91FF91605D6A330CF0695D619318
:100A8000B901CA01605070408040904059F710820F
:100A90008F919F91CF912AC0F999FECF12BC81BD51
:100AA000F89A992780B50895A6E1B0E044E030C0F7
:100AB000A8E1B0E042E02CC00196272F37D035C026
:100AC000262FF999FECF1FBA12BC81BD20BD0FB6EB
:100AD000F894FA9AF99A0FBE01960895242FF1DF3F
:100AE000252FEFDF00C0ECDF272FEBCFDC01FC016F
:100AF000672F71917723E1F7329704C07C916D9352
:100B000070836291AE17BF07C8F30895DC01862F8A
:100B1000E82FF999FECF12BC05C0E1BDF89AE39524
:100B200000B40D924150C8F70895262FF999FECFD1
:100B300012BC81BDF89A815000B4021639F01FBA78
:100B400020BD0FB6F894FA9AF99A0FBE0895A1E263
:100B50001A2EAA1BBB1BFD010DC0AA1FBB1FEE1F37
:100B6000FF1FA217B307E407F50720F0A21BB30B82
:100B7000E40BF50B661F771F881F991F1A9469F7FE
:100B800060957095809590959B01AC01BD01CF015A
:060B90000895F894FFCF68
:100B9600E1E1000000000220500500007FFF001088
:0C0BA600001F322D2C0C0A020001E2E1BD
:00000001FF
