S01600006F77736C6176655F4453323432332E737265634C
S113000014C02DC02BC02AC029C028C075C026C06A
S113001025C024C023C034C221C020C01FC01EC0BC
S11300201DC01CC01BC01AC019C011241FBECFEDB7
S1130030CDBF10E0A0E6B0E0E2E3F6E002C0059038
S11300400D92A836B107D9F710E0A8E6B0E001C0D8
S11300501D92A039B107E1F78CD2E9C2D1CF1F922A
S11300600F920FB60F9211242F938F939F93909119
S1130070680080917200992319F48A9A929892E008
S11300802BB72F7B2BBF873048F48530B8F48330EF
S1130090A9F0843088F4882331F01CC0873071F0D3
S11300A08830C1F40EC02CEC22BF2BB720642BBFC8
S11300B02AB720642ABF0EC0209171002CEF22BF02
S11300C009C085B7826085BF85B78E7F85BF8BEFFA
S11300D082BF81E029B7226029BF28B7226028BFE8
S11300E080937200909368009F918F912F910F904D
S11300F00FBE0F901F9018951F920F920FB60F927C
S11301001124CF92DF92EF92FF922F933F934F935C
S11301105F936F937F938F939F93AF93BF93CF938B
S1130120DF93EF93FF937091680020917200909198
S11301307B00809170006091710030916900A09102
S11301408A00B0918B0041E0829B40E00BB606FE32
S11301500AC0442321F425B7236025BF28E049B70A
S11301604D7F49BF48C1243009F43FC0253040F4D5
S11301702230C9F02330C8F4213009F03CC10AC050
S1130180263009F47DC0263008F45CC0273009F01D
S113019032C1AAC08A9A92982BEE22BF2BB72F7B2A
S11301A02BBF22E039C18A9866C0442329F04091CC
S11301B08900482B40938900880F09F023C180915E
S11301C08900853A51F0803F09F451C1853509F021
S11301D04CC181E090E025E017C110927C00A0ECB6
S11301E0BBE781E090E026E00FC18A986F5F613041
S11301F021F0633009F008C106C071E0332309F42B
S113020003C170E001C1E42FF0E041E050E031307F
S113021011F040E050E0E417F50709F0EEC0880F54
S113022029F49F5F81E0983008F0E7C0E92FF0E0FF
S1130230E05AFF4F4081482331E0481330E0732FE8
S113024060E0E2C0C42FD0E0E92FF0E0E05AFF4FB5
S1130250E081E82341E050E0E81711F040E050E08D
S1130260C417D50709F0C9C0880F09F0CBC09F5F38
S1130270983008F403C11092890081E023E0C4C0DF
S1130280442339F0E92FF0E0E458FF4F5081582B14
S11302905083ED01C170D070E42FF0E0AD015695AC
S11302A04795CE17DF0729F0A1E0B0EAA427B527C8
S11302B001C0DA01880F09F0A7C09F5F923069F48A
S11302C030917E00317080917C00682F607E681BC5
S11302D0605E732F81E027E097C0E92FF0E0E458D7
S11302E0FF4F108281E090C08A98FD01E170F070A8
S11302F0C32FD0E0AD0156954795EC17FD0729F0C3
S1130300A1E0B0EAA427B52701C0DA01880F09F0FB
S113031067C0892F8F5F833009F054C0615009F0A2
S113032052C080917C0090917D00807E9F7031E06E
S1130330803A9307D9F031E0813A930728F431E009
S113034080389307B1F509C031E0803C9307B9F0D8
S113035031E0803E930769F51BC0C0907300D090D4
S11303607400E0907500F09076001AC0C0908C0084
S1130370D0908D00E0908E00F0908F0011C0C0905E
S11303807700D0907800E0907900F0907A0008C06F
S1130390C0906A00D0906B00E0906C00F0906D000B
S11303A0C0927F00D0928000E0928100F09282009F
S11303B05AC010927F001092800010928100109217
S11303C0820051C0982F9D3008F04FC09B3039F403
S11303D0AD0140955095509388004093870081E08B
S11303E0E92FF0E0E458FF4F4081482331E04813FF
S11303F030E0732F09C0222329F429B72D7F29BFA8
S113040020E002C0223041F04FEC42BF4BB74064C1
S11304104BBF4AB740644ABF209372007093680090
S113042090937B0080937000609371003093690017
S1130430B0938B00A0938A00FF91EF91DF91CF914D
S1130440BF91AF919F918F917F916F915F914F91E8
S11304503F912F91FF90EF90DF90CF900F900FBEC0
S11304600F901F90189593E0BACF81E0C6CF31E08A
S113047060E081E090E024E071E0C6CF81E0C2CF8B
S11304801F920F920FB60F9211248F939F93AF93E5
S1130490BF93B19917C080916E0081FF13C0809102
S11304A0730090917400A0917500B091760001964C
S11304B0A11DB11D8093730090937400A0937500E7
S11304C0B0937600B29917C080916E0082FF13C07A
S11304D080918C0090918D00A0918E00B0918F003E
S11304E00196A11DB11D80938C0090938D00A09363
S11304F08E00B0938F00B39917C080916E0083FF74
S113050013C08091770090917800A0917900B09108
S11305107A000196A11DB11D809377009093780015
S1130520A0937900B0937A00B49917C080916E00BB
S113053084FF13C080916A0090916B00A0916C00BD
S1130540B0916D000196A11DB11D80936A00909336
S11305506B00A0936C00B0936D0086B380936E0023
S1130560BF91AF919F918F910F900FBE0F901F90ED
S113057018951092720082E0809368008A9880E057
S113058090E0FC01E458FF4F108201968D309105F4
S1130590C1F781E090E0A0E0B0E080937300909315
S11305A07400A0937500B093760082E090E0A0E020
S11305B0B0E080938C0090938D00A0938E00B09354
S11305C08F0083E090E0A0E0B0E080937700909308
S11305D07800A0937900B0937A0084E090E0A0E0E2
S11305E0B0E080936A0090936B00A0936C00B0938A
S11305F06D0085B7826085BF85B78E7F85BF80E833
S113060086BD16BC19BE80E48BBF83E083BF89B767
S11306108D7F89BF8BB780628BBF8EE180BD87B32E
S1130620817E87BB86B380936E007894FFCFF89465
S1050630FFCFF6
S10B06321DA2D984000013F499
S9030000FC
