:10000000A6C00000C1C00000BFC00000BDC000000D
:10001000BBC00000B9C00000B7C00000B5C0000000
:10002000B3C00000B1C00000CBC20000ADC00000F2
:10003000ABC00000A9C00000A7C00000A5C0000020
:10004000A3C00000A1C000009FC000009DC0000030
:100050009BC000009AC0000097C0000095C000003F
:1000600093C0000091C000008FC000008DC0000050
:100070008BC0000089C0000087C0000085C0000060
:1000800083C0000081C000007FC000007DC0000070
:100090007BC0000079C000001201100100000008C0
:1000A000EB03482001000102000109026500020182
:1000B00000C0320904000000010100000924010011
:1000C00001090001010904010002010300000724E5
:1000D000010001410006240201010006240202027F
:1000E00000092403010301020100092403020401A1
:1000F0000101000905010240000100000525010180
:1001000001090582024000010000052501010304E8
:1001100003090418034400650061006E00200043D9
:100120000061006D0065007200610000001E034C5C
:100130000055004600410020004D004900440049A0
:10014000002000440065006D006F000000001124D5
:100150001FBECFEFD0E2DEBFCDBF12E0A0E0B1E026
:10016000EEEAFDE000E00BBF02C007900D92AA305E
:10017000B107D9F712E0AAE0B2E001C01D92A433A2
:10018000B107E1F7A4D011C63BCF1F920F920FB673
:100190000F920BB60F9211242F933F934F935F93BF
:1001A0006F937F938F939F93AF93BF93CF93DF937F
:1001B000EF93FF93CBE0D2E060E070E0888188238A
:1001C000B9F02D813E814F815885E885F0E0E75FE9
:1001D000FE4F8081680F711D89819A81AB81BC813E
:1001E000820F931FA41FB51F8D839E83AF83B88793
:1001F0002A9682E0C932D80709F7CB016F3F710513
:1002000019F010F08FEF90E0909399008093980090
:10021000FF91EF91DF91CF91BF91AF919F918F911E
:100220007F916F915F914F913F912F910F900BBEF6
:100230000F900FBE0F901F9018958BB18F70806A32
:100240008BB93E9A08958BB18F7080618BB91092F3
:100250000B021092150210921F023E980895089505
:1002600080E091E04CD580FD02C090E901C090E6AD
:100270008BB18F70982B9BB9089584B7877F84BF0B
:1002800088E10FB6F89480936000109260000FBE72
:1002900090E080E80FB6F89480936100909361003D
:1002A0000FBE8AB1806F8AB98BB18F708BB972D152
:1002B00092E090936E0080E487BD94BD95BD3E9A18
:1002C00082EC8093900089E0809391000895DF9202
:1002D000EF92FF920F931F93DF93CF9300D000D044
:1002E000CDB7DEB7CADF8BB18F7080618BB97894E0
:1002F0007E010894E11CF11C8AE0D82E80E091E098
:10030000B701C1D4882309F466C089818F70893010
:1003100009F044C08A8190E08F709070892B09F0B9
:100320005AC0EAE0F2E08F0120E08181882331F4B5
:100330002D9D80011124065F1D4F0CC09081D801B6
:100340008C91981708F08F019F5F90832F5F3A96EA
:10035000233059F76B81F801618370E0655170407B
:10036000882777FD8095982F26EB36EF4CE251E0F9
:10037000FDD462567D4E834E9E4FD80112966D93EA
:100380007D938D939C931597F801168217821086A2
:10039000118610828BB18F7080611CC08830D9F4B7
:1003A0008A8190E08F709070892BA9F42B81EBE00B
:1003B000F2E090E08081821711F4108202C0811176
:1003C00091E03A9682E0E932F807A1F7992319F40F
:1003D0008BB18F708BB980E091E08AD442D48ECFFC
:1003E000DA01923049F0933061F09130F9F4E8E9A4
:1003F000F0E022E130E01EC0EAEAF0E025E630E07D
:1004000019C0813049F0813018F0823079F408C089
:10041000EFE0F1E0849107C0E3E1F1E0849103C0F3
:10042000EDE2F1E08491282F30E004C0E0E0F0E05C
:1004300020E030E0ED93FC93C90108958093E9003A
:100440008091EB0081608093EB001092ED0060934F
:10045000EC004093ED008091EE00881F8827881FF4
:10046000089580912C0288238CF403C08EB38823D6
:10047000B1F08091E80082FFF9CF8091E8008B779E
:100480008093E80008958EB3882349F08091E800B6
:1004900080FFF9CF8091E8008E778093E80008957F
:1004A0004091E4005091E50024E68091EC008078D2
:1004B000803829F48091E80080FF05C021C0809138
:1004C000E80082FD1DC08EB3882311F482E00895F8
:1004D000853011F483E008958091EB0085FF02C020
:1004E00081E008958091E4009091E50084179507DC
:1004F000E1F2222311F484E008952150AC01D5CF1C
:1005000080E00895EF92FF920F931F934CD053D049
:1005100008ED10E0F80180818F778083808180680A
:10052000808380818F7D8083E7EDF0E0808180682B
:10053000808319BC1EBA1092280210922A021092CF
:10054000290280EEE82EF12CF70180818B7F8083D9
:10055000F80180818160808380E060E042E06EDFAE
:10056000E1EEF0E080818E7F8083E2EEF0E080813A
:1005700081608083808188608083F70180818E7FA5
:100580008083F8018081806180831F910F91FF90AB
:10059000EF900895E7EDF0E080818160808381E055
:1005A00080932B02AFCFE8EDF0E080818C7F8083D9
:1005B0001092E20008951092DA001092E10008957E
:1005C0001F920F920FB60F920BB60F9211242F931A
:1005D0003F934F935F936F937F938F939F93AF93CB
:1005E000BF93EF93FF938091E10082FF0AC0809157
:1005F000E20082FF06C08091E1008B7F8093E100E2
:100600002FD38091DA0080FF1BC08091D80080FF3B
:1006100017C08091DA008E7F8093DA008091D90034
:1006200080FF0BC08CE089BD8EE089BD09B400FE5F
:10063000FDCF81E08EBB01DE03C019BC1EBA03DE14
:100640008091E10080FF17C08091E20080FF13C01D
:100650008091E2008E7F8093E2008091E2008061D1
:100660008093E2008091D80080628093D80019BC0A
:1006700085E08EBBF5D28091E10084FF2CC0809193
:10068000E20084FF28C08CE089BD8EE089BD09B4FA
:1006900000FEFDCF8091D8008F7D8093D80080919F
:1006A000E1008F7E8093E1008091E2008F7E809355
:1006B000E2008091E20081608093E2008091280254
:1006C000882331F48091E30087FD02C081E001C0FE
:1006D00084E08EBBC5D28091E10083FF21C0809170
:1006E000E20083FF1DC08091E100877F8093E100DD
:1006F00082E08EBB109228028091E1008E7F809371
:10070000E1008091E2008E7F8093E2008091E20020
:1007100080618093E20080E060E042E08FDEA0D262
:10072000FF91EF91BF91AF919F918F917F916F91C9
:100730005F914F913F912F910F900BBE0F900FBE85
:100740000F901F9018959C014091320250913302F6
:100750004617570718F4F90190E03CC06115710580
:1007600011F0AB01F8CF8091E8008E778093E8001C
:1007700040E050E0F0CF8EB38823E9F18530E9F115
:100780008091E80083FF02C081E008958091E80035
:1007900082FD2BC08091E80080FF1CC02091F200F8
:1007A0003091F30007C081918093F1004150504097
:1007B0002F5F3F4F4115510519F02830310598F34F
:1007C00090E02830310509F491E08091E8008E77BF
:1007D0008093E8004115510571F6992361F605C033
:1007E0008EB3882341F0853041F08091E80082FF8C
:1007F000F7CF80E0089582E0089583E008959C019A
:1008000040913202509133024617570718F4F9010C
:1008100090E03FC06115710511F0AB01F8CF8091F8
:10082000E8008E778093E80040E050E0F0CF8EB390
:10083000882309F43FC0853009F43EC08091E80068
:1008400083FF02C081E008958091E80082FD2CC002
:100850008091E80080FF1DC02091F2003091F300EC
:1008600008C084918093F1003196415050402F5F31
:100870003F4F4115510519F02830310590F390E0B4
:100880002830310509F491E08091E8008E7780935B
:10089000E8004115510559F6992349F605C08EB374
:1008A000882341F0853041F08091E80082FFF7CF46
:1008B00080E0089582E0089583E00895BF92CF928A
:1008C000DF92EF92FF920F931F93CF93DF93182F36
:1008D000092F7B016A01E4DDB82E8823B1F5812F51
:1008E000902F9C01E901C114D10439F0F6018081F7
:1008F0009181E81AF90AC80FD91F00E010E022C060
:100900008091E80085FD16C08091E8008B77809388
:10091000E800C114D10449F0F60180819181800F73
:10092000911F9183808385E011C09BD1B9DD88231D
:1009300049F00CC08091F10089930894E108F10816
:100940000F5F1F4FE114F104D9F68B2DDF91CF918A
:100950001F910F91FF90EF90DF90CF90BF9008957F
:100960000F931F93DF93CF93CDB7DEB7AC970FB63E
:10097000F894DEBF0FBECDBF8091F10080932C02B2
:100980008091F10080932D028091F1009091F1000F
:10099000EEE2F2E080932E0290932F028091F1001C
:1009A0009091F1008093300293838091F1009091B7
:1009B000F10080933202958352DC8091E80083FF3E
:1009C00036C180912C0230912D02353009F487C058
:1009D000363040F43130C9F1313070F0333009F045
:1009E00026C133C0383009F4F5C0393009F404C1E8
:1009F000363009F01CC196C0803821F0823809F0E9
:100A000016C108C09091290280912A02882399F08A
:100A1000926011C08091300287708093E9008091CC
:100A2000EB0090E025E0969587952A95E1F7982FC1
:100A300091701092E9008091E800877F8093E80030
:100A40009093F1001092F100D0C0882319F0823009
:100A500009F0EDC090E08F719070009721F002973F
:100A600009F0E5C00CC080912E02813009F0DFC092
:100A700010922A02333069F580932A022AC08091AD
:100A80002E02882331F520913002277009F4CFC05F
:100A90002093E9008091EB0080FF1BC0333021F4EC
:100AA0008091EB00806213C08091EB0080618093A5
:100AB000EB0081E090E002C0880F991F2A95E2F7D1
:100AC0008093EA001092EA008091EB0088608093A6
:100AD000EB001092E9008091E800877F89C08823AD
:100AE00009F0A5C010912E021F770FB7F8948091DE
:100AF000E800877F8093E800B4DC8091E80080FF05
:100B0000FCCF8091E3008078812B8093E3008068A4
:100B10008093E300112311F482E001C083E08EBBD7
:100B20000FBF85C08058823008F081C080912E02AE
:100B300090912F0223E08C3D920709F033C083E0AF
:100B40008C838AE28B837FB7F894DE0115966EE082
:100B500040E050E011E2E62FF0E01093570084915E
:100B600040FF03C082958F706F5F8F70282F30E039
:100B70008A3018F0C901C79602C0C901C0968D938A
:100B80009D934F5F5F4F4431510529F77FBF80919F
:100B9000E800877F8093E800CE0103966AE270E068
:100BA000D2DD12C060913002AE014F5F5F4F18DCA2
:100BB000BC01009709F43BC08091E800877F8093D7
:100BC000E80089819A811BDE8091E8008B77809311
:100BD000E8002DC0803859F58091E800877F809328
:100BE000E800809128028093F1008091E8008E77E0
:100BF0008093E80036DC1BC08823C9F490912E0254
:100C00009230A8F48091E800877F8093E800909369
:100C1000280227DC80912802882331F48091E300A8
:100C200087FD02C081E001C084E08EBB19DB8091AA
:100C3000E80083FF0AC08091EB0080628093EB00A4
:100C40008091E800877F8093E800AC960FB6F89417
:100C5000DEBF0FBECDBFCF91DF911F910F910895E1
:100C600008951F938EB3882361F01091E9001092CC
:100C7000E9008091E80083FF01C072DE17701093D5
:100C8000E9001F910895FC018EB38430C1F4858181
:100C90008093E9008091E80085FF11C0CB0164E0FA
:100CA00070E040E050E00ADE8091E80085FD05C07C
:100CB0008091E8008B778093E80081E0089580E0E0
:100CC0000895FC018EB3843011F082E00895818193
:100CD0008093E9008091F2009091F300892B11F448
:100CE00080E008958091E8008E778093E800D8CB6B
:100CF0009C018EB3843011F4C901E3CF08951F9392
:100D0000CF93DF93EC0111E08981181729F46A81F0
:100D10007B818C8130E807C08D811817F9F46E81D2
:100D20007F81888530E0882311F440E001C044E0F1
:100D300020E088E090E003C02F5F880F991F86179E
:100D40009707D0F360E0311161E06068426022955E
:100D5000207F422B812F72DB882321F01F5F173009
:100D600099F681E0DF91CF911F910895629FD001A4
:100D7000739FF001829FE00DF11D649FE00DF11D56
:100D8000929FF00D839FF00D749FF00D659FF00D05
:100D90009927729FB00DE11DF91F639FB00DE11DF2
:0E0DA000F91FBD01CF0111240895F894FFCF73
:100DAE00010240000001400000808386898C8F92F2
:100DBE0095989C9FA2A5A8ABAEB0B3B6B9BCBFC167
:100DCE00C4C7C9CCCED1D3D5D8DADCDEE0E2E4E6B6
:100DDE00E8EAECEDEFF0F2F3F5F6F7F8F9FAFBFCD2
:100DEE00FCFDFEFEFFFFFFFFFFFFFFFFFFFFFFFE0D
:100DFE00FEFDFCFCFBFAF9F8F7F6F5F3F2F0EFED79
:100E0E00ECEAE8E6E4E2E0DEDCDAD8D5D3D1CECC0B
:100E1E00C9C7C4C1BFBCB9B6B3B0AEABA8A5A29F7B
:100E2E009C9895928F8C898683807C797673706D71
:100E3E006A6763605D5A5754514F4C494643403E72
:100E4E003B383633312E2C2A272523211F1D1B1903
:100E5E0017151312100F0D0C0A09080706050403C7
:100E6E00030201010000000000000000000000016C
:100E7E00010203030405060708090A0C0D0F1012E0
:100E8E00131517191B1D1F212325272A2C2E31332D
:100E9E0036383B3E404346494C4F5154575A5D609D
:0A0EAE0063676A6D707376797C004B
:00000001FF
