:1000000091C00000ACC00000AAC00000A8C0000061
:10001000A6C00000A4C00000A2C00000A0C0000054
:100020009EC000009CC00000C4C2000098C0000038
:1000300096C0000094C0000092C0000090C0000074
:100040008EC000008CC000008AC0000088C0000084
:1000500086C0000084C0000082C0000080C0000094
:100060007EC000007CC000007AC0000078C00000A4
:1000700076C0000074C0000072C0000070C00000B4
:100080006EC000006CC000006AC0000068C00000C4
:1000900066C0000064C000001201100102000008E8
:1000A000EB03442001000102DC0109023E000201D1
:1000B00000C0320904000001020201000524001002
:1000C0000104240206052406000107058203080036
:1000D000FF09040100020A000000070504021000E5
:1000E00001070583021000010403090418034400FA
:1000F000650061006E002000430061006D00650036
:100100007200610000001C034C00550046004100D5
:1001100020004300440043002000440065006D00BF
:100120006F00000011241FBECFEFD0E2DEBFCDBFB5
:1001300011E0A0E0B1E0E6E1FDE000E00BBF02C0AD
:1001400007900D92AA35B107D9F711E0AAE5B1E001
:1001500001C01D92A836B107E1F70CD1DAC550CF26
:100160008BB18F70806A8BB908958BB18F7080616D
:100170008BB9089523B19CB180915F01843009F05F
:1001800066C09095892F90E08073907095958795C3
:10019000922F9095907E982B97FD17C094FF03C0E7
:1001A00020E031E014C096FF03C020E131E00FC031
:1001B00093FF03C020E231E00AC095FF03C021E3B2
:1001C00031E005C010925A0136C024E431E080913C
:1001D0005A01882381F58091520190915301A09199
:1001E0005401B09155010097A105B10521F181E0BD
:1001F00080935A0183E08093E900F9010190002087
:10020000E9F73197E21BF30BC901BF0140E050E071
:1002100098D32091F2003091F3008091E8008E771E
:100220008093E8002031310531F431D18091E8002C
:100230008E778093E80084E08093E9008091E80065
:1002400082FF05C08091E8008B778093E8000895D5
:1002500080916101813229F0823249F1803289F541
:1002600012C080916001813A61F58091E800877F3A
:100270008093E80082E591E067E070E062D28091CF
:10028000E8008B7711C0809160018132D1F48091B8
:10029000E800877F8093E80082E591E067E070E006
:1002A000AED28091E8008E778093E8000895809127
:1002B0006001813231F48091E800877F8093E8000B
:1002C000C5C00895EF92FF920F931F9382E061ECF7
:1002D00042E087D0082F83E061E842E182D0E82E37
:1002E00084E060E842E17DD0109252011092530107
:1002F000109254011092550110E0FF240E211F218D
:100300000170107090E008231923012B11F490E97B
:1003100001C090E68BB18F70982B9BB91F910F9104
:10032000FF90EF90089584B7877F84BF88E10FB670
:10033000F89480936000109260000FBE90E080E817
:100340000FB6F89480936100909361000FBE84B162
:100350008F7184B98DB18F7C8DB985B1806E85B96F
:100360008EB180638EB98AB1806F8AB98BB18F707C
:100370008BB909C1D8DF8BB18F7080618BB978944C
:10038000F9DEB4D4FDCFDA01923049F0933061F058
:100390009130F9F4E8E9F0E022E130E01EC0EAEA49
:1003A000F0E02EE330E019C0813049F0813018F0E0
:1003B000823079F408C0E8EEF0E0849107C0ECEEFA
:1003C000F0E0849103C0E6E0F1E08491282F30E072
:1003D00004C0E0E0F0E020E030E0ED93FC93C901E0
:1003E0000895382F282F2CC02093E900231721F4DB
:1003F000762F942F50E006C07091EC009091ED00A4
:100400005091F00091FF1BC08091EB008E7F809394
:10041000EB008091ED008D7F8093ED008091EB00EB
:1004200081608093EB007093EC009093ED0050930B
:10043000F0008091EE0087FD02C080E008952F5FFC
:10044000273090F23093E90081E0089580916001B7
:1004500088239CF404C080915F018823B9F08091C7
:10046000E80082FFF8CF8091E8008B778093E80066
:10047000089580915F01882349F08091E80080FF12
:10048000F8CF8091E8008E778093E800089540913E
:10049000E4005091E50024E68091EC0080788038FB
:1004A00029F48091E80080FF05C022C08091E80017
:1004B00082FD1EC080915F01882311F482E00895BF
:1004C000853011F483E008958091EB0085FF02C030
:1004D00081E008958091E4009091E50084179507EC
:1004E000D9F2222311F484E008952150AC01D4CF35
:1004F00080E00895EF92FF920F931F934DD054D058
:1005000008ED10E0F80180818F778083808180681A
:10051000808380818F7D8083E7EDF0E0808180683B
:10052000808319BC10925F0110925B0110925D01F3
:1005300010925C0180EEE82EF12CF70180818B7F18
:100540008083F80180818160808380E060E042E008
:1005500048DFE1EEF0E080818E7F8083E2EEF0E024
:10056000808181608083808188608083F7018081C1
:100570008E7F8083F8018081806180831F910F913D
:10058000FF90EF900895E7EDF0E080818160808337
:1005900081E080935E01AECFE8EDF0E080818C7F5A
:1005A00080831092E20008951092DA001092E10028
:1005B00008951F920F920FB60F920BB60F9211244F
:1005C0002F933F934F935F936F937F938F939F935B
:1005D000AF93BF93EF93FF938091E10082FF0AC036
:1005E0008091E20082FF06C08091E1008B7F8093C2
:1005F000E1007BD38091DA0080FF1DC08091D8009C
:1006000080FF19C08091DA008E7F8093DA0080919C
:10061000D90080FF0CC08CE089BD8EE089BD09B493
:1006200000FEFDCF81E080935F019ADD04C019BC1C
:1006300010925F019ADD8091E10080FF18C08091E7
:10064000E20080FF14C08091E2008E7F8093E20080
:100650008091E20080618093E2008091D800806206
:100660008093D80019BC85E080935F013ED38091D0
:10067000E10084FF2DC08091E20084FF29C08CE05E
:1006800089BD8EE089BD09B400FEFDCF8091D80000
:100690008F7D8093D8008091E1008F7E8093E10070
:1006A0008091E2008F7E8093E2008091E200816081
:1006B0008093E20080915B01882331F48091E30014
:1006C00087FD02C081E001C084E080935F010DD30B
:1006D0008091E10083FF22C08091E20083FF1EC071
:1006E0008091E100877F8093E10082E080935F0149
:1006F00010925B018091E1008E7F8093E1008091F8
:10070000E2008E7F8093E2008091E200806180931E
:10071000E20080E060E042E064DEE7D2FF91EF912A
:10072000BF91AF919F918F917F916F915F914F9109
:100730003F912F910F900BBE0F900FBE0F901F9007
:1007400018959C0140916601509167014617570723
:1007500018F4F90190E03DC06115710511F0AB018D
:10076000F8CF8091E8008E778093E80040E050E079
:10077000F0CF80915F018823F1F18530F1F1809114
:10078000E80083FF02C081E008958091E80082FDC7
:100790002CC08091E80080FF1CC02091F2003091B5
:1007A000F30007C081918093F100415050402F5FCA
:1007B0003F4F4115510519F02830310598F390E06D
:1007C0002830310509F491E08091E8008E7780931C
:1007D000E8004115510569F6992359F606C0809144
:1007E0005F01882341F0853041F08091E80082FF6D
:1007F000F6CF80E0089582E0089583E008959C019B
:100800006115710529F48091E8008B778093E800E9
:10081000F90122C080915F01882371F1853071F167
:100820008091E80083FF02C081E008958091E80094
:1008300082FFF0CF06C08091F1008193615070403B
:1008400031F08091F2009091F300892BA1F7809113
:10085000E8008B778093E80061157105D9F606C032
:1008600080915F01882341F0853041F08091E8005C
:1008700080FFF6CF80E0089582E0089583E0089538
:100880009C0140916601509167014617570718F483
:10089000F90190E040C06115710511F0AB01F8CF8E
:1008A0008091E8008E778093E80040E050E0F0CF40
:1008B00080915F01882309F440C0853009F43FC06E
:1008C0008091E80083FF02C081E008958091E800F4
:1008D00082FD2DC08091E80080FF1DC02091F200B4
:1008E0003091F30008C084918093F100319641501B
:1008F00050402F5F3F4F4115510519F02830310509
:1009000090F390E02830310509F491E08091E800FF
:100910008E778093E8004115510551F6992341F6F1
:1009200006C080915F01882341F0853041F08091BD
:10093000E80082FFF6CF80E0089582E0089583E02A
:100940000895BF92CF92DF92EF92FF920F931F9381
:10095000CF93DF93182F092F7B016A0198DDB82E02
:100960008823B1F5812F902F9C01E901C114D10496
:1009700039F0F60180819181E81AF90AC80FD91F70
:1009800000E010E022C08091E80085FD16C0809153
:10099000E8008E778093E800C114D10449F0F60195
:1009A00080819181800F911F9183808385E011C0A8
:1009B0009DD16DDD882349F00CC089918093F100B1
:1009C0000894E108F1080F5F1F4FE114F104D9F614
:1009D0008B2DDF91CF911F910F91FF90EF90DF90C2
:1009E000CF90BF9008950F931F93DF93CF93CDB710
:1009F000DEB7AC970FB6F894DEBF0FBECDBF8091C7
:100A0000F100809360018091F100809361018091F9
:100A1000F1009091F100E2E6F1E0809362019093A1
:100A200063018091F1009091F100809364019383C0
:100A30008091F1009091F10080936601958308DC2C
:100A40008091E80083FF38C180916001309161019D
:100A5000353009F487C0363040F43130C9F13130D7
:100A600070F0333009F028C133C0383009F4F6C0D3
:100A7000393009F405C1363009F01EC197C08038FD
:100A800021F0823809F018C108C090915C01809172
:100A90005D01882399F0926011C080916401877094
:100AA0008093E9008091EB0090E025E09695879592
:100AB0002A95E1F7982F91701092E9008091E80053
:100AC000877F8093E8009093F1001092F100D1C0ED
:100AD000882319F0823009F0EFC090E08F71907098
:100AE000009721F0029709F0E7C00CC080916201E5
:100AF000813009F0E1C010925D01333069F58093D7
:100B00005D012AC080916201882331F52091640142
:100B1000277009F4D1C02093E9008091EB0080FF99
:100B20001BC0333021F48091EB00806213C08091B0
:100B3000EB0080618093EB0081E090E002C0880FC1
:100B4000991F2A95E2F78093EA001092EA008091BB
:100B5000EB0088608093EB001092E9008091E80040
:100B6000877F8AC0882309F0A7C0109162011F7790
:100B70000FB7F8948091E800877F8093E80066DCE7
:100B80008091E80080FFFCCF8091E3008078812B8A
:100B90008093E30080688093E300112311F482E0E6
:100BA00001C083E080935F010FBF86C08058823010
:100BB00008F082C0809162019091630123E08C3D36
:100BC000920709F033C083E08C838AE28B837FB77E
:100BD000F894DE0115966EE040E050E011E2E62F59
:100BE000F0E010935700849140FF03C082958F700E
:100BF0006F5F8F70282F30E08A3018F0C901C796D8
:100C000002C0C901C0968D939D934F5F5F4F4431E1
:100C1000510529F77FBF8091E800877F8093E80026
:100C2000CE0103966AE270E08CDD12C0609164012F
:100C3000AE014F5F5F4FA7DBBC01009709F43CC0DA
:100C40008091E800877F8093E80089819A8118DE8F
:100C50008091E8008B778093E8002EC0803861F5A2
:100C60008091E800877F8093E80080915B0180930A
:100C7000F1008091E8008E778093E800E7DB1CC0EC
:100C80008823D1F4909162019230B0F48091E80011
:100C9000877F8093E80090935B01D8DB80915B01B4
:100CA000882331F48091E30087FD02C081E001C018
:100CB00084E080935F0106DB8091E80083FF0AC037
:100CC0008091EB0080628093EB008091E800877F49
:100CD0008093E800AC960FB6F894DEBF0FBECDBF90
:100CE000CF91DF911F910F91089508951F938091E7
:100CF0005F01882361F01091E9001092E900809172
:100D0000E80083FF01C06FDE17701093E9001F91A8
:060D10000895F894FFCFE6
:100D16004A6F79737469636B20446F776E0D0A00AE
:100D26004A6F79737469636B204C6566740D0A00AB
:100D36004A6F79737469636B2052696768740D0A28
:100D4600004A6F79737469636B20507265737365BB
:100D5600640D0A004A6F79737469636B2055700DD0
:0A0D66000A00000000000000080071
:00000001FF
