:020000021000EC
:10F000004BC0000066C0000064C0000062C0000089
:10F0100060C000005EC000005CC000005AC000007C
:10F0200058C0000056C00000A1C1000052C000003E
:10F0300050C000004EC000004CC000004AC000009C
:10F0400048C0000046C0000044C0000042C00000AC
:10F0500040C000003EC000003CC000003AC00000BC
:10F0600038C0000036C0000034C0000032C00000CC
:10F0700030C000002EC000002CC000002AC00000DC
:10F0800028C0000026C0000024C0000022C00000EC
:10F0900020C000001EC0000011241FBECFEFD0E230
:10F0A000DEBFCDBF11E0A0E0B1E0E2E0F8EF01E0AB
:10F0B0000BBF02C007900D92AA34B107D9F711E037
:10F0C000AAE4B1E001C01D92A435B107E1F78BD0ED
:10F0D00096C396CF0F931F9380914C018F77813207
:10F0E00009F06AC080914D01893009F065C08091B6
:10F0F000E800877F8093E8008091E80082FFFCCFE2
:10F100008091F100282F8091F100382F40E050E0ED
:10F11000742F632F522F44272F5F3F4F19F4109203
:10F12000000144C083E0FA0160935B0080935700C4
:10F13000E89507B600FCFDCF10E001E08091F200F9
:10F140009091F300892B49F48091E8008B778093AC
:10F15000E8008091E80082FFFCCF8091F100282F29
:10F160008091F100382F812F90E0880F991FA0E047
:10F17000B0E0840F951FA61FB71F0901FC01A093E3
:10F180005B0000935700E89511241F5F1038B1F61B
:10F1900085E0FA0160935B0080935700E89507B61D
:10F1A00000FCFDCF81E180935700E8958091E80055
:10F1B0008B778093E80061D01F910F91089581E0D3
:10F1C00061EC42E347C084B7877F84BF88E10FB614
:10F1D000F89480936000109260000FBE81E085BFBC
:10F1E00082E085BFADC0EFDF789401C0F6D2809198
:10F1F00000018823D9F78091E00081608093E000CE
:10F200002CE088E190E00FB6F894A8958093600018
:10F210000FBE20936000FFCFFA01913029F486E100
:10F2200091E022E130E012C0923029F488E291E0CE
:10F2300022E230E00BC0913229F081E091E025E13B
:10F2400030E004C08AE391E029E030E091838083DC
:10F25000C90108958093E9008091EB00816080935B
:10F26000EB001092ED006093EC004093ED00809174
:10F27000EE00881F8827881F089580914C018823FD
:10F280008CF403C08EB38823B1F08091E80082FF34
:10F29000F9CF8091E8008B778093E80008958EB3D2
:10F2A000882349F08091E80080FFF9CF8091E80041
:10F2B0008E778093E8000895EF92FF920F931F934B
:10F2C00048D04FD008ED10E0F80180818F7780831F
:10F2D00080818068808380818F7D8083E7EDF0E08E
:10F2E00080818068808319BC1EBA10924A0180EE2A
:10F2F000E82EF12CF70180818B7F8083F8018081DB
:10F300008160808380E060E042E0A4DFE1EEF0E035
:10F3100080818E7F8083E2EEF0E080818160808357
:10F32000808188608083F70180818E7F8083F801EF
:10F330008081806180831F910F91FF90EF900895ED
:10F34000E7EDF0E080818160808381E080934B0174
:10F35000B3CFE8EDF0E080818C7F80831092E200F3
:10F3600008951092DA001092E10008951F920F9212
:10F370000FB60F920BB60F9211242F933F934F931A
:10F380005F936F937F938F939F93AF93BF93EF930D
:10F39000FF938091DA0080FF1BC08091D80080FF2E
:10F3A00017C08091DA008E7F8093DA008091D900B7
:10F3B00080FF0BC08CE089BD8EE089BD09B400FEE2
:10F3C000FDCF81E08EBB08D203C019BC1EBA04D2A7
:10F3D0008091E10080FF17C08091E20080FF13C0A0
:10F3E0008091E2008E7F8093E2008091E200806154
:10F3F0008093E2008091D80080628093D80019BC8D
:10F4000085E08EBBE9D18091E10084FF2CC0809122
:10F41000E20084FF28C08CE089BD8EE089BD09B47C
:10F4200000FEFDCF8091D8008F7D8093D800809121
:10F43000E1008F7E8093E1008091E2008F7E8093D7
:10F44000E2008091E20081608093E20080914A01B5
:10F45000882331F48091E30087FD02C081E001C080
:10F4600084E08EBBB9D18091E10083FF21C08091FF
:10F47000E20083FF1DC08091E100877F8093E1005F
:10F4800082E08EBB10924A018091E1008E7F8093D2
:10F49000E1008091E2008E7F8093E2008091E200A3
:10F4A00080618093E20080E060E042E0D3DE94D1AE
:10F4B000FF91EF91BF91AF919F918F917F916F914C
:10F4C0005F914F913F912F910F900BBE0F900FBE08
:10F4D0000F901F9018959C0140915201509153013B
:10F4E0004617570718F4F90190E03CC06115710503
:10F4F00011F0AB01F8CF8091E8008E778093E8009F
:10F5000040E050E0F0CF8EB38823E9F18530E9F197
:10F510008091E80083FF02C081E008958091E800B7
:10F5200082FD2BC08091E80080FF1CC02091F2007A
:10F530003091F30007C081918093F1004150504019
:10F540002F5F3F4F4115510519F02830310598F3D1
:10F5500090E02830310509F491E08091E8008E7741
:10F560008093E8004115510571F6992361F605C0B5
:10F570008EB3882341F0853041F08091E80082FF0E
:10F58000F7CF80E0089582E0089583E008950F9317
:10F590001F93DF93CF9300D0CDB7DEB78091F100FA
:10F5A00080934C018091F10080934D018091F10096
:10F5B0009091F100EEE4F1E080934E0190934F01C1
:10F5C0008091F1009091F10080935001938380919C
:10F5D000F1009091F1008093520195837BDD809141
:10F5E000E80083FFE4C080914C0190914D0195307B
:10F5F00009F46DC0963040F4913081F1913070F093
:10F60000933009F0D4C02AC0983009F4A3C09930CF
:10F6100009F4B2C0963009F0CAC07CC0803809F441
:10F62000C6C0823809F0C3C08091500187708093B2
:10F63000E9008091EB001092E9002091E800277F1B
:10F640002093E80090E025E0969587952A95E1F7CC
:10F6500081708093F1001092F10087C0882319F027
:10F66000823009F0A4C08F71823009F0A0C080916F
:10F670004E01882331F520915001277009F497C07D
:10F680002093E9008091EB0080FF1BC0933021F4B0
:10F690008091EB00806213C08091EB0080618093C9
:10F6A000EB0081E090E002C0880F991F2A95E2F7F5
:10F6B0008093EA001092EA008091EB0088608093CA
:10F6C000EB001092E9008091E800877F51C0882309
:10F6D00009F06DC010914E011F770FB7F89480911B
:10F6E000E800877F8093E800C8DD8091E80080FF14
:10F6F000FCCF8091E3008078812B8093E3008068C9
:10F700008093E300112311F482E001C083E08EBBFB
:10F710000FBF4DC08058823008F049C080914E0123
:10F7200090914F0160915001AE014F5F5F4F74DDCA
:10F73000BC01009709F43BC08091E800877F80936B
:10F74000E80089819A81C7DE8091E8008B778093F9
:10F75000E8002DC0803859F58091E800877F8093BC
:10F76000E80080914A018093F1008091E8008E7753
:10F770008093E80082DD1BC08823C9F490914E017C
:10F780009230A8F48091E800877F8093E8009093FE
:10F790004A0173DD80914A01882331F48091E300AE
:10F7A00087FD02C081E001C084E08EBB08DD80914E
:10F7B000E80083FF0AC08091EB0080628093EB0039
:10F7C0008091E800877F8093E8000F900F90CF91A1
:10F7D000DF911F910F91089508951F938EB3882391
:10F7E00061F01091E9001092E9008091E80083FF38
:10F7F00001C0CDDE17701093E9001F910895F894B1
:02F80000FFCF38
:10F802000106DCFF09FBA1010902150025FF7508AD
:10F812009602019102C01201100100000008EB03E0
:10F82200672001000000000109022200010100809E
:10F832003209040000010300000009211101000146
:0AF8420022150007058103400001B4
:040000031000F000F9
:00000001FF
