:1000000026C2000042C2000040C200003EC2000002
:100010003CC200003AC2000038C2000036C20000F4
:1000200034C2000032C200000C94490C2EC2000001
:100030002CC200002AC2000028C2000026C2000014
:1000400024C2000022C2000020C200001EC2000024
:100050001CC200001AC2000018C2000016C2000034
:1000600014C2000012C2000010C200000EC2000044
:100070000CC200000AC2000008C2000006C2000054
:1000800004C2000002C2000000C20000FEC1000065
:10009000FCC10000FAC1000020202D2D2045727205
:1000A0006F7220436F64653A2025641B5B33376DA4
:1000B000001B5B33316D436F6D6D616E6420657243
:1000C000726F7220282553292E0D0A001B5B3331D5
:1000D0006D5343534920636F6D6D616E642065728B
:1000E000726F7220282553292E0D0A005265616413
:1000F0002044657669636520426C6F636B000D0A6E
:100100000D0A507265737320626F617264206275AC
:1001100074746F6E20746F207265616420656E74F4
:1001200069726520415343494920636F6E74656E5F
:100130007473206F66206469736B2E2E2E0D0A0D6A
:100140000A000D0A002020202000252E3258200011
:100150000D0A436F6E74656E7473206F6620666956
:1001600072737420626C6F636B3A0D0A00526561A2
:10017000642044657669636520426C6F636B00257B
:100180006C7520626C6F636B73206F6620256C75D5
:100190002062797465732E0D0A00526561642043F4
:1001A00061706163697479000D0A526574726965E2
:1001B00076696E672043617061636974792E2E2EB3
:1001C00020005465737420556E6974205265616413
:1001D000790057616974696E6720756E74696C2067
:1001E00072656164792E2E0056656E646F722022EE
:1001F000252E3873222C2050726F64756374202270
:10020000252E313673220D0A00496E717569727997
:100210000050726576656E742F416C6C6F77204D5F
:10022000656469756D2052656D6F76616C0052650D
:1002300071756573742053656E7365004D617373DA
:100240002053746F72616765205265736574005442
:100250006F74616C204C554E733A202564202D201C
:100260005573696E67206669727374204C554E2011
:10027000696E206465766963652E0D0A00476574B2
:10028000204D6178204C554E001B5B33316D446529
:100290007620456E756D204572726F720D0A202DA5
:1002A0002D204572726F7220436F64652025640DA6
:1002B0000A202D2D20537562204572726F722043E3
:1002C0006F64652025640D0A202D2D20496E205372
:1002D000746174652025640D0A1B5B33376D001B48
:1002E0005B33316D486F7374204D6F6465204572C8
:1002F000726F720D0A202D2D204572726F7220438D
:100300006F64652025640D0A1B5B33376D004D61FA
:1003100073732053746F72616765204469736B2037
:10032000456E756D6572617465642E0D0A001B5B08
:1003300033316D436F6E74726F6C204572726F72E1
:10034000202853657420436F6E6669677572617407
:10035000696F6E292E0D0A202D2D204572726F7245
:1003600020436F64653A2025640D0A1B5B33376DAB
:1003700000202D2D204572726F7220436F64653A04
:100380002025640D0A1B5B33376D001B5B33316D19
:10039000496E76616C6964204465766963652E0DEB
:1003A0000A001B5B33316D436F6E74726F6C2045B6
:1003B00072726F72202847657420436F6E6669679A
:1003C00075726174696F6E292E0D0A004765747429
:1003D000696E6720436F6E66696720446174612EA1
:1003E0000D0A001B5B33326D0D0A44657669636547
:1003F00020556E61747461636865642E0D0A1B5B21
:1004000033376D001B5B33326D446576696365205D
:1004100041747461636865642E0D0A1B5B33376D2C
:10042000001B5B33366D4D6173732053746F7261C3
:10043000676520486F73742044656D6F2072756E18
:100440006E696E672E0D0A1B5B33376D0000112439
:100450001FBECFEFD0E2DEBFCDBF11E0A0E0B1E024
:10046000EAEFF5E200E00BBF02C007900D92A63262
:10047000B107D9F711E0A6E2B1E001C01D92A9349D
:10048000B107E1F737D30C94FB12BACD1F939C014F
:10049000162F603C79F400D000D08CEC90E0ADB722
:1004A000BEB712969C938E93119714963C932E93FD
:1004B000139719C000D000D081EB90E0EDB7FEB7E4
:1004C00092838183348323830E943410EDB7FEB777
:1004D000319688E990E0ADB7BEB712969C938E93A3
:1004E0001197128313820E9434100F900F900F9077
:1004F0000F908091A90080648093A9008BB18F70C8
:1005000080698BB91F910895909134012DB73EB742
:10051000285030400FB6F8943EBF0FBE2DBFEDB748
:10052000FEB7319629E832E0ADB7BEB712963C93DC
:100530002E93119782831382648315829683178288
:100540000E9434108BB18F7080698BB92DB73EB784
:10055000285F3F4F0FB6F8943EBF0FBE2DBF0895E2
:1005600083EE93E00E9456108BB18F7080618BB93F
:10057000089584E094E00E9456108BB18F70806AD9
:100580008BB908952F923F924F925F926F927F9214
:100590008F929F92AF92BF92CF92DF92EF92FF9293
:1005A0000F931F93DF93CF93CDB7DEB7C054D040E6
:1005B0000FB6F894DEBF0FBECDBF2DB63EB62FAE40
:1005C0009EB721969FAF2197809134018B3009F01F
:1005D000B5C18BB18F7080628BB989E291E043D64F
:1005E000682F882319F08DE792E05FC100D000D01A
:1005F0008FE492E0ADB7BEB712969C938E9311979D
:100600008091290190E0019614969C938E93139704
:100610000E9434100F900F900F900F9040D6682FCB
:10062000882319F08CE392E040C180E0BE01675F4F
:100630007F4F91D5682F882319F08EE292E035C163
:1006400080E061E04BD4682F882319F081E192E0CB
:100650002CC180E0BE01655E7F4FC1D5682F882325
:1006600019F089E092E021C100D000D000D0EDB7B0
:10067000FEB7319688EE91E0ADB7BEB712969C9367
:100680008E931197CE01839693838283CE018B96AE
:10069000958384830E943410EDB7FEB736960FB66B
:1006A000F894FEBF0FBEEDBF82ED91E00E945610A0
:1006B0001EE28091C80085FFFCCF1093CE00809190
:1006C0003401813051F080E09CD4682F882329F0D8
:1006D000803C79F382EC91E0E8C088EA91E00E94E6
:1006E000561080E0BE016F5F7F4F33D4682F8823A0
:1006F00019F08AE991E0D9C08DB79EB70A970FB675
:10070000F8949EBF0FBE8DBFEDB7FEB731968FE751
:1007100091E0ADB7BEB712969C938E9311978981E5
:100720009A81AB81BC8182839383A483B5838D81BD
:100730009E81AF81B88586839783A087B1870E9409
:100740003410EDB7FEB73A960FB6F894FEBF0FBE61
:10075000EDBF0D811E818DB79EB7801B910B0FB62B
:10076000F8949EBF0FBE8DBF8DB69EB60894811CB7
:10077000911C240180E040E050E060E070E021E066
:10078000740179D4682F882319F08DE691E08DC02B
:1007900080E591E00E945610AA24BB24EAE46E2E64
:1007A000E1E07E2E4EC0650174E0CC0CDD1C7A9534
:1007B000E1F7C80CD91C00E010E000D000D0EDB784
:1007C000FEB73196ADB7BEB712967C926E92119776
:1007D000D601A00FB11F8C91828313820E94341026
:1007E0000F5F1F4F0F900F900F900F90003111056A
:1007F00021F785E491E00E945610EE24FF24F601D3
:10080000EE0DFF1D8081082F10E0C8010E9402102C
:10081000892B11F40EE210E06091450170914601C0
:10082000C8010E9408100894E11CF11CB0E1EB160D
:10083000F10429F782E491E00E9456100894A11C6B
:10084000B11C950140E050E08D819E81AF81B8855B
:1008500064E0B695A795979587956A95D1F728177F
:1008600039074A075B0708F49ECF8EEF90E00E949D
:10087000561005C080913401813009F45FC062993F
:10088000F9CFAA24BB2465013DC00D811E8180E003
:10089000B601A50121E07201EED3682F882319F477
:1008A000EE24FF241EC08CEE90E0F0DD80E00E947C
:1008B0008C0F44C0F401EE0DFF1D8081082F10E065
:1008C000C8010E940210892B11F40EE210E0609121
:1008D000450170914601C8010E9408100894E11C6E
:1008E000F11C970140E050E08D819E81AF81B88579
:1008F000281739074A075B07E8F20894A11CB11CC6
:10090000C11CD11C89819A81AB81BC81A816B90612
:10091000CA06DB0608F4B9CF8BB18F7080668BB93D
:1009200080E00E948C0F2FAD21963FAD2197C90129
:100930000FB6F8949EBF0FBE8DBF0AC08FAD219633
:100940009FAD21979C010FB6F8943EBF0FBE2DBFFF
:100950000FB6F8943EBE0FBE2DBEC05CDF4F0FB683
:10096000F894DEBF0FBECDBFCF91DF911F910F91E5
:10097000FF90EF90DF90CF90BF90AF909F908F90BF
:100980007F906F905F904F903F902F9008951F93AE
:10099000182F5AD700D000D0EDB7FEB731968FEDA3
:1009A00092E0ADB7BEB712969C938E9311971283C7
:1009B00013820E9434108BB18F7080698BB90F90B5
:1009C0000F900F900F90FFCF1F938CEC93E00E943D
:1009D0005610BFD0182F8823C1F0813019F482EA55
:1009E00093E002C08BE893E00E94561000D000D044
:1009F000EDB7FEB7319681E793E0ADB7BEB712967B
:100A00009C938E931197128314C081E00E948C0FE7
:100A1000282F8823D1F000D000D0EDB7FEB7319653
:100A20008EE293E0ADB7BEB712969C938E9311976A
:100A3000228313820E9434108BB18F7080698BB92E
:100A40000F900F900F900F9008C08EE093E00E94DF
:100A500056108BB18F7080668BB91F91089584B743
:100A6000877F84BF28E10FB6F8942093600010922E
:100A700060000FBE90E080E80FB6F89480936100AC
:100A8000909361000FBE83E390E09093CD0080933C
:100A9000CC0086E08093CA001092C8002093C90061
:100AA000539A5A9A8AB1806F8AB98BB18F708BB979
:100AB0006A98729AC0D6E5E3F1E0F0934401E093BE
:100AC0004301F0934601E09345018EE0DF011D9262
:100AD0008A95E9F783E08093380183EC9FE0909357
:100AE0003E0180933D018DEC9FE090934001809307
:100AF0003F010895B4DF81E294E00E9456108BB16B
:100B00008F7080618BB978943DDD0E94B10FFCCF6E
:100B1000FC018181843059F48581883041F48681DB
:100B2000863029F48781803511F480E0089582E0D1
:100B30000895FC018181853031F483818370823096
:100B400031F480E00895843011F481E0089582E06A
:100B500008958F929F92AF92BF92CF92DF92EF92C1
:100B6000FF920F931F93DF93CF93CDB7DEB7C4509F
:100B7000D2400FB6F894DEBF0FBECDBFAE014B5FC3
:100B80005F4F5A83498383E0A82EB12CAC0EBD1E63
:100B900081E0B50120E032E00E94D30D853029F0DC
:100BA000863089F0882319F010C082E04AC000E046
:100BB00010E0EE24FF24CC24DD2445015E010894DE
:100BC000A11CB11C04C083E03CC081E03AC0011507
:100BD000110539F0C401B50149E955E0A0D78823D2
:100BE00081F0C401B50148E855E099D7882311F098
:100BF00084E027C009811A81CC24DD24EE24FF245F
:100C0000E6CFE981FA81828187FD02C06F0101C0D0
:100C10007F01E114F104D9F2C114D104C1F2F7014A
:100C20000481158181E062E040E12281EE240FD54C
:100C3000F6010481158182E062E040E2228107D55D
:100C400080E0CC5FDD4F0FB6F894DEBF0FBECDBFA6
:100C5000CF91DF911F910F91FF90EF90DF90CF9098
:100C6000BF90AF909F908F9008954091A2005091B7
:100C7000A30081E08093A7008091A9008F7B8093DF
:100C8000A90020E137E272E061E03AC08091A20061
:100C90009091A3008417950731F02150304011F452
:100CA00083E00895AC018091A90080648093A9003D
:100CB0007093A7008091A9008F7B8093A9008091F9
:100CC000A60081FF02C082E011C08091A90080646B
:100CD0008093A9006093A7008091A9008F7B8093E7
:100CE000A9008091A60081FF05C081E00E94750FD8
:100CF00081E0089580913401813011F482E00895FB
:100D00008091A60080FFC2CF81E08093A7008091F0
:100D1000A90080648093A90082E08093A70080915D
:100D2000A90080648093A90080E00895CF92DF92AB
:100D3000EF92FF920F931F93CF93DF93EC018B0100
:100D40008091000190910101A0910201B0910301F5
:100D50000196A11DB11D8093000190930101A09304
:100D60000201B09303018F5F9F4FAF4FBF4F61F4FC
:100D700081E090E0A0E0B0E0809300019093010159
:100D8000A0930201B09303018091000190910101B1
:100D9000A0910201B09103018C839D83AE83BF8338
:100DA00082E0C82EC092A7008091A9008F7B80931B
:100DB000A900CE016FE170E040E050E059D6D82E96
:100DC000882309F058C08091A6008B778093A600F5
:100DD000B0D48091A90080648093A9000115110509
:100DE00009F449C0E884F9848C8587FF1AC03DDF87
:100DF000982F8823D1F581E08093A7008091A900E6
:100E00008F7B8093A900C801B70140E050E0D9D59D
:100E1000982F882351F58091A6008E778093A600A5
:100E20001DC0C092A7008091A9008F7B8093A9006C
:100E3000C801B70140E050E01BD6982F8823A9F4E1
:100E40008091A6008B778093A60004C08091340126
:100E5000813051F08091A60082FFF8CF8091A900E7
:100E600080648093A90007C092E08091A90080640B
:100E70008093A900D92E8D2DDF91CF911F910F91D5
:100E8000FF90EF90DF90CF900895CF93DF93EC0128
:100E9000ECDE982F8823F1F481E08093A700809105
:100EA000A9008F7B8093A900CE016DE070E040E047
:100EB00050E087D5982F882369F48091A6008E771B
:100EC0008093A6008091A90080648093A9008C85FE
:100ED000811190EC892FDF91CF910895DF93CF930B
:100EE000CDB7DEB7AC970FB6F894DEBF0FBECDBF5F
:100EF000FE013E969FE1DF011D929A95E9F725E5F7
:100F000033E542E453E42E873F87488B598B8B8F20
:100F100086E08C8F8EE18D8F68A3CF0160E070E05A
:100F200005DF982F882331F4CE010196AEDF982F8C
:100F3000882329F08091A90080648093A900892FDB
:100F4000AC960FB6F894DEBF0FBECDBFCF91DF9148
:100F500008950F931F93DF93CF93CDB7DEB7AC9770
:100F60000FB6F894DEBF0FBECDBF8B01FE013E96DB
:100F70009FE1DF011D929A95E9F725E533E542E40B
:100F800053E42E873F87488B598B28E030E040E0C0
:100F900050E02E8B3F8B488F598F90E89A8F8B8F24
:100FA0008AE08C8F85E28D8FCF01C0DE982F882359
:100FB000B9F4F8013081218192818381808391830A
:100FC000228333833481258196818781848395832D
:100FD00026833783CE01019658DF982F882329F086
:100FE0008091A90080648093A900892FAC960FB6E8
:100FF000F894DEBF0FBECDBFCF91DF911F910F914F
:101000000895DF93CF93CDB7DEB7AC970FB6F894C2
:10101000DEBF0FBECDBFFE013E969FE1DF011D92F8
:101020009A95E9F725E533E542E453E42E873F87B7
:10103000488B598B90E89A8F8B8F86E08C8FCF01ED
:1010400060E070E073DE982F882331F4CE010196C2
:101050001CDF982F882329F08091A9008064809359
:10106000A900892FAC960FB6F894DEBF0FBECDBF96
:10107000CF91DF9108958F929F92AF92BF92CF92BE
:10108000DF92EF92FF920F931F93DF93CF93CDB731
:10109000DEB7AC970FB6F894DEBF0FBECDBF982E6B
:1010A0005A016B01822EB8018E01025F1F4F2FE1A2
:1010B000F80111922A95E9F725E533E542E453E476
:1010C0002E873F87488B598B80E090E0282D30E0B9
:1010D00040E050E076D76E8B7F8B888F998F80E8C9
:1010E0008A8F9B8E8AE08C8F88E28D8F8D2D992739
:1010F000AA27BB278F8FC601AA27BB2788A3BB2798
:10110000AD2D9C2D8B2D89A3AAA28DA2C801B7015C
:101110000DDE982F882331F4CE010196B6DE982F8C
:10112000882329F08091A90080648093A900892FE9
:10113000AC960FB6F894DEBF0FBECDBFCF91DF9156
:101140001F910F91FF90EF90DF90CF90BF90AF90E5
:101150009F908F900895DF93CF93CDB7DEB7AC9774
:101160000FB6F894DEBF0FBECDBFFE013E969FE1E5
:10117000DF011D929A95E9F725E533E542E453E452
:101180002E873F87488B598B22E130E040E050E0CA
:101190002E8B3F8B488F598F90E89A8F8B8F86E0EC
:1011A0008C8F83E08D8F82E189A3CF01BFDD982FE3
:1011B000882331F4CE01019668DE982F882329F028
:1011C0008091A90080648093A900892FAC960FB606
:1011D000F894DEBF0FBECDBFCF91DF910895DF93AE
:1011E000CF93CDB7DEB7AC970FB6F894DEBF0FBE86
:1011F000CDBFFE013E969FE1DF011D929A95E9F772
:1012000025E533E542E453E42E873F87488B598B2D
:1012100024E230E040E050E02E8B3F8B488F598F26
:1012200090E89A8F8B8F86E08C8F82E18D8F84E29D
:1012300089A3CF017BDD982F882331F4CE0101965D
:1012400024DE982F882329F08091A9008064809360
:10125000A900892FAC960FB6F894DEBF0FBECDBFA4
:10126000CF91DF910895CF93DF93EC01ACE2B1E031
:10127000E4E0F1E088E001900D928150E1F71092F6
:10128000A700CE0114D5833039F48091A6008D7F5C
:101290008093A600188280E0DF91CF910895ACE2A0
:1012A000B1E0ECE0F1E088E001900D928150E1F7CF
:1012B0001092A70080E090E0FAC4982F20919E0041
:1012C0003091A0008091A0008F7D8093A00080913C
:1012D0009F008F7D80939F0080919E00816080930E
:1012E0009E0028C080919F0085FF06C080919F00CE
:1012F0008F7D80939F00915080913401813011F453
:1013000091E01AC08091A60084FF09C01092F500F8
:101310008091A6008F7E8093A60092E00DC0809100
:10132000A60081FF07C08091A6008D7F8093A60054
:1013300093E002C09923B1F620FD05C080919E0084
:101340008E7F80939E0035FF05C08091A000806253
:101350008093A000892F089560919E008091A00045
:101360008D7F8093A00080919E00826080939E007C
:1013700080919E0081FDFCCF80919E0081608093D2
:101380009E0010922A013091A0008091A0008F7DD4
:101390008093A00080919F008F7D80939F002AE022
:1013A00040ED57E080919F0085FF0BC080919F002A
:1013B0008F7D80939F0080919F008D7F80939F0001
:1013C00005C0CA010197F1F7215061F735FF05C04B
:1013D0008091A00080628093A00060FD05C0809194
:1013E0009E008E7F80939E008091A00082608093FB
:1013F000A0000895EF920F931F93DF93CF93CDB783
:10140000DEB728970FB6F894DEBF0FBECDBF809130
:101410003401853009F494C0863068F48230B9F123
:10142000833018F48823A1F006C18330D1F18430D1
:1014300009F001C15DC0873009F49BC0873008F412
:101440008AC0883009F4B3C0893009F0F4C0D7C02D
:1014500000912701109128010115110509F4EBC035
:1014600081E02BDF682F882331F080912601809363
:10147000340191E0DCC0C80101979093280180936A
:101480002701892B09F0D7C08091260107C088EE7B
:1014900093E0909328018093270183E080933401A7
:1014A000CAC080912701909128010197909328014B
:1014B00080932701019629F080ED97E00197F1F7DD
:1014C000BAC077988091D80080618093D8008091CD
:1014D000DD008B7F8093DD008091D7008061809359
:1014E000D7008091DD0082608093DD0084E0D6CF5C
:1014F00080919F0080FF9FC080919F008E7F80938E
:101500009F0080919F008D7F80939F008091DF00DE
:101510008D7F8093DF008091DE0082608093DE000B
:1015200080919E00816080939E00EFD010923401E4
:1015300084E690E0909328018093270185E05CC0C9
:101540000BDF1092340188EC90E090932801809397
:10155000270186E051C080E060E040E020E000E448
:1015600010E0EE2474D08091AC0087FF5EC087E06D
:1015700095CFACE2B1E0ECE1F1E088E001900D92B2
:101580008150E1F7CE01019692D3682F882309F0AC
:101590004AC0888580932401DFDE1092340188ECF4
:1015A00090E0909328018093270188E025C0009166
:1015B000240180E060E040E020E010E0EE2447D02D
:1015C0008091AC0087FF31C0ACE2B1E0E4E1F1E032
:1015D00088E001900D928150E1F780E090E067D3C0
:1015E000682F882301F51092340184E690E09093EF
:1015F00028018093270189E0809326011CC081E0A7
:101600008093A1008AE080933401DED914C0892F31
:101610000E9484028091DD0081608093DD000E9441
:10162000B002B9D008C093E002C094E060E08091BD
:101630003401813061F728960FB6F894DEBF0FBEF3
:10164000CDBFCF91DF911F910F91EF900895EF9251
:101650000F931F93E82F7E2D6295660F660F607CB7
:10166000642B2F70622B382F726045C03093A70017
:101670003E17A1F488E090E020E003C02F5F880FC0
:10168000991F8017910710F42530C1F7922F92957A
:10169000907F972B562F40E020E008C05091AA0081
:1016A0009091AB004091AD002091AE0091FF22C01F
:1016B0008091A9008E7F8093A9008091AB008D7FDF
:1016C0008093AB008091A90081608093A900509322
:1016D000AA009093AB004093AD002093AE008091A0
:1016E000A90080628093A9008091AC0087FD02C0B0
:1016F00080E007C03F5F373008F4B8CFE093A70021
:1017000081E01F910F91EF9008951092F80090E002
:101710009093A7001092AE001092A6001092AB001A
:101720008091A9008E7F8093A9009F5F973081F7F9
:1017300008954091A2005091A30028E833E18091E0
:10174000AA008073803129F48091A60080FF05C033
:1017500020C08091A60082FD1CC08091A60081FF60
:1017600002C081E0089580913401813011F482E05B
:1017700008958091A2009091A30084179507F9F233
:101780002115310511F483E0089521503040AC015A
:10179000D6CF80E0089570D077D08091D8008F7731
:1017A0008093D8008091D80080688093D800809181
:1017B000D8008F7D8093D8008091D7008F77809359
:1017C000D7008CE089BD8EE089BD09B400FEFDCF55
:1017D00081E08093340110922A0180E480932401F7
:1017E0008091D80080648093D8008091DD00816072
:1017F0008093DD008091DD0084608093DD00809126
:10180000D7008F7E8093D7006F9A779A8091DE0001
:1018100081608093DE008091DE0084608093DE0032
:101820008091E0008E7F8093E0008091D8008061FD
:101830008093D8000895E7EDF0E080818160808397
:1018400081E080932B01A7CF17D01ED0E0EEF0E00F
:10185000808181608083A8EDB0E08C918F778C933C
:1018600019BCE7EDF0E080818E7F80838C918F7EC4
:101870008C9310922B010895E8EDF0E080818C7F2D
:1018800080831092A00008951092DA0010929F00B9
:1018900008951F920F920FB60F920BB60F9211245C
:1018A0002F933F934F935F936F937F938F939F9368
:1018B000AF93BF93EF93FF9380919F0085FF0AC082
:1018C0008091A00085FF06C080919F008F7D80934E
:1018D0009F00C3D180919F0081FF16C08091A0001E
:1018E00081FF12C080919F008D7F80939F00809127
:1018F0009F008E7F80939F008091A0008D7F8093BA
:10190000A0000E94B00247DF8091DF0081FF16C077
:101910008091DE0081FF12C08091DF008D7F809377
:10192000DF0077988091DD0081608093DD0080E0AA
:101930002ED80E94B00281E0809334018091DF00B4
:1019400080FF18C08091DE0080FF14C08091DF000E
:101950008E7F8093DF008091DE008E7F8093DE009B
:101960000E94B9028091A00082608093A00082E072
:10197000809334018091DF0082FF10C08091DE00EF
:1019800082FF0CC08091DF008B7F8093DF0082E0BC
:1019900060E00E9484020E94B002FDDEFF91EF91A0
:1019A000BF91AF919F918F917F916F915F914F9177
:1019B0003F912F910F900BBE0F900FBE0F901F9075
:1019C0001895BF92CF92DF92EF92FF920F931F93E1
:1019D000CF93DF93182F092F7B016A018091AA0012
:1019E0008F7C80618093AA00A4DEB82E8823A9F59D
:1019F000812F902F9C01E901C114D10439F0F60127
:101A000080819181E81AF90AC80FD91F00E010E01F
:101A100021C08091A60085FD15C08091A6008E771B
:101A20008093A600C114D10449F0F6018081918110
:101A3000800F911F9183808384E010C07ADE882319
:101A400049F00CC08091AF0089930894E108F10837
:101A50000F5F1F4FE114F104E1F68B2DDF91CF9161
:101A60001F910F91FF90EF90DF90CF90BF9008955E
:101A7000BF92CF92DF92EF92FF920F931F93CF937B
:101A8000DF93182F092F7B016A018091AA008F7CB8
:101A900080628093AA004DDEB82E8823A9F5812F9D
:101AA000902F9C01E901C114D10439F0F601808125
:101AB0009181E81AF90AC80FD91F00E010E021C08F
:101AC0008091A60085FD15C08091A6008B7780933C
:101AD000A600C114D10449F0F60180819181800FE4
:101AE000911F9183808384E010C023DE882349F016
:101AF0000CC089918093AF000894E108F1080F5F52
:101B00001F4FE114F104E1F68B2DDF91CF911F916E
:101B10000F91FF90EF90DF90CF90BF900895AF921C
:101B2000BF92CF92DF92EF92FF920F931F93CF93CA
:101B3000DF937C01EB016A0124C0E881F981BE2EAC
:101B4000AF2E808190E098018017910708F49C01E6
:101B5000E20FF31FF983E883F70180819181821BF3
:101B6000930B9183808388819981F6010995823056
:101B700041F0813069F4B882A982F70111830083B2
:101B800007C0F7010081118101151105B1F682E04E
:101B9000DF91CF911F910F91FF90EF90DF90CF9049
:101BA000BF90AF900895CF92DF92EF92FF920F9384
:101BB0001F93DF93CF93CDB7DEB729970FB6F89475
:101BC000DEBF0FBECDBF6B018A01790190E8909313
:101BD0002C0196E090932D0190E0019792609093F4
:101BE0002F0180932E01109231011092300189E073
:101BF00090E090933301809332011092A700CE01C0
:101C0000019655D0282F8823C1F48B819C81F60141
:101C100091838083E816F90610F425E00EC09093B6
:101C2000330180933201C80142D0282F882329F440
:101C3000F8018181823009F026E0822F29960FB6C3
:101C4000F894DEBF0FBECDBFCF91DF911F910F91F2
:101C5000FF90EF90DF90CF90089508951F93CF935A
:101C6000DF93182FC8EED3E009C081E026DB88237C
:101C7000D1F4209711F484E016C02197112329F4A0
:101C80008091A60083FFF1CF0DC0113029F480911F
:101C9000A60080FFEACF06C0123039F78091A60077
:101CA00082FFE3CF80E0DF91CF911F910895FF92F3
:101CB0000F931F93CF93DF93182F092FF0909E005F
:101CC000C0913201D091330180919E008160809358
:101CD0009E0081E0F2DA982F882309F0EEC080910F
:101CE000AA008F7C8093AA001092F5008091A60034
:101CF0008F7E8093A6008091A9008F7B8093A9009E
:101D000080912C018093AF0080912D018093AF00D2
:101D100080912E0190912F018093AF009093AF009E
:101D200080913001909131018093AF009093AF008A
:101D300080913201909133018093AF009093AF0076
:101D40008091A60087778093A60080E087DF982F98
:101D5000882309F0B2C08091A90080648093A90013
:101D600081E0ABDA982F882309F0A7C0212F302F0C
:101D7000C9018C0180912C0187FF52C08091AA007B
:101D80008F7C80618093AA000115110569F52EC032
:101D90008091A9008F7B8093A90081E05FDF982F5D
:101DA000882309F08AC08091F6009091F700892B72
:101DB00049F4C0E0D0E006C08091AF00F801819303
:101DC0008F0121978091F6009091F700892B11F0F7
:101DD000209791F78091A90080648093A900809159
:101DE000A6008E778093A600209791F68091AA0096
:101DF0008F7C80628093AA008091A9008F7B809362
:101E0000A90082E02BDF982F882309F056C080912B
:101E1000A6008B778093A60082E020DF982F4DC02C
:101E200001151105A9F18091AA008F7C8062809331
:101E3000AA008091A9008F7B8093A9001DC082E039
:101E40000DDF982F8823C9F580912401282F30E0D9
:101E500007C0F80181918F018093AF00219739F07D
:101E60008091F6009091F7008217930790F380918C
:101E7000A6008B778093A600209709F782E0EEDE1C
:101E8000982F8823D1F48091A90080648093A900C1
:101E90008091AA008F7C80618093AA008091A90024
:101EA0008F7B8093A90081E0D9DE982F882329F4C5
:101EB0008091A6008E778093A6008091A90080640F
:101EC0008093A900F0FC05C080919E008E7F8093D6
:101ED0009E0081E08093A8001092A800892FDF91D6
:101EE000CF911F910F91FF90089592E090932C0154
:101EF00091E090932D0110922F0110922E0180936A
:101F0000300110923101109233011092320110927F
:101F1000A70080E090E0CBCE1F93182F10922C01E9
:101F200089E080932D0110932E0110922F011092C1
:101F3000310110923001109233011092320110924F
:101F4000A70080E090E0B3DE882349F410932A01D3
:101F5000112311F49AE001C09BE0909334011F918A
:101F60000895FF920F931F9307EA10E0F801F080A5
:101F7000F7E0FF22F80110823DDAF801F0821F91AC
:101F80000F91FF900895982F8091C80085FFFCCF96
:101F90009093CE0080E090E008958091C80087FD86
:101FA00003C02EEF3FEF0BC08091C80087FD03C038
:101FB0002FEF3FEF04C08091CE00282F30E0C90101
:101FC0000895629FD001739FF001829FE00DF11D83
:101FD000649FE00DF11D929FF00D839FF00D749FA3
:101FE000F00D659FF00D9927729FB00DE11DF91F4F
:101FF000639FB00DE11DF91FBD01CF0111240895AC
:10200000803209F0911180C280528F55E0F7089517
:102010000F931F93CF93DF938C01EB018B8181FF93
:102020001BC082FF0DC02E813F818C819D812817AE
:10203000390764F4E881F9810193F983E88306C0E4
:10204000E885F985802F0995892B31F48E819F8150
:1020500001969F838E8302C00FEF1FEFC801DF91AF
:10206000CF911F910F910895DF93CF93CDB7DEB736
:10207000FE01359661917191A0914501B0914601A3
:1020800013968C911397886013968C9380914501D9
:1020900090914601AF013FD0E0914501F09146019A
:1020A0002381277F2383CF91DF9108950F931F937F
:1020B000CF93DF93EC01E0914501F09146018381DC
:1020C00081FF21C000E010E00EC0E0914501F091D9
:1020D000460120853185BF01F9010995892B11F051
:1020E0000FEF1FEF2196FE018491882371F7E09195
:1020F0004501F0914601208531858AE0BF01F90153
:102100000995892B11F00FEF1FEFC801DF91CF91D7
:102110001F910F9108952F923F924F925F926F926D
:102120007F928F929F92AF92BF92CF92DF92EF9267
:10213000FF920F931F93DF93CF93CDB7DEB72B970B
:102140000FB6F894DEBF0FBECDBF3C012B015A0184
:10215000FC0117821682838181FD03C06FEF7FEF40
:10216000B9C19AE0892E1E010894211C311CF3018B
:102170002381F20123FD859123FF81912F01882383
:1021800009F4A5C1853239F423FD859123FF81919E
:102190002F01853221F490E0B3013ADFE8CF982F88
:1021A000FF24EE249924FFE1FF15D0F09B3269F063
:1021B0009C3228F4903259F0933291F40EC09D3243
:1021C00049F0903369F441E024C052E0F52A84E0FC
:1021D000F82A28C098E0F92A25C0E0E1FE2A22C0AA
:1021E000F7FC29C0892F80538A3070F4F6FE05C0B1
:1021F000989C902C1124980E15C0E89CE02C11247A
:10220000E80EF0E2FF2A0EC09E3229F4F6FC5FC110
:1022100040E4F42A07C09C3619F450E8F52A02C0BD
:10222000983649F4F20123FD959123FF91912F01F6
:10223000992309F0B8CF892F8554833018F0805244
:10224000833038F444E050E0A40EB51E5FE35983B8
:102250000FC0933631F0933779F0933509F052C0BF
:102260001FC0F5018081898342E050E0A40EB51EB5
:10227000610101E010E011C0F501C080D180F6FCE1
:1022800003C06FEF7FEF02C0692D70E042E050E0C5
:10229000A40EB51EC60146D18C015FE7F52213C01E
:1022A000F501C080D180F6FC03C06FEF7FEF02C064
:1022B000692D70E042E050E0A40EB51EC60127D1A2
:1022C0008C0150E8F52AF3FE06C018C080E290E0C9
:1022D000B3019EDEEA948E2D90E008171907B0F343
:1022E0000DC0F601F7FC8591F7FE81916F0190E03A
:1022F000B3018EDEE110EA94015010400115110582
:1023000081F7E2C0943611F0993661F5F7FE08C006
:10231000F501208131814281538184E090E00AC03F
:10232000F501808191819C01442737FD4095542F10
:1023300082E090E0A80EB91E9FE6F92257FF09C07F
:1023400050954095309521953F4F4F4F5F4FE0E8B6
:10235000FE2ACA01B901A1012AE030E0EED0D82E50
:10236000D2183FC0953729F41F2D1F7E2AE030E098
:102370001DC01F2D197F9F3661F0903720F49835CE
:1023800009F0A5C00FC0903739F0983709F09FC009
:1023900004C028E030E00AC0106114FD146020E1A0
:1023A00030E004C014FD166020E132E017FF08C0E1
:1023B000F501608171818281938144E050E008C021
:1023C000F50180819181BC0180E090E042E050E025
:1023D000A40EB51EA101B1D0D82ED2188FE7F82EC9
:1023E000F122F6FE0BC05EEFF522D91438F4F4FEAC
:1023F00007C0F2FC05C08FEEF82202C01D2D01C0FF
:10240000192DF4FE0DC0FE01ED0DF11D808180330C
:1024100019F499EEF92208C01F5FF2FE05C003C04F
:102420008F2D867809F01F5F0F2DF3FC13C0F0FE8F
:102430000EC01E1510F09D2C0AC09D2C9E0C911AEA
:102440001E2D05C080E290E0B301E2DD1F5F1E1586
:10245000C8F304C01E1510F4E11A01C0EE2404FFF5
:102460000EC080E390E0B301D3DD02FF1BC001FD8D
:1024700003C088E790E00EC088E590E00BC0802F95
:10248000867881F001FF02C08BE201C080E2F7FC98
:102490008DE290E0B301BCDD05C080E390E0B301C4
:1024A000B7DD9A94D914C8F3DA94F101ED0DF11D5A
:1024B000808190E0B301ACDDDD20B1F705C080E2A2
:1024C00090E0B301A5DDEA94EE20C9F750CEF30108
:1024D00066817781CB012B960FB6F894DEBF0FBED5
:1024E000CDBFCF91DF911F910F91FF90EF90DF90C3
:1024F000CF90BF90AF909F908F907F906F905F90A4
:102500004F903F902F900895992788270895FC01B8
:102510000590615070400110D8F7809590958E0F0E
:102520009F1F0895FC016150704001900110D8F781
:10253000809590958E0F9F1F0895FA01AA27283045
:1025400051F1203181F1E8946F936E7F6E5F7F4F80
:102550008F4F9F4FAF4FB1E03ED0B4E03CD0670FFC
:10256000781F891F9A1FA11D680F791F8A1F911D4F
:10257000A11D6A0F711D811D911DA11D20D009F49F
:1025800068943F912AE0269F11243019305D3193E1
:10259000DEF6CF010895462F4770405D4193B3E0CA
:1025A0000FD0C9F7F6CF462F4F70405D4A3318F071
:1025B000495D31FD4052419302D0A9F7EACFB4E022
:1025C000A6959795879577956795BA95C9F70097DA
:1025D0006105710508959B01AC010A2E069457957B
:1025E000479537952795BA95C9F7620F731F841FD2
:0A25F000951FA01D0895F894FFCF79
:1025FA0001000000A1FE00000000010021FF000010
:10260A000000000000050100000000008006000133
:06261A0000000800400072
:00000001FF
