:10000000A2C00000BDC00000BBC00000B9C000001D
:10001000B7C00000B5C00000B3C00000B1C0000010
:10002000AFC00000ADC00000B7C20000A9C0000012
:10003000A7C00000A5C00000A3C00000A1C0000030
:100040009FC000009DC000009BC0000099C0000040
:1000500097C0000095C0000093C0000091C0000050
:100060008FC000008DC000008BC0000089C0000060
:1000700087C0000085C0000083C0000081C0000070
:100080007FC000007DC000007BC0000079C0000080
:1000900077C0000075C0000005010904A101090135
:1000A000A10009300931159C256435FF45019502F1
:1000B00075088102C005091901290215002501757D
:1000C0000195028102750695018101C0120110019E
:1000D00000000008EB0343200100010200010902B7
:1000E0002200010100C032090400000103000000E9
:1000F00009211101000122340007058103080001D4
:100100000403090418034400650061006E00200028
:10011000430061006D00650072006100000026036D
:100120004C0055004600410020004A006F00790055
:1001300073007400690063006B00200044006500D8
:100140006D006F00000011241FBECFEFD0E2DEBFB4
:10015000CDBF11E0A0E0B1E0EAE7FCE000E00BBFBA
:1001600002C007900D92A030B107D9F711E0A0E0CE
:10017000B1E001C01D92AF30B107E1F7DCD07BC523
:100180003FCF8BB18F70806A8BB908958BB18F7020
:1001900080618BB90895FC0123B18CB1809590E00A
:1001A00080739070959587952095207E282B3CB183
:1001B0003095347083E0DF011D928A95E9F727FFBF
:1001C00002C08CE903C024FF02C084E68183922F21
:1001D00026FF02C08CE903C023FF02C084E68083AF
:1001E00095FF03C0828182608283332319F082816C
:1001F0008160828390910101922780910001832781
:10020000982B09F091E02093010130930001892F90
:1002100008950F931F93DF93CF9300D00F92CDB724
:10022000DEB7809106018430E1F481E08093E9003B
:100230008091E80080FF15C08E010F5F1F4FC8013D
:10024000AADFC80163E070E040E050E02CD3809169
:10025000E8008E778093E80083E0F80111928A9598
:10026000E9F70F900F900F90CF91DF911F910F91B1
:1002700008950F931F93DF93CF9300D00F92CDB7C4
:10028000DEB7809108018130B9F480910701813A8D
:1002900099F48E010F5F1F4FC8017DDF8091E80048
:1002A000877F8093E800C80163E070E03DD28091D1
:1002B000E8008B778093E8000F900F900F90CF911C
:1002C000DF911F910F91089581E061EC42E07CD0B5
:1002D00080FD02C090E901C090E68BB18F70982B31
:1002E0009BB9089584B7877F84BF88E10FB6F894DF
:1002F00080936000109260000FBE90E080E80FB61F
:10030000F89480936100909361000FBE84B18F7167
:1003100084B98DB18F7C8DB985B1806E85B98EB170
:1003200080638EB98AB1806F8AB98BB18F708BB9B7
:100330006A98729A1BC1D6DF8BB18F7080618BB9BE
:10034000789467DF85D4FDCFDA019330B1F0943033
:1003500028F4913041F0923079F50AC0913211F1D0
:10036000923251F524C022E130E0ECECF0E028C0FC
:1003700022E230E0EEEDF0E023C0813049F0813040
:1003800018F08230C9F40AC0E0E0F1E0849103C0C3
:10039000E4E0F1E08491282F30E012C0EEE1F1E0DA
:1003A0008491F9CF29E030E0E0EFF0E009C024E3E8
:1003B00030E0E8E9F0E004C020E030E0E0E0F0E028
:1003C000ED93FC93C9010895382F282F2CC020935A
:1003D000E900231721F4762F942F50E006C0709186
:1003E000EC009091ED005091F00091FF1BC08091C6
:1003F000EB008E7F8093EB008091ED008D7F8093EA
:10040000ED008091EB0081608093EB007093EC0035
:100410009093ED005093F0008091EE0087FD02C0B4
:1004200080E008952F5F273090F23093E90081E05B
:1004300008958091070188239CF404C080910601EF
:100440008823B9F08091E80082FFF8CF8091E8001E
:100450008B778093E800089580910601882349F006
:100460008091E80080FFF8CF8091E8008E7780933C
:10047000E80008954091E4005091E50024E6809161
:10048000EC008078803829F48091E80080FF05C076
:1004900022C08091E80082FD1EC080910601882361
:1004A00011F482E00895853011F483E0089580917D
:1004B000EB0085FF02C081E008958091E4009091F7
:1004C000E50084179507D9F2222311F484E00895FA
:1004D0002150AC01D4CF80E00895EF92FF920F93AA
:1004E0001F934DD054D008ED10E0F80180818F7734
:1004F000808380818068808380818F7D8083E7ED29
:10050000F0E080818068808319BC1092060110920F
:100510000201109204011092030180EEE82EF12CEA
:10052000F70180818B7F8083F801808181608083E7
:1005300080E060E042E048DFE1EEF0E080818E7F25
:100540008083E2EEF0E0808181608083808188603A
:100550008083F70180818E7F8083F80180818061B4
:1005600080831F910F91FF90EF900895E7EDF0E0E9
:1005700080818160808381E080930501AECFE8EDCA
:10058000F0E080818C7F80831092E20008951092C9
:10059000DA001092E10008951F920F920FB60F92A9
:1005A0000BB60F9211242F933F934F935F936F934A
:1005B0007F938F939F93AF93BF93EF93FF9380911C
:1005C000E10082FF0AC08091E20082FF06C08091B4
:1005D000E1008B7F8093E1003AD38091DA0080FFC5
:1005E0001DC08091D80080FF19C08091DA008E7FF5
:1005F0008093DA008091D90080FF0CC08CE089BD27
:100600008EE089BD09B400FEFDCF81E08093060134
:10061000B8DD04C019BC10920601B8DD8091E1007C
:1006200080FF18C08091E20080FF14C08091E2003A
:100630008E7F8093E2008091E20080618093E200EF
:100640008091D80080628093D80019BC85E08093A7
:100650000601FDD28091E10084FF2DC08091E2006F
:1006600084FF29C08CE089BD8EE089BD09B400FEFD
:10067000FDCF8091D8008F7D8093D8008091E100DC
:100680008F7E8093E1008091E2008F7E8093E20074
:100690008091E20081608093E200809102018823D2
:1006A00031F48091E30087FD02C081E001C084E065
:1006B00080930601CCD28091E10083FF22C080911B
:1006C000E20083FF1EC08091E100877F8093E100FC
:1006D00082E080930601109202018091E1008E7FFA
:1006E0008093E1008091E2008E7F8093E200809110
:1006F000E20080618093E20080E060E042E064DE3E
:10070000A6D2FF91EF91BF91AF919F918F917F9171
:100710006F915F914F913F912F910F900BBE0F9072
:100720000FBE0F901F9018959C0140910D015091A4
:100730000E014617570718F4F90190E03DC0611506
:10074000710511F0AB01F8CF8091E8008E778093AE
:10075000E80040E050E0F0CF809106018823F1F1FD
:100760008530F1F18091E80083FF02C081E00895B7
:100770008091E80082FD2CC08091E80080FF1CC0C1
:100780002091F2003091F30007C081918093F10035
:10079000415050402F5F3F4F4115510519F028300F
:1007A000310598F390E02830310509F491E080910B
:1007B000E8008E778093E8004115510569F699238A
:1007C00059F606C080910601882341F0853041F03A
:1007D0008091E80082FFF6CF80E0089582E00895DE
:1007E00083E008959C0140910D0150910E01461740
:1007F000570718F4F90190E040C06115710511F038
:10080000AB01F8CF8091E8008E778093E80040E05C
:1008100050E0F0CF80910601882309F440C0853074
:1008200009F43FC08091E80083FF02C081E0089591
:100830008091E80082FD2DC08091E80080FF1DC0FE
:100840002091F2003091F30008C084918093F10070
:100850003196415050402F5F3F4F4115510519F0DF
:100860002830310590F390E02830310509F491E00B
:100870008091E8008E778093E8004115510551F68C
:10088000992341F606C080910601882341F0853006
:1008900041F08091E80082FFF6CF80E0089582E089
:1008A000089583E00895BF92CF92DF92EF92FF9276
:1008B0000F931F93CF93DF93182F092F7B016A01AA
:1008C000D9DDB82E8823B1F5812F902F9C01E90145
:1008D000C114D10439F0F60180819181E81AF90A36
:1008E000C80FD91F00E010E022C08091E80085FD0C
:1008F00016C08091E8008E778093E800C114D1047F
:1009000049F0F60180819181800F911F918380834E
:1009100085E011C09DD1AEDD882349F00CC08991DE
:100920008093F1000894E108F1080F5F1F4FE11474
:10093000F104D9F68B2DDF91CF911F910F91FF908C
:10094000EF90DF90CF90BF9008950F931F93DF93A8
:10095000CF93CDB7DEB7AC970FB6F894DEBF0FBE1E
:10096000CDBF8091F100809307018091F1008093C9
:1009700008018091F1009091F100E9E0F1E08093AD
:10098000090190930A018091F1009091F100809308
:100990000B0193838091F1009091F10080930D0100
:1009A000958367DC8091E80083FF38C1809107015F
:1009B00030910801353009F487C0363040F43130C9
:1009C000C9F1313070F0333009F028C133C038300C
:1009D00009F4F6C0393009F405C1363009F01EC1FA
:1009E00097C0803821F0823809F018C108C0909172
:1009F000030180910401882399F0926011C08091D5
:100A00000B0187708093E9008091EB0090E025E076
:100A1000969587952A95E1F7982F91701092E900A5
:100A20008091E800877F8093E8009093F100109216
:100A3000F100D1C0882319F0823009F0EFC090E0B6
:100A40008F719070009721F0029709F0E7C00CC0F9
:100A500080910901813009F0E1C010920401333026
:100A600069F5809304012AC080910901882331F53A
:100A700020910B01277009F4D1C02093E9008091E7
:100A8000EB0080FF1BC0333021F48091EB008062CB
:100A900013C08091EB0080618093EB0081E090E0D7
:100AA00002C0880F991F2A95E2F78093EA001092FE
:100AB000EA008091EB0088608093EB001092E900DF
:100AC0008091E800877F8AC0882309F0A7C0109131
:100AD00009011F770FB7F8948091E800877F809312
:100AE000E800A7DC8091E80080FFFCCF8091E30064
:100AF0008078812B8093E30080688093E30011234A
:100B000011F482E001C083E0809306010FBF86C02C
:100B10008058823008F082C08091090190910A01CA
:100B200023E08C3D920709F033C083E08C838AE296
:100B30008B837FB7F894DE0115966EE040E050E0BD
:100B400011E2E62FF0E010935700849140FF03C0BC
:100B500082958F706F5F8F70282F30E08A3018F089
:100B6000C901C79602C0C901C0968D939D934F5F7E
:100B70005F4F4431510529F77FBF8091E800877F9F
:100B80008093E800CE0103966AE270E0CDDD12C0EA
:100B900060910B01AE014F5F5F4FD6DBBC01009748
:100BA00009F43CC08091E800877F8093E800898148
:100BB0009A8118DE8091E8008B778093E8002EC040
:100BC000803861F58091E800877F8093E80080910C
:100BD00002018093F1008091E8008E778093E80015
:100BE00028DC1CC08823D1F4909109019230B0F424
:100BF0008091E800877F8093E8009093020119DCE0
:100C000080910201882331F48091E30087FD02C0C6
:100C100081E001C084E08093060156DB8091E8000A
:100C200083FF0AC08091EB0080628093EB0080918B
:100C3000E800877F8093E800AC960FB6F894DEBF9B
:100C40000FBECDBFCF91DF911F910F9108950895F1
:100C50001F9380910601882361F01091E9001092A2
:100C6000E9008091E80083FF01C06FDE17701093E8
:0A0C7000E9001F910895F894FFCFEA
:00000001FF
