:1000000065C1000081C100007FC100007DC100000A
:100010007BC1000079C1000077C1000075C10000FC
:1000200073C1000071C100005DC600006DC1000019
:100030006BC1000069C1000067C1000065C100001C
:1000400063C1000061C100005FC100005DC100002C
:100050005BC1000059C1000057C1000055C100003C
:1000600053C1000051C100004FC100004DC100004C
:100070004BC1000049C1000047C1000045C100005C
:1000800043C1000041C100003FC100003DC100006C
:100090003BC1000039C100001B5B33316D44657604
:1000A00020456E756D204572726F720D0A202D2DE0
:1000B000204572726F7220436F64652025640D0ABB
:1000C000202D2D20537562204572726F7220436F70
:1000D00064652025640D0A202D2D20496E2053745F
:1000E0006174652025640D0A1B5B33376D001B5B53
:1000F00033316D486F7374204D6F646520457272A3
:100100006F720D0A202D2D204572726F7220436F81
:1001100064652025640D0A1B5B33376D00524E4425
:1001200049532044657669636520456E756D657237
:10013000617465642E0D0A00446576696365205616
:10014000656E646F722049443A2030782530386CEF
:10015000580D0A004572726F722047657474696E9B
:10016000672056656E646F722049442E0D0A004563
:1001700072726F722053657474696E67204465767D
:10018000696365205061636B65742046696C7465B2
:10019000722E0D0A00446576696365204D617820F2
:1001A0005472616E736665722053697A653A2025D0
:1001B0006C752062797465732E0D0A004572726F3A
:1001C0007220496E697469616C697A696E6720444E
:1001D00065766963652E0D0A004572726F72205351
:1001E000657474696E672044657669636520436F42
:1001F0006E66696775726174696F6E2E0D0A0041D3
:100200007474616368656420446576696365204E33
:100210006F7420612056616C696420524E444953CA
:1002200020436C617373204465766963652E0D0A03
:10023000004572726F722052657472696576696EDC
:100240006720436F6E66696775726174696F6E20AF
:1002500044657363726970746F722E0D0A000D0A23
:1002600044657669636520556E6174746163686581
:10027000642E0D0A004465766963652041747461DB
:10028000636865642E0D0A000D0A0D0A002A2A2AE9
:100290005041434B4554202853697A6520256429F1
:1002A0002A2A2A0D0A001B5B33366D524E444953ED
:1002B00020486F73742044656D6F2072756E6E698F
:1002C0006E672E0D0A1B5B33376D000011241FBEB5
:1002D000CFEFD0E2DEBFCDBF11E0A0E0B1E0E6E0BD
:1002E000F1E200E00BBF02C007900D92A433B1070A
:1002F000D9F715E0A4E3B1E001C01D92A635B1071E
:10030000E1F7DAD10C9481107BCE909141052DB7A5
:100310003EB7285030400FB6F8943EBF0FBE2DBFF9
:10032000EDB7FEB7319628E930E0ADB7BEB712960B
:100330003C932E9311978283138264831582968354
:1003400017820E94910D8BB18F7080698BB92DB788
:100350003EB7285F3F4F0FB6F8943EBF0FBE2DBF8C
:1003600008951F93182F99D400D000D0EDB7FEB791
:1003700031968EEE90E0ADB7BEB712969C938E93F9
:100380001197128313820E94910D8BB18F70806937
:100390008BB90F900F900F900F90FFCF8EE592E0EA
:1003A0000E94B30D8BB18F7080618BB9089585E782
:1003B00092E00E94B30D8BB18F70806A8BB9089563
:1003C0000F931F93DF93CF93CDB7DEB7CA50D240C0
:1003D0000FB6F894DEBF0FBECDBF8BB18F70806AB1
:1003E0008BB98E01055F1F4F81E0BE016F5F7F4FAC
:1003F000A80120E032E0ECD5882319F081E392E0F7
:1004000012C069817A8188E091E0A8010E94630CA2
:10041000882319F08FEF91E006C081E07BD7882315
:1004200041F089ED91E00E94B30D8BB18F7080692E
:100430007EC088E091E00E94EB0B882319F08CEBE2
:1004400091E04AC000D000D000D085E991E0EDB73E
:10045000FEB79283818380911A0190911B01A09134
:100460001C01B0911D0183839483A583B6830E94F0
:10047000910D8DE090E0A0E0B0E08B839C83AD8394
:10048000BE838DB79EB706960FB6F8949EBF0FBE7B
:100490008DBF88E091E04EE051E061E070E09E01A8
:1004A0002D5F3F4F04E010E00E94450B882319F0B8
:1004B0008FE691E011C088E091E04CE051E061E00E
:1004C00070E09E01295F3F4F04E010E00E94A30A04
:1004D000882359F084E591E00E94B30D8BB18F70B1
:1004E00080698BB980E016D723C000D000D000D03F
:1004F00088E391E0EDB7FEB7928381838F81988581
:10050000A985BA8583839483A583B6830E94910DC0
:100510008DB79EB706960FB6F8949EBF0FBE8DBFDF
:100520008DE191E00E94B30D8BB18F7080668BB925
:10053000C65FDD4F0FB6F894DEBF0FBECDBFCF91C3
:10054000DF911F910F91089584B7877F84BF28E1C1
:100550000FB6F89420936000109260000FBE90E0F8
:1005600080E80FB6F89480936100909361000FBE0D
:1005700083E390E09093CD008093CC0086E080935D
:10058000CA001092C8002093C900539A5A9A8AB19F
:10059000806F8AB98BB18F708BB976D3E2E4F5E0C6
:1005A000F0935105E0935005F0935305E093520505
:1005B0008EE0DF011D928A95E9F783E0809345057F
:1005C00089E59DE090934B0580934A0583E69DE085
:1005D00090934D0580934C050895EF92FF920F93F1
:1005E0001F93DF93CF9300D0CDB7DEB78091410545
:1005F0008B3009F058C088E091E0E2D6882309F4F6
:1006000052C08BB18F7080628BB988E091E064E357
:1006100071E0AE014F5F5F4FEFD600D000D08DE8A4
:1006200092E0EDB7FEB79283818389819A819483AA
:1006300083830E94910D00E010E00F900F900F90C7
:100640000F9080E0E82E81E0F82E19C000D000D095
:10065000EDB7FEB7F282E182F801EC5CFE4F8081DB
:10066000992787FD9095EDB7FEB7948383830E9409
:10067000800D0F5F1F4F0F900F900F900F9089818B
:100680009A810817190710F300D088E892E0EDB7B7
:10069000FEB7928381830E94910D8BB18F7080662B
:1006A0008BB90F900F900F900F90CF91DF911F910A
:1006B0000F91FF90EF90089547DF86EA92E00E9445
:1006C000B30D8BB18F7080618BB9789486DF47D67C
:1006D000FDCF982F20919E003091A0008091A00026
:1006E0008F7D8093A00080919F008F7D80939F00DD
:1006F00080919E00816080939E0028C080919F0021
:1007000085FF06C080919F008F7D80939F00915050
:1007100080914105813011F491E01AC08091A600CA
:1007200084FF09C01092F5008091A6008F7E80930F
:10073000A60092E00DC08091A60081FF07C08091C5
:10074000A6008D7F8093A60093E002C09923B1F6A6
:1007500020FD05C080919E008E7F80939E0035FF16
:1007600005C08091A00080628093A000892F089529
:1007700060919E008091A0008D7F8093A000809169
:100780009E00826080939E0080919E0081FDFCCF40
:1007900080919E00816080939E0010923705309179
:1007A000A0008091A0008F7D8093A00080919F0089
:1007B0008F7D80939F002AE040ED57E080919F005D
:1007C00085FF0BC080919F008F7D80939F0080915B
:1007D0009F008D7F80939F0005C0CA010197F1F7AC
:1007E000215061F735FF05C08091A00080628093A1
:1007F000A00060FD05C080919E008E7F80939E00CA
:100800008091A00082608093A0000895EF920F93E2
:100810001F93DF93CF93CDB7DEB728970FB6F89429
:10082000DEBF0FBECDBF80914105853009F494C075
:10083000863068F48230B9F1833018F48823A1F04F
:1008400004C18330D1F1843009F0FFC05DC087302E
:1008500009F49BC0873008F48AC0883009F4B3C01B
:10086000893009F0F2C0D7C00091350510913605E6
:100870000115110509F4E9C081E02BDF682F8823F9
:1008800031F0809134058093410591E0DAC0C801D0
:1008900001979093360580933505892B09F0D5C0D3
:1008A0008091340507C088EE93E0909336058093DD
:1008B000350583E080934105C8C08091350590914E
:1008C000360501979093360580933505019629F0FA
:1008D00080ED97E00197F1F7B8C077988091D80044
:1008E00080618093D8008091DD008B7F8093DD0054
:1008F0008091D70080618093D7008091DD00826075
:100900008093DD0084E0D6CF80919F0080FF9DC062
:1009100080919F008E7F80939F0080919F008D7FAC
:1009200080939F008091DF008D7F8093DF00809116
:10093000DE0082608093DE0080919E008160809363
:100940009E00EDD01092410584E690E0909336052C
:100950008093350585E05CC00BDF1092410588EC83
:1009600090E0909336058093350586E051C080E095
:1009700060E040E020E000E410E0EE2472D08091DE
:10098000AC0087FF5CC087E095CFA9E3B5E0EAE261
:10099000F1E088E001900D928150E1F7CE010196DF
:1009A0009BD3682F882309F048C088858093320143
:1009B000DFDE1092410588EC90E09093360580933D
:1009C000350588E025C00091320180E060E040E01C
:1009D00020E010E0EE2445D08091AC0087FF2FC0CE
:1009E000A9E3B5E0E2E2F1E088E001900D928150E8
:1009F000E1F780E090E070D3682F8823F1F4109243
:100A0000410584E690E0909336058093350589E0B2
:100A1000809334051AC081E08093A1008AE080931E
:100A20004105CEDC12C0892F70DC8091DD00816031
:100A30008093DD00B3DCD8D008C093E002C094E01E
:100A400060E080914105813071F728960FB6F894E7
:100A5000DEBF0FBECDBFCF91DF911F910F91EF9001
:100A60000895EF920F931F93E82F7E2D6295660FE6
:100A7000660F607C642B2F70622B382F726045C02C
:100A80003093A7003E17A1F488E090E020E003C077
:100A90002F5F880F991F8017910710F42530C1F739
:100AA000922F9295907F972B562F40E020E008C020
:100AB0005091AA009091AB004091AD002091AE0002
:100AC00091FF22C08091A9008E7F8093A900809120
:100AD000AB008D7F8093AB008091A90081608093F3
:100AE000A9005093AA009093AB004093AD002093CF
:100AF000AE008091A90080628093A9008091AC0033
:100B000087FD02C080E007C03F5F373008F4B8CFF0
:100B1000E093A70081E01F910F91EF90089510924C
:100B2000F80090E09093A7001092AE001092A600FB
:100B30001092AB008091A9008E7F8093A9009F5FE7
:100B4000973081F70895482F3091A70020E0209337
:100B5000A7008091AC0087FF10C09091AA008091FF
:100B6000AA008073803111F080E001C080E89F709E
:100B7000892B841711F481E008952F5F273039F70E
:100B800037703093A70080E008954091A200509103
:100B9000A30024E68091AA008073803129F480911B
:100BA000A60080FF05C01EC08091A60082FD1AC06D
:100BB0008091A60081FF02C081E0089580914105E7
:100BC000813011F482E008958091A2009091A300F9
:100BD00084179507F9F2222311F483E00895215038
:100BE000AC01D8CF80E0089570D077D08091D80044
:100BF0008F778093D8008091D80080688093D80048
:100C00008091D8008F7D8093D8008091D7008F7716
:100C10008093D7008CE089BD8EE089BD09B400FEC9
:100C2000FDCF81E0809341051092370580E48093E9
:100C300032018091D80080648093D8008091DD00DB
:100C400081608093DD008091DD0084608093DD0011
:100C50008091D7008F7E8093D7006F9A779A80918A
:100C6000DE0081608093DE008091DE0084608093EE
:100C7000DE008091E0008E7F8093E0008091D800BC
:100C800080618093D8000895E7EDF0E08081816075
:100C9000808381E080933805A7CF17D01ED0E0EE87
:100CA000F0E0808181608083A8EDB0E08C918F7747
:100CB0008C9319BCE7EDF0E080818E7F80838C916E
:100CC0008F7E8C93109238050895E8EDF0E08081D6
:100CD0008C7F80831092A00008951092DA00109209
:100CE0009F0008951F920F920FB60F920BB60F92AE
:100CF00011242F933F934F935F936F937F938F9321
:100D00009F93AF93BF93EF93FF9380919F0085FFD5
:100D10000AC08091A00085FF06C080919F008F7D52
:100D200080939F00AFD180919F0081FF15C080917B
:100D3000A00081FF11C080919F008D7F80939F0054
:100D400080919F008E7F80939F008091A0008D7F77
:100D50008093A00023DB48DF8091DF0081FF15C076
:100D60008091DE0081FF11C08091DF008D7F809334
:100D7000DF0077988091DD0081608093DD0080E066
:100D8000F0DA0CDB81E0809341058091DF0080FF89
:100D900017C08091DE0080FF13C08091DF008E7F3E
:100DA0008093DF008091DE008E7F8093DE00FFDA8B
:100DB0008091A00082608093A00082E08093410532
:100DC0008091DF0082FF0EC08091DE0082FF0AC0AA
:100DD0008091DF008B7F8093DF0082E060E095DA16
:100DE000DDDA02DFFF91EF91BF91AF919F918F917B
:100DF0007F916F915F914F913F912F910F900BBE1B
:100E00000F900FBE0F901F901895BF92CF92DF9258
:100E1000EF92FF920F931F93CF93DF93182F092F19
:100E20007B016A018091AA008F7C80618093AA0077
:100E3000ACDEB82E8823A9F5812F902F9C01E90103
:100E4000C114D10439F0F60180819181E81AF90AC0
:100E5000C80FD91F00E010E021C08091A60085FDD9
:100E600015C08091A6008E778093A600C114D1048E
:100E700049F0F60180819181800F911F91838083D9
:100E800084E010C082DE882349F00CC08091AF005E
:100E900089930894E108F1080F5F1F4FE114F104F2
:100EA000E1F68B2DDF91CF911F910F91FF90EF9085
:100EB000DF90CF90BF900895DF92EF92FF920F9353
:100EC0001F93CF93DF938C017B018091AA008F7CCD
:100ED00080618093AA0059DED82E882361F5E11441
:100EE000F10429F0F70180819181081B190BC0E002
:100EF000D0E01EC08091A60085FD15C08091A6009F
:100F00008E778093A600E114F10449F0F701808107
:100F100091818C0F9D1F9183808384E00DC035DE0D
:100F2000882331F009C08091AF0001501040219614
:100F300001151105F9F68D2DDF91CF911F910F91BC
:100F4000FF90EF90DF900895AF92BF92CF92DF9223
:100F5000EF92FF920F931F93CF93DF937C01EB01EE
:100F60006A0124C0E881F981BE2EAF2E808190E015
:100F700098018017910708F49C01E20FF31FF98391
:100F8000E883F70180819181821B930B9183808399
:100F900088819981F6010995823041F0813069F4A8
:100FA000B882A982F7011183008307C0F70100818D
:100FB000118101151105B1F682E0DF91CF911F91EA
:100FC0000F91FF90EF90DF90CF90BF90AF9008957A
:100FD000CF92DF92EF92FF920F931F93DF93CF9305
:100FE000CDB7DEB729970FB6F894DEBF0FBECDBFE1
:100FF0006B018A01790190E89093390596E090930E
:101000003A0590E00197926090933C0580933B05F0
:1010100010923E0510923D0589E090E090934005C6
:1010200080933F051092A700CE01019655D0282F3E
:101030008823C1F48B819C81F60191838083E8161B
:10104000F90610F425E00EC09093400580933F050B
:10105000C80142D0282F882329F4F80181818230E9
:1010600009F026E0822F29960FB6F894DEBF0FBE56
:10107000CDBFCF91DF911F910F91FF90EF90DF9047
:10108000CF90089508951F93CF93DF93182FC8EE44
:10109000D3E009C081E01DDB8823D1F4209711F44F
:1010A00084E016C02197112329F48091A60083FFC4
:1010B000F1CF0DC0113029F48091A60080FFEACF56
:1010C00006C0123039F78091A60082FFE3CF80E09E
:1010D000DF91CF911F910895FF920F931F93CF93AC
:1010E000DF93182F092FF0909E00C0913F05D091FB
:1010F000400580919E00816080939E0081E0E9DA46
:10110000982F882309F0EEC08091AA008F7C8093ED
:10111000AA001092F5008091A6008F7E8093A60011
:101120008091A9008F7B8093A900809139058093DD
:10113000AF0080913A058093AF0080913B0590917C
:101140003C058093AF009093AF0080913D05909156
:101150003E058093AF009093AF0080913F05909142
:1011600040058093AF009093AF008091A6008777F1
:101170008093A60080E087DF982F882309F0B2C013
:101180008091A90080648093A90081E0A2DA982F61
:10119000882309F0A7C0212F302FC9018C0180912D
:1011A000390587FF52C08091AA008F7C80618093AF
:1011B000AA000115110569F52EC08091A9008F7B49
:1011C0008093A90081E05FDF982F882309F08AC00F
:1011D0008091F6009091F700892B49F4C0E0D0E0AF
:1011E00006C08091AF00F80181938F012197809113
:1011F000F6009091F700892B11F0209791F78091DC
:10120000A90080648093A9008091A6008E778093C6
:10121000A600209791F68091AA008F7C806280932F
:10122000AA008091A9008F7B8093A90082E02BDF28
:10123000982F882309F056C08091A6008B77809361
:10124000A60082E020DF982F4DC001151105A9F1FD
:101250008091AA008F7C80628093AA008091A9006F
:101260008F7B8093A9001DC082E00DDF982F88231B
:10127000C9F580913201282F30E007C0F801819133
:101280008F018093AF00219739F08091F600909103
:10129000F7008217930790F38091A6008B778093D5
:1012A000A600209709F782E0EEDE982F8823D1F47C
:1012B0008091A90080648093A9008091AA008F7C0E
:1012C00080618093AA008091A9008F7B8093A90000
:1012D00081E0D9DE982F882329F48091A6008E77AB
:1012E0008093A6008091A90080648093A900F0FCFF
:1012F00005C080919E008E7F80939E0081E0809348
:10130000A8001092A800892FDF91CF911F910F9113
:10131000FF9008951F93182F1092390589E080934C
:101320003A0510933B0510923C0510923E05109231
:101330003D051092400510923F051092A70080E0F5
:1013400090E0CADE882349F410933705112311F485
:101350009AE001C09BE0909341051F910895FF9290
:101360000F931F9307EA10E0F801F080F7E0FF22E7
:10137000F80110824BDAF801F0821F910F91FF9073
:101380000895FC018181843059F48581823041F4D3
:101390008681823029F487818F3F11F480E008959F
:1013A00082E00895FC018181843041F485818A3096
:1013B00029F48681882311F48781811182E00895C0
:1013C000FC01809141058B30A1F48285882389F04E
:1013D00080818093A7008091A9008F7B8093A900D2
:1013E0009091A60091708091A90080648093A900DB
:1013F00001C090E0892F0895CF92DF92FF920F9362
:101400001F93DF93CF93CDB7DEB7AC970FB6F894A9
:10141000DEBF0FBECDBFFC016B018A01809141058B
:101420008B3009F050C08285882309F44CC080813C
:101430008093A7008091A9008F7B8093A900809161
:10144000A60085FD13C08091A60080FF05C0809195
:10145000A6008E778093A600F801118210828091F9
:10146000A90080648093A900FF242FC0CE010196BB
:101470006CE270E040E050E0C8DCF82E882329F5EB
:101480008D859E85F8019183808389859A858497CF
:1014900060E070E011DDF80160817181C60140E01B
:1014A00050E0B3DC8091F6009091F700892B29F48D
:1014B0008091A6008E778093A6008091A900806419
:1014C0008093A90002C092E0F92E8F2DAC960FB642
:1014D000F894DEBF0FBECDBFCF91DF911F910F916A
:1014E000FF90DF90CF900895FC01938581E2809377
:1014F000390510923A0510923C0510923B059093E5
:101500003D0510923E055093400540933F051092D3
:10151000A700CB01E1CDFC01938581EA80933905D9
:1015200081E080933A0510923C0510923B05909320
:101530003D0510923E055093400540933F051092A3
:10154000A700CB01C9CD4F925F926F927F928F928D
:101550009F92AF92BF92CF92DF92EF92FF920F9342
:101560001F93DF93CF93CDB7DEB76C970FB6F89488
:10157000DEBF0FBECDBF7C01522E432E58016DB68B
:101580007EB628E1822E912C800E911E8DB79EB7DB
:10159000881999090FB6F8949EBF0FBE8DBFCDB6BE
:1015A000DEB60894C11CD11C84E090E0A0E0B0E05D
:1015B00089839A83AB83BC838CE190E0A0E0B0E0A8
:1015C0008D839E83AF83B887F70186899789A08D25
:1015D000B18D89879A87AB87BC870196A11DB11D04
:1015E000868B978BA08FB18F4D875E876F87788BA7
:1015F000198A1A8A1B8A1C8A1D8A1E8A1F8A188EBB
:10160000198E1A8E1B8E1C8EC701BE016F5F7F4F15
:101610004CE150E069DF182F8823D1F4C701B601EF
:10162000A40179DF182F882399F4F6018485958524
:10163000A685B7850097A105B10511F010E808C08F
:101640009601285E3F4F852D942DB901A5014FD2FB
:10165000812F0FB6F8947EBE0FBE6DBE6C960FB68E
:10166000F894DEBF0FBECDBFCF91DF911F910F91D8
:10167000FF90EF90DF90CF90BF90AF909F908F90B2
:101680007F906F905F904F9008956F927F928F92AE
:101690009F92AF92BF92CF92DF92EF92FF920F9301
:1016A0001F93DF93CF93CDB7DEB760970FB6F89453
:1016B000DEBF0FBECDBF4C016DB67EB6ECE1CE2EC7
:1016C000D12CC00ED11E8DB79EB78C199D090FB6B7
:1016D000F8949EBF0FBE8DBFADB6BEB60894A11CD8
:1016E000B11C85E090E0A0E0B0E0EDB7FEB78183EB
:1016F0009283A383B483EE24FF24F501C482D582B0
:10170000E682F782F40186899789A08DB18DF50173
:1017100080879187A287B3870196A11DB11DF4012F
:10172000868B978BA08FB18FF5014487558766878D
:101730007787C801A0E0B0E0808B918BA28BB38B40
:1017400084E190E0A0E0B0E0848B958BA68BB78B12
:10175000108E118E128E138E4DB75EB7435E5F4FA3
:10176000CA01B901A801C3D1F50144815581C40161
:10177000B501BADE282F882399F4C401BE016F5F3A
:101780007F4F40E150E0C7DE282F882349F48D8544
:101790009E85AF85B8890097A105B10509F020E8BD
:1017A000822F0FB6F8947EBE0FBE6DBE60960FB648
:1017B000F894DEBF0FBECDBFCF91DF911F910F9187
:1017C000FF90EF90DF90CF90BF90AF909F908F9061
:1017D0007F906F9008950F931F93DF93CF93CDB7B2
:1017E000DEB7CC54D0400FB6F894DEBF0FBECDBFED
:1017F0008C0182E090E0A0E0B0E089839A83AB8323
:10180000BC8388E190E0A0E0B0E08D839E83AF834D
:10181000B887F80186899789A08DB18D89879A87C5
:10182000AB87BC870196A11DB11D868B978BA08FBE
:10183000B18F81E090E0A0E0B0E08D879E87AF8718
:10184000B88B198A1A8A1B8A1C8A86819781A0857F
:10185000B1858D8B9E8BAF8BB88FC801BE016F5F3A
:101860007F4F48E150E040DE282F8823F9F4C8017B
:10187000BE01675E7F4F44E350E04DDE282F882392
:10188000A9F48DA19EA1AFA1B8A50097A105B105AE
:1018900011F020E80BC0FE01FD9680819181A281AC
:1018A000B381F801828B938BA48BB58B822FC45BA1
:1018B000DF4F0FB6F894DEBF0FBECDBFCF91DF91E3
:1018C0001F910F9108954F925F926F927F928F9226
:1018D0009F92AF92BF92CF92DF92EF92FF920F93BF
:1018E0001F93DF93CF9300D000D00F92CDB7DEB718
:1018F0006C017A8369835C834B830A96FC0180E1E7
:10190000DF011D928A95E9F7EB81FC8181818230AC
:1019100011F081E0A4C02F01662477248824992443
:10192000AA24BB24F3E0EF2EF12CEC0EFD1E8E0159
:101930000F5F1F4F04C08824992466247724411424
:10194000510439F0C801B70145E45DE0FDDA8823B0
:10195000B1F0A114B10441F0C801B70142ED59E062
:10196000F3DA882341F37AC0C801B70141EC59E0AA
:10197000EBDA882309F072C04B805C800EC0EB81EB
:10198000FC81828187FD02C04F0107C08381837083
:10199000833011F03F0101C05F016114710479F2DD
:1019A0008114910461F2A114B10449F291E0F601AD
:1019B0008081981769F4D30114960D911C911597A5
:1019C00012962C9181811587048762E040E110C056
:1019D000F6018281981771F4D40114960D911C912F
:1019E000159712962C9183811787068762E040E253
:1019F000FF2413C0F6018481981709F5D5011496C8
:101A00000D911C91159712962C911297858116961F
:101A1000FC90118B008B63E040E1882311F430E0EF
:101A200001C034E0892FE32E9D831BD89D8188233C
:101A300011F483E014C0FF2011F0F092AD009F5F1D
:101A4000973009F0B4CFF2018281D6011B968C93B6
:101A50001B9781E01A968C9380E001C082E00F9082
:101A60000F900F900F900F90CF91DF911F910F91DA
:101A7000FF90EF90DF90CF90BF90AF909F908F90AE
:101A80007F906F905F904F900895FC018181853029
:101A900051F4838183708250823048F4828153D81C
:101AA000882329F40895843011F481E0089582E0B8
:101AB0000895982F8091C80085FFFCCF9093CE00A9
:101AC00080E090E008958091C80087FD03C02EEF6C
:101AD0003FEF0BC08091C80087FD03C02FEF3FEFA1
:101AE00004C08091CE00282F30E0C9010895FB0189
:101AF000DC0102C001900D9241505040D8F708958A
:101B0000DF93CF93CDB7DEB7FE013596619171912A
:101B10008091520590915305AF015AD0CF91DF913A
:101B20000895DF93CF93CDB7DEB7FE01359661916F
:101B30007191A0915205B091530513968C91139712
:101B4000886013968C938091520590915305AF0154
:101B50003FD0E0915205F09153052381277F2383E5
:101B6000CF91DF9108950F931F93CF93DF93EC01F3
:101B7000E0915205F0915305838181FF21C000E07F
:101B800010E00EC0E0915205F0915305208531859B
:101B9000BF01F9010995892B11F00FEF1FEF219675
:101BA000FE018491882371F7E0915205F09153056D
:101BB000208531858AE0BF01F9010995892B11F053
:101BC0000FEF1FEFC801DF91CF911F910F91089583
:101BD0002F923F924F925F926F927F928F929F923D
:101BE000AF92BF92CF92DF92EF92FF920F931F932B
:101BF000DF93CF93CDB7DEB72B970FB6F894DEBF48
:101C00000FBECDBF3C012B015A01FC011782168289
:101C1000838181FD03C06FEF7FEFB9C19AE0892E08
:101C20001E010894211C311CF3012381F20123FDC4
:101C3000859123FF81912F01882309F4A5C1853265
:101C400039F423FD859123FF81912F01853221F401
:101C500090E0B301CCD1E8CF982FFF24EE24992453
:101C6000FFE1FF15D0F09B3269F09C3228F49032EE
:101C700059F0933291F40EC09D3249F0903369F4DB
:101C800041E024C052E0F52A84E0F82A28C098E018
:101C9000F92A25C0E0E1FE2A22C0F7FC29C0892FDD
:101CA00080538A3070F4F6FE05C0989C902C112465
:101CB000980E15C0E89CE02C1124E80EF0E2FF2AF3
:101CC0000EC09E3229F4F6FC5FC140E4F42A07C03E
:101CD0009C3619F450E8F52A02C0983649F4F2010E
:101CE00023FD959123FF91912F01992309F0B8CFFE
:101CF000892F8554833018F08052833038F444E0C3
:101D000050E0A40EB51E5FE359830FC0933631F047
:101D1000933779F0933509F052C01FC0F5018081E7
:101D2000898342E050E0A40EB51E610101E010E09D
:101D300011C0F501C080D180F6FC03C06FEF7FEFCA
:101D400002C0692D70E042E050E0A40EB51EC6014D
:101D500043D18C015FE7F52213C0F501C080D1802B
:101D6000F6FC03C06FEF7FEF02C0692D70E042E028
:101D700050E0A40EB51EC60124D18C0150E8F52A0E
:101D8000F3FE06C018C080E290E0B30130D1EA94BF
:101D90008E2D90E008171907B0F30DC0F601F7FC7F
:101DA0008591F7FE81916F0190E0B30120D1E110A0
:101DB000EA94015010400115110581F7E2C09436F4
:101DC00011F0993661F5F7FE08C0F50120813181E7
:101DD0004281538184E090E00AC0F50180819181C5
:101DE0009C01442737FD4095542F82E090E0A80ED7
:101DF000B91E9FE6F92257FF09C0509540953095CE
:101E000021953F4F4F4F5F4FE0E8FE2ACA01B901CD
:101E1000A1012AE030E017D1D82ED2183FC0953763
:101E200029F41F2D1F7E2AE030E01DC01F2D197FD1
:101E30009F3661F0903720F4983509F0A5C00FC0A7
:101E4000903739F0983709F09FC004C028E030E09F
:101E50000AC0106114FD146020E130E004C014FDDC
:101E6000166020E132E017FF08C0F5016081718142
:101E70008281938144E050E008C0F5018081918126
:101E8000BC0180E090E042E050E0A40EB51EA1014C
:101E9000DAD0D82ED2188FE7F82EF122F6FE0BC03A
:101EA0005EEFF522D91438F4F4FE07C0F2FC05C049
:101EB0008FEEF82202C01D2D01C0192DF4FE0DC0B9
:101EC000FE01ED0DF11D8081803319F499EEF922A8
:101ED00008C01F5FF2FE05C003C08F2D867809F091
:101EE0001F5F0F2DF3FC13C0F0FE0EC01E1510F087
:101EF0009D2C0AC09D2C9E0C911A1E2D05C080E2BF
:101F000090E0B30174D01F5F1E15C8F304C01E1506
:101F100010F4E11A01C0EE2404FF0EC080E390E04B
:101F2000B30165D002FF1BC001FD03C088E790E04C
:101F30000EC088E590E00BC0802F867881F001FF0D
:101F400002C08BE201C080E2F7FC8DE290E0B301B9
:101F50004ED005C080E390E0B30149D09A94D914E3
:101F6000C8F3DA94F101ED0DF11D808190E0B30129
:101F70003ED0DD20B1F705C080E290E0B30137D05C
:101F8000EA94EE20C9F750CEF30166817781CB0148
:101F90002B960FB6F894DEBF0FBECDBFCF91DF9169
:101FA0001F910F91FF90EF90DF90CF90BF90AF9077
:101FB0009F908F907F906F905F904F903F902F9069
:101FC0000895FC010590615070400110D8F780958C
:101FD00090958E0F9F1F0895FC01615070400190F5
:101FE0000110D8F7809590958E0F9F1F08950F933D
:101FF0001F93CF93DF938C01EB018B8181FF1BC07B
:1020000082FF0DC02E813F818C819D812817390769
:1020100064F4E881F9810193F983E88306C0E885D7
:10202000F985802F0995892B31F48E819F81019646
:102030009F838E8302C00FEF1FEFC801DF91CF9106
:102040001F910F910895FA01AA27283051F12031EC
:1020500081F1E8946F936E7F6E5F7F4F8F4F9F4F3C
:10206000AF4FB1E03ED0B4E03CD0670F781F891F7E
:102070009A1FA11D680F791F8A1F911DA11D6A0F4C
:10208000711D811D911DA11D20D009F468943F91FF
:102090002AE0269F11243019305D3193DEF6CF01FE
:1020A0000895462F4770405D4193B3E00FD0C9F7C4
:1020B000F6CF462F4F70405D4A3318F0495D31FD31
:1020C0004052419302D0A9F7EACFB4E0A695979584
:1020D000879577956795BA95C9F70097610571055A
:1020E00008959B01AC010A2E0694579547953795A4
:1020F0002795BA95C9F7620F731F841F951FA01DFE
:062100000895F894FFCFE2
:1021060030782530327820000100020003000004F8
:1021160000000000000000000000000000000000B9
:10212600000000050100000000008006000100001C
:04213600080040005D
:00000001FF
